{
  "contractName": "Test",
  "abi": [
    {
      "inputs": [],
      "stateMutability": "nonpayable",
      "type": "constructor"
    },
    {
      "anonymous": false,
      "inputs": [
        {
          "indexed": false,
          "internalType": "uint256",
          "name": "count",
          "type": "uint256"
        }
      ],
      "name": "ElectionResult",
      "type": "event"
    },
    {
      "inputs": [],
      "name": "count",
      "outputs": [
        {
          "internalType": "uint256",
          "name": "",
          "type": "uint256"
        }
      ],
      "stateMutability": "view",
      "type": "function",
      "constant": true
    },
    {
      "inputs": [
        {
          "internalType": "uint256",
          "name": "",
          "type": "uint256"
        }
      ],
      "name": "elections",
      "outputs": [
        {
          "internalType": "uint256",
          "name": "id",
          "type": "uint256"
        },
        {
          "internalType": "string",
          "name": "name",
          "type": "string"
        }
      ],
      "stateMutability": "view",
      "type": "function",
      "constant": true
    },
    {
      "inputs": [
        {
          "internalType": "uint256",
          "name": "",
          "type": "uint256"
        }
      ],
      "name": "ids",
      "outputs": [
        {
          "internalType": "uint256",
          "name": "",
          "type": "uint256"
        }
      ],
      "stateMutability": "view",
      "type": "function",
      "constant": true
    },
    {
      "inputs": [],
      "name": "nextId",
      "outputs": [
        {
          "internalType": "uint256",
          "name": "",
          "type": "uint256"
        }
      ],
      "stateMutability": "view",
      "type": "function",
      "constant": true
    },
    {
      "inputs": [],
      "name": "testName",
      "outputs": [
        {
          "internalType": "string",
          "name": "",
          "type": "string"
        }
      ],
      "stateMutability": "view",
      "type": "function",
      "constant": true
    },
    {
      "inputs": [],
      "name": "eventCount",
      "outputs": [],
      "stateMutability": "nonpayable",
      "type": "function"
    },
    {
      "inputs": [],
      "name": "getAllElections",
      "outputs": [
        {
          "components": [
            {
              "internalType": "uint256",
              "name": "id",
              "type": "uint256"
            },
            {
              "internalType": "string",
              "name": "name",
              "type": "string"
            }
          ],
          "internalType": "struct Test.Election[]",
          "name": "",
          "type": "tuple[]"
        }
      ],
      "stateMutability": "view",
      "type": "function",
      "constant": true
    },
    {
      "inputs": [
        {
          "internalType": "string",
          "name": "name",
          "type": "string"
        }
      ],
      "name": "create",
      "outputs": [],
      "stateMutability": "nonpayable",
      "type": "function"
    },
    {
      "inputs": [
        {
          "internalType": "uint256",
          "name": "id",
          "type": "uint256"
        }
      ],
      "name": "read",
      "outputs": [
        {
          "internalType": "uint256",
          "name": "",
          "type": "uint256"
        },
        {
          "internalType": "string",
          "name": "",
          "type": "string"
        }
      ],
      "stateMutability": "view",
      "type": "function",
      "constant": true
    },
    {
      "inputs": [
        {
          "internalType": "uint256",
          "name": "id",
          "type": "uint256"
        },
        {
          "internalType": "string",
          "name": "name",
          "type": "string"
        }
      ],
      "name": "update",
      "outputs": [],
      "stateMutability": "nonpayable",
      "type": "function"
    },
    {
      "inputs": [
        {
          "internalType": "uint256",
          "name": "id",
          "type": "uint256"
        }
      ],
      "name": "destroy",
      "outputs": [],
      "stateMutability": "nonpayable",
      "type": "function"
    },
    {
      "inputs": [
        {
          "internalType": "uint256",
          "name": "id",
          "type": "uint256"
        }
      ],
      "name": "add",
      "outputs": [],
      "stateMutability": "nonpayable",
      "type": "function"
    },
    {
      "inputs": [
        {
          "internalType": "uint256",
          "name": "position",
          "type": "uint256"
        }
      ],
      "name": "get",
      "outputs": [
        {
          "internalType": "uint256",
          "name": "",
          "type": "uint256"
        }
      ],
      "stateMutability": "view",
      "type": "function",
      "constant": true
    },
    {
      "inputs": [],
      "name": "getAll",
      "outputs": [
        {
          "internalType": "uint256[]",
          "name": "",
          "type": "uint256[]"
        }
      ],
      "stateMutability": "view",
      "type": "function",
      "constant": true
    },
    {
      "inputs": [],
      "name": "length",
      "outputs": [
        {
          "internalType": "uint256",
          "name": "",
          "type": "uint256"
        }
      ],
      "stateMutability": "view",
      "type": "function",
      "constant": true
    },
    {
      "inputs": [],
      "name": "hello",
      "outputs": [
        {
          "internalType": "string",
          "name": "",
          "type": "string"
        }
      ],
      "stateMutability": "pure",
      "type": "function",
      "constant": true
    },
    {
      "inputs": [
        {
          "internalType": "uint256",
          "name": "num",
          "type": "uint256"
        }
      ],
      "name": "store",
      "outputs": [],
      "stateMutability": "nonpayable",
      "type": "function"
    },
    {
      "inputs": [],
      "name": "getNumber",
      "outputs": [
        {
          "internalType": "uint256",
          "name": "",
          "type": "uint256"
        }
      ],
      "stateMutability": "view",
      "type": "function",
      "constant": true
    }
  ],
  "bytecode": "0x60c0604052600e60808190527f546869732069732061207465737400000000000000000000000000000000000060a090815261003e916002919061005b565b50600160055534801561005057600080fd5b5060006003556100f6565b828054600181600116156101000203166002900490600052602060002090601f016020900481019282601f1061009c57805160ff19168380011785556100c9565b828001600101855582156100c9579182015b828111156100c95782518255916020019190600101906100ae565b506100d59291506100d9565b5090565b6100f391905b808211156100d557600081556001016100df565b90565b610cf3806101056000396000f3fe608060405234801561001057600080fd5b50600436106101165760003560e01c80637fd5f268116100a2578063cc8668de11610071578063cc8668de14610212578063ed2e5a971461021a578063f2c9ecd81461022d578063f745630f14610235578063fac333ac1461024857610116565b80637fd5f268146101c45780639507d39a146101d95780639d118770146101ec578063b6a46b3b146101ff57610116565b806353ed5143116100e957806353ed51431461016b5780635e6fef01146101805780636057361d146101a157806361b8ce8c146101b457806371be2e4a146101bc57610116565b806306661abd1461011b5780631003e2d21461013957806319ff1d211461014e5780631f7b6d3214610163575b600080fd5b61012361025b565b6040516101309190610c9b565b60405180910390f35b61014c610147366004610aeb565b610261565b005b610156610295565b6040516101309190610c4a565b6101236102bc565b6101736102c2565b6040516101309190610c07565b61019361018e366004610aeb565b61031a565b604051610130929190610ca4565b61014c6101af366004610aeb565b6103cf565b6101236103d4565b61014c6103da565b6101cc61041d565b6040516101309190610b93565b6101236101e7366004610aeb565b610528565b61014c6101fa366004610aeb565b61054a565b61014c61020d366004610ab0565b610608565b610156610697565b610193610228366004610aeb565b610722565b610123610816565b61014c610243366004610b03565b61081c565b610123610256366004610aeb565b61085b565b60035481565b6001805480820182556000919091527fb10e2d527612073b26eecdfd717e6a320cf44b4afac2b0732d9fcbe2b7fa0cf60155565b60408051808201909152600c81526b48656c6c6f20576f726c642160a01b60208201525b90565b60015490565b6060600180548060200260200160405190810160405280929190818152602001828054801561031057602002820191906000526020600020905b8154815260200190600101908083116102fc575b5050505050905090565b6004818154811061032757fe5b60009182526020918290206002918202018054600180830180546040805193821615610100026000190190911695909504601f81018790048702830187019095528482529195509193919290918301828280156103c55780601f1061039a576101008083540402835291602001916103c5565b820191906000526020600020905b8154815290600101906020018083116103a857829003601f168201915b5050505050905082565b600055565b60055481565b60038054600101908190556040517fb8b9bcc5b4cddd0fd922a0657ec2425159d15e059cbb9733584f60a29d91aa3e9161041391610c9b565b60405180910390a1565b60606004805480602002602001604051908101604052809291908181526020016000905b8282101561051f578382906000526020600020906002020160405180604001604052908160008201548152602001600182018054600181600116156101000203166002900480601f0160208091040260200160405190810160405280929190818152602001828054600181600116156101000203166002900480156105075780601f106104dc57610100808354040283529160200191610507565b820191906000526020600020905b8154815290600101906020018083116104ea57829003601f168201915b50505050508152505081526020019060010190610441565b50505050905090565b60006001828154811061053757fe5b906000526020600020015490505b919050565b805b600454600019018110156105cf576004816001018154811061056a57fe5b90600052602060002090600202016004828154811061058557fe5b906000526020600020906002020160008201548160000155600182018160010190805460018160011615610100020316600290046105c49291906108de565b50505060010161054c565b5060048054806105db57fe5b600082815260208120600260001990930192830201818155906106016001830182610963565b5050905550565b604080518082019091526005548152602080820183815260048054600181018255600091909152835160029091027f8a35acfbc15ff81a39ae7d344fd709f28e8600b4aa8c65c6b64bfe7fe36bd19b8101918255915180519193610691937f8a35acfbc15ff81a39ae7d344fd709f28e8600b4aa8c65c6b64bfe7fe36bd19c01929101906109aa565b50505050565b6002805460408051602060018416156101000260001901909316849004601f8101849004840282018401909252818152929183018282801561071a5780601f106106ef5761010080835404028352916020019161071a565b820191906000526020600020905b8154815290600101906020018083116106fd57829003601f168201915b505050505081565b60006060600061073184610879565b90506004818154811061074057fe5b9060005260206000209060020201600001546004828154811061075f57fe5b9060005260206000209060020201600101808054600181600116156101000203166002900480601f0160208091040260200160405190810160405280929190818152602001828054600181600116156101000203166002900480156108055780601f106107da57610100808354040283529160200191610805565b820191906000526020600020905b8154815290600101906020018083116107e857829003601f168201915b505050505090509250925050915091565b60005490565b600061082783610879565b9050816004828154811061083757fe5b906000526020600020906002020160010190805190602001906106919291906109aa565b6001818154811061086857fe5b600091825260209091200154905081565b6000805b6004548110156108bc57826004828154811061089557fe5b90600052602060002090600202016000015414156108b4579050610545565b60010161087d565b5060405162461bcd60e51b81526004016108d590610c64565b60405180910390fd5b828054600181600116156101000203166002900490600052602060002090601f016020900481019282601f106109175780548555610953565b8280016001018555821561095357600052602060002091601f016020900482015b82811115610953578254825591600101919060010190610938565b5061095f929150610a18565b5090565b50805460018160011615610100020316600290046000825580601f1061098957506109a7565b601f0160209004906000526020600020908101906109a79190610a18565b50565b828054600181600116156101000203166002900490600052602060002090601f016020900481019282601f106109eb57805160ff1916838001178555610953565b82800160010185558215610953579182015b828111156109535782518255916020019190600101906109fd565b6102b991905b8082111561095f5760008155600101610a1e565b600082601f830112610a42578081fd5b813567ffffffffffffffff80821115610a59578283fd5b604051601f8301601f191681016020018281118282101715610a79578485fd5b604052828152925082848301602001861015610a9457600080fd5b8260208601602083013760006020848301015250505092915050565b600060208284031215610ac1578081fd5b813567ffffffffffffffff811115610ad7578182fd5b610ae384828501610a32565b949350505050565b600060208284031215610afc578081fd5b5035919050565b60008060408385031215610b15578081fd5b82359150602083013567ffffffffffffffff811115610b32578182fd5b610b3e85828601610a32565b9150509250929050565b60008151808452815b81811015610b6d57602081850181015186830182015201610b51565b81811115610b7e5782602083870101525b50601f01601f19169290920160200192915050565b6000602080830181845280855180835260408601915060408482028701019250838701855b82811015610bfa57603f1988860301845281518051865286810151604088880152610be66040880182610b48565b965050509285019290850190600101610bb8565b5092979650505050505050565b602080825282518282018190526000918401906040840190835b81811015610c3f578351835260209384019390920191600101610c21565b509095945050505050565b600060208252610c5d6020830184610b48565b9392505050565b60208082526018908201527f456c656374696f6e20646f6573206e6f74206578697374210000000000000000604082015260600190565b90815260200190565b600083825260406020830152610ae36040830184610b4856fea26469706673582212201661c895c1624c2755370f165d432741a768937c7a5c7b7739a082106bc608ff64736f6c63430006000033",
  "source": "pragma solidity ^0.6.0;\r\npragma experimental ABIEncoderV2;\r\n\r\n\r\ncontract Test {\r\n    uint256 number;\r\n    uint256[] public ids;\r\n    string public testName = \"This is a test\";\r\n    uint public count;\r\n    constructor() public{\r\n        count = 0;\r\n    }\r\n    struct Election {\r\n        uint256 id;\r\n        string name;\r\n    }\r\n    Election[] public elections;\r\n    uint256 public nextId = 1;\r\n\r\n    event ElectionResult(\r\n        uint count\r\n    );\r\n\r\n    function eventCount() external{\r\n        count++;\r\n        emit ElectionResult(count);\r\n    }\r\n\r\n    function getAllElections() public view returns (Election[] memory) {\r\n        return elections;\r\n    }\r\n\r\n    function create(string memory name) public {\r\n        elections.push(Election(nextId, name));\r\n    }\r\n\r\n    function read(uint256 id) public view returns (uint256, string memory) {\r\n        uint256 i = find(id);\r\n        return (elections[i].id, elections[i].name);\r\n    }\r\n\r\n    function update(uint256 id, string memory name) public {\r\n        uint256 i = find(id);\r\n        elections[i].name = name;\r\n    }\r\n\r\n    function destroy(uint256 id) public {\r\n        for (uint256 i = id; i < elections.length - 1; i++) {\r\n            elections[i] = elections[i + 1];\r\n        }\r\n        elections.pop();\r\n    }\r\n\r\n    function find(uint256 id) internal view returns (uint256) {\r\n        for (uint256 i = 0; i < elections.length; i++) {\r\n            if (elections[i].id == id) {\r\n                return i;\r\n            }\r\n        }\r\n        revert(\"Election does not exist!\");\r\n    }\r\n\r\n    function add(uint256 id) public {\r\n        ids.push(id);\r\n    }\r\n\r\n    function get(uint256 position) public view returns (uint256) {\r\n        return ids[position];\r\n    }\r\n\r\n    function getAll() public view returns (uint256[] memory) {\r\n        return ids;\r\n    }\r\n\r\n    function length() public view returns (uint256) {\r\n        return ids.length;\r\n    }\r\n\r\n    function hello() public pure returns (string memory) {\r\n        return \"Hello World!\";\r\n    }\r\n\r\n    function store(uint256 num) public {\r\n        number = num;\r\n    }\r\n\r\n    function getNumber() public view returns (uint256) {\r\n        return number;\r\n    }\r\n}\r\n",
  "sourcePath": "C:\\Projects\\voting-DAPP\\voting-web\\src\\contracts\\Test.sol",
  "compiler": {
    "name": "solc",
    "version": "0.6.0+commit.26b70077.Emscripten.clang"
  },
  "schemaVersion": "3.2.0",
  "updatedAt": "2020-06-02T20:15:30.083Z",
  "networkType": "ethereum",
  "devdoc": {
    "methods": {}
  },
  "userdoc": {
    "methods": {}
  }
}