{
  "contractName": "Voting",
  "abi": [
    {
      "inputs": [],
      "name": "nextElectionId",
      "outputs": [
        {
          "internalType": "uint256",
          "name": "",
          "type": "uint256"
        }
      ],
      "stateMutability": "view",
      "type": "function",
      "constant": true
    },
    {
      "inputs": [
        {
          "internalType": "address",
          "name": "voterId",
          "type": "address"
        },
        {
          "internalType": "string",
          "name": "firstName",
          "type": "string"
        },
        {
          "internalType": "string",
          "name": "lastName",
          "type": "string"
        }
      ],
      "name": "registerUser",
      "outputs": [],
      "stateMutability": "nonpayable",
      "type": "function"
    },
    {
      "inputs": [
        {
          "internalType": "address",
          "name": "id",
          "type": "address"
        }
      ],
      "name": "getUser",
      "outputs": [
        {
          "internalType": "address",
          "name": "",
          "type": "address"
        },
        {
          "internalType": "string",
          "name": "",
          "type": "string"
        },
        {
          "internalType": "string",
          "name": "",
          "type": "string"
        }
      ],
      "stateMutability": "view",
      "type": "function",
      "constant": true
    },
    {
      "inputs": [
        {
          "internalType": "string",
          "name": "electionName",
          "type": "string"
        },
        {
          "internalType": "address",
          "name": "creatorId",
          "type": "address"
        },
        {
          "internalType": "string",
          "name": "password",
          "type": "string"
        },
        {
          "internalType": "bool",
          "name": "hasPassword",
          "type": "bool"
        },
        {
          "internalType": "uint256",
          "name": "startDate",
          "type": "uint256"
        },
        {
          "internalType": "uint256",
          "name": "endDate",
          "type": "uint256"
        },
        {
          "internalType": "bool",
          "name": "isActive",
          "type": "bool"
        },
        {
          "internalType": "string[]",
          "name": "candidates",
          "type": "string[]"
        },
        {
          "internalType": "string",
          "name": "electionCover",
          "type": "string"
        }
      ],
      "name": "createElection",
      "outputs": [],
      "stateMutability": "nonpayable",
      "type": "function"
    },
    {
      "inputs": [
        {
          "internalType": "uint256",
          "name": "id",
          "type": "uint256"
        }
      ],
      "name": "getAnElection",
      "outputs": [
        {
          "components": [
            {
              "internalType": "uint256",
              "name": "electionId",
              "type": "uint256"
            },
            {
              "internalType": "string",
              "name": "electionName",
              "type": "string"
            },
            {
              "internalType": "address",
              "name": "creatorId",
              "type": "address"
            },
            {
              "internalType": "string",
              "name": "password",
              "type": "string"
            },
            {
              "internalType": "bool",
              "name": "hasPassword",
              "type": "bool"
            },
            {
              "internalType": "uint256",
              "name": "startDate",
              "type": "uint256"
            },
            {
              "internalType": "uint256",
              "name": "endDate",
              "type": "uint256"
            },
            {
              "internalType": "bool",
              "name": "isActive",
              "type": "bool"
            },
            {
              "internalType": "string[]",
              "name": "candidates",
              "type": "string[]"
            },
            {
              "internalType": "string",
              "name": "electionCover",
              "type": "string"
            }
          ],
          "internalType": "struct Voting.Election",
          "name": "",
          "type": "tuple"
        }
      ],
      "stateMutability": "view",
      "type": "function",
      "constant": true
    }
  ],
  "bytecode": "0x6080604052600160005534801561001557600080fd5b50610d1f806100256000396000f3fe608060405234801561001057600080fd5b50600436106100575760003560e01c80630533cef51461005c5780635313837b146100855780635caf3b891461009a5780636f77926b146100af578063db0c87c9146100d1575b600080fd5b61006f61006a366004610ace565b6100e4565b60405161007c9190610bda565b60405180910390f35b61008d6103f3565b60405161007c9190610cb9565b6100ad6100a83660046109dd565b6103f9565b005b6100c26100bd366004610949565b6104c9565b60405161007c93929190610b9a565b6100ad6100df36600461096b565b610621565b6100ec61067e565b6000828152600160208181526040928390208351610140810185528154815281840180548651600296821615610100026000190190911695909504601f810185900485028601850190965285855290949193858401939092908301828280156101965780601f1061016b57610100808354040283529160200191610196565b820191906000526020600020905b81548152906001019060200180831161017957829003601f168201915b50505091835250506002828101546001600160a01b031660208084019190915260038401805460408051601f6000196001851615610100020190931695909504918201849004840285018401815281855290940193909183018282801561023e5780601f106102135761010080835404028352916020019161023e565b820191906000526020600020905b81548152906001019060200180831161022157829003601f168201915b5050509183525050600482015460ff908116151560208084019190915260058401546040808501919091526006850154606085015260078501549092161515608084015260088401805483518184028101840190945280845260a090940193909160009084015b828210156103505760008481526020908190208301805460408051601f600260001961010060018716150201909416939093049283018590048502810185019091528181529283018282801561033c5780601f106103115761010080835404028352916020019161033c565b820191906000526020600020905b81548152906001019060200180831161031f57829003601f168201915b5050505050815260200190600101906102a5565b5050509082525060098201805460408051602060026001851615610100026000190190941693909304601f81018490048402820184019092528181529382019392918301828280156103e35780601f106103b8576101008083540402835291602001916103e3565b820191906000526020600020905b8154815290600101906020018083116103c657829003601f168201915b5050505050815250509050919050565b60005481565b600080548082526001602081815260409093209182558b5191926104249291840191908d01906106de565b506002810180546001600160a01b0319166001600160a01b038b16179055875161045790600383019060208b01906106de565b5060048101805460ff19908116891515179091556005820187905560068201869055600782018054909116851515179055825161049d906008830190602086019061075c565b5081516104b390600983019060208501906106de565b5050600080546001019055505050505050505050565b6001600160a01b038181166000908152600260208181526040808420805460018083018054855161010093821615939093026000190116879004601f810187900487028301870190955284825296976060978897939091169590949390920192909184919083018282801561057f5780601f106105545761010080835404028352916020019161057f565b820191906000526020600020905b81548152906001019060200180831161056257829003601f168201915b5050845460408051602060026001851615610100026000190190941693909304601f81018490048402820184019092528181529597508694509250840190508282801561060d5780601f106105e25761010080835404028352916020019161060d565b820191906000526020600020905b8154815290600101906020018083116105f057829003601f168201915b505050505090509250925092509193909250565b6001600160a01b038316600081815260026020908152604090912080546001600160a01b03191690921782558351610661916001840191908601906106de565b50815161067790600283019060208501906106de565b5050505050565b604051806101400160405280600081526020016060815260200160006001600160a01b0316815260200160608152602001600015158152602001600081526020016000815260200160001515815260200160608152602001606081525090565b828054600181600116156101000203166002900490600052602060002090601f016020900481019282601f1061071f57805160ff191683800117855561074c565b8280016001018555821561074c579182015b8281111561074c578251825591602001919060010190610731565b506107589291506107b5565b5090565b8280548282559060005260206000209081019282156107a9579160200282015b828111156107a957825180516107999184916020909101906106de565b509160200191906001019061077c565b506107589291506107d2565b6107cf91905b8082111561075857600081556001016107bb565b90565b6107cf91905b808211156107585760006107ec82826107f5565b506001016107d8565b50805460018160011615610100020316600290046000825580601f1061081b5750610839565b601f01602090049060005260206000209081019061083991906107b5565b50565b80356001600160a01b038116811461085357600080fd5b92915050565b600082601f830112610869578081fd5b813567ffffffffffffffff81111561087f578182fd5b602061088e8182840201610cc2565b828152925080830184820160005b848110156108c5576108b3888584358a01016108e0565b8352918301919083019060010161089c565b505050505092915050565b8035801515811461085357600080fd5b600082601f8301126108f0578081fd5b813567ffffffffffffffff811115610906578182fd5b610919601f8201601f1916602001610cc2565b915080825283602082850101111561093057600080fd5b8060208401602084013760009082016020015292915050565b60006020828403121561095a578081fd5b610964838361083c565b9392505050565b60008060006060848603121561097f578182fd5b610989858561083c565b9250602084013567ffffffffffffffff808211156109a5578384fd5b6109b1878388016108e0565b935060408601359150808211156109c6578283fd5b506109d3868287016108e0565b9150509250925092565b60008060008060008060008060006101208a8c0312156109fb578485fd5b893567ffffffffffffffff80821115610a12578687fd5b610a1e8d838e016108e0565b9a50610a2d8d60208e0161083c565b995060408c0135915080821115610a42578687fd5b610a4e8d838e016108e0565b9850610a5d8d60608e016108d0565b975060808c0135965060a08c01359550610a7a8d60c08e016108d0565b945060e08c0135915080821115610a8f578384fd5b610a9b8d838e01610859565b93506101008c0135915080821115610ab1578283fd5b50610abe8c828d016108e0565b9150509295985092959850929598565b600060208284031215610adf578081fd5b5035919050565b6001600160a01b03169052565b60008282518085526020808601955080818302840101818601855b84811015610b3c57601f19868403018952610b2a838351610b4f565b98840198925090830190600101610b0e565b5090979650505050505050565b15159052565b60008151808452815b81811015610b7457602081850181015186830182015201610b58565b81811115610b855782602083870101525b50601f01601f19169290920160200192915050565b6001600160a01b0384168152606060208201819052600090610bbe90830185610b4f565b8281036040840152610bd08185610b4f565b9695505050505050565b600060208252825160208301526020830151610140806040850152610c03610160850183610b4f565b60408601519250610c176060860184610ae6565b60608601519250601f1980868303016080870152610c358285610b4f565b60808801519450610c4960a0880186610b49565b60a088015160c088015260c088015160e088015260e088015194506101009250610c7583880186610b49565b8288015194506101209250818782030183880152610c938186610af3565b838901519550828882030185890152610cac8187610b4f565b9998505050505050505050565b90815260200190565b60405181810167ffffffffffffffff81118282101715610ce157600080fd5b60405291905056fea2646970667358221220ffdb5c0cd48e45125298f22bfbc4f74c7561c6a2fac565e38e5b7402d8b82eda64736f6c63430006000033",
  "source": "//SPDX-License-Identifier: MIT\r\npragma solidity ^0.6.0;\r\npragma experimental ABIEncoderV2;\r\n\r\ncontract Voting {\r\n    uint256 public nextElectionId = 1;\r\n    mapping(uint256 => Election) elections;\r\n\r\n    mapping(address => Voter) voters;\r\n    // address[] public votersList;\r\n\r\n    struct Election {\r\n        uint256 electionId;\r\n        string electionName;\r\n        address creatorId;\r\n        string password;\r\n        bool hasPassword;\r\n        uint256 startDate;\r\n        uint256 endDate;\r\n        bool isActive;\r\n        string[] candidates;\r\n        string electionCover;\r\n        // Voter[] voter;\r\n    }\r\n\r\n    struct Voter {\r\n        address voterId;\r\n        bool voted;\r\n        string firstName;\r\n        string lastName;\r\n        // Election[] participatedElection;\r\n    }\r\n\r\n    function registerUser(\r\n        address voterId,\r\n        string memory firstName,\r\n        string memory lastName\r\n    ) public {\r\n        Voter storage user = voters[voterId];\r\n        user.voterId = voterId;\r\n        user.firstName = firstName;\r\n        user.lastName = lastName;\r\n    }\r\n\r\n    function getUser(address id)\r\n        public\r\n        view\r\n        returns (\r\n            address,\r\n            string memory,\r\n            string memory\r\n        )\r\n    {\r\n        return (voters[id].voterId, voters[id].firstName, voters[id].lastName);\r\n    }\r\n\r\n    function createElection(\r\n        string memory electionName,\r\n        address creatorId,\r\n        string memory password,\r\n        bool hasPassword,\r\n        uint256 startDate,\r\n        uint256 endDate,\r\n        bool isActive,\r\n        string[] memory candidates,\r\n        string memory electionCover\r\n    ) public {\r\n        Election storage newElection = elections[nextElectionId];\r\n        newElection.electionId = nextElectionId;\r\n        newElection.electionName = electionName;\r\n        newElection.creatorId = creatorId;\r\n        newElection.password = password;\r\n        newElection.hasPassword = hasPassword;\r\n        newElection.startDate = startDate;\r\n        newElection.endDate = endDate;\r\n        newElection.isActive = isActive;\r\n        newElection.candidates = candidates;\r\n        newElection.electionCover = electionCover;\r\n        nextElectionId++;\r\n    }\r\n\r\n    function getAnElection(uint256 id)\r\n        public\r\n        view\r\n        returns (\r\n            // uint256,\r\n            // string memory,\r\n            // address,\r\n            // string memory,\r\n            // bool,\r\n            // uint256,\r\n            // uint256,\r\n            // bool,\r\n            // string[] memory,\r\n            // string memory\r\n            Election memory\r\n        )\r\n    {\r\n        return elections[id];\r\n        // return (\r\n        //     elections[id].electionId,\r\n        //     elections[id].electionName,\r\n        //     elections[id].creatorId,\r\n        //     elections[id].password,\r\n        //     elections[id].hasPassword,\r\n        //     elections[id].startDate,\r\n        //     elections[id].endDate,\r\n        //     elections[id].isActive,\r\n        //     elections[id].candidates,\r\n        //     elections[id].electionCover\r\n        // );\r\n    }\r\n}\r\n",
  "sourcePath": "C:\\Projects\\voting-DAPP\\BlockVoteWeb\\contracts\\voting.sol",
  "compiler": {
    "name": "solc",
    "version": "0.6.0+commit.26b70077.Emscripten.clang"
  },
  "schemaVersion": "3.2.0",
  "updatedAt": "2020-07-04T11:22:57.136Z",
  "networkType": "ethereum",
  "devdoc": {
    "methods": {}
  },
  "userdoc": {
    "methods": {}
  }
}