{
  "contractName": "Voting",
  "abi": [
    {
      "inputs": [],
      "name": "nextElectionId",
      "outputs": [
        {
          "internalType": "uint256",
          "name": "",
          "type": "uint256"
        }
      ],
      "stateMutability": "view",
      "type": "function",
      "constant": true
    },
    {
      "inputs": [
        {
          "internalType": "string",
          "name": "candidateId",
          "type": "string"
        },
        {
          "internalType": "string",
          "name": "candidateName",
          "type": "string"
        },
        {
          "internalType": "string",
          "name": "candidateImage",
          "type": "string"
        }
      ],
      "name": "addCandidate",
      "outputs": [],
      "stateMutability": "nonpayable",
      "type": "function"
    },
    {
      "inputs": [
        {
          "internalType": "string",
          "name": "candidateId",
          "type": "string"
        }
      ],
      "name": "getCandidate",
      "outputs": [
        {
          "components": [
            {
              "internalType": "string",
              "name": "candidateId",
              "type": "string"
            },
            {
              "internalType": "string",
              "name": "candidateName",
              "type": "string"
            },
            {
              "internalType": "string",
              "name": "candidateImage",
              "type": "string"
            }
          ],
          "internalType": "struct Voting.Candidate",
          "name": "",
          "type": "tuple"
        }
      ],
      "stateMutability": "view",
      "type": "function",
      "constant": true
    },
    {
      "inputs": [
        {
          "internalType": "address",
          "name": "voterId",
          "type": "address"
        },
        {
          "internalType": "string",
          "name": "firstName",
          "type": "string"
        },
        {
          "internalType": "string",
          "name": "lastName",
          "type": "string"
        }
      ],
      "name": "registerUser",
      "outputs": [],
      "stateMutability": "nonpayable",
      "type": "function"
    },
    {
      "inputs": [
        {
          "internalType": "address",
          "name": "id",
          "type": "address"
        }
      ],
      "name": "getUser",
      "outputs": [
        {
          "components": [
            {
              "internalType": "address",
              "name": "voterId",
              "type": "address"
            },
            {
              "internalType": "bool",
              "name": "voted",
              "type": "bool"
            },
            {
              "internalType": "string",
              "name": "firstName",
              "type": "string"
            },
            {
              "internalType": "string",
              "name": "lastName",
              "type": "string"
            }
          ],
          "internalType": "struct Voting.Voter",
          "name": "",
          "type": "tuple"
        }
      ],
      "stateMutability": "view",
      "type": "function",
      "constant": true
    },
    {
      "inputs": [
        {
          "internalType": "string",
          "name": "electionName",
          "type": "string"
        },
        {
          "internalType": "address",
          "name": "creatorId",
          "type": "address"
        },
        {
          "internalType": "string",
          "name": "password",
          "type": "string"
        },
        {
          "internalType": "bool",
          "name": "hasPassword",
          "type": "bool"
        },
        {
          "internalType": "uint256",
          "name": "startDate",
          "type": "uint256"
        },
        {
          "internalType": "uint256",
          "name": "endDate",
          "type": "uint256"
        },
        {
          "internalType": "bool",
          "name": "isActive",
          "type": "bool"
        },
        {
          "internalType": "string[]",
          "name": "candidatesList",
          "type": "string[]"
        },
        {
          "internalType": "string",
          "name": "electionCover",
          "type": "string"
        }
      ],
      "name": "createElection",
      "outputs": [],
      "stateMutability": "nonpayable",
      "type": "function"
    },
    {
      "inputs": [
        {
          "internalType": "uint256",
          "name": "id",
          "type": "uint256"
        }
      ],
      "name": "getAnElection",
      "outputs": [
        {
          "components": [
            {
              "internalType": "uint256",
              "name": "electionId",
              "type": "uint256"
            },
            {
              "internalType": "string",
              "name": "electionName",
              "type": "string"
            },
            {
              "internalType": "address",
              "name": "creatorId",
              "type": "address"
            },
            {
              "internalType": "string",
              "name": "password",
              "type": "string"
            },
            {
              "internalType": "bool",
              "name": "hasPassword",
              "type": "bool"
            },
            {
              "internalType": "uint256",
              "name": "startDate",
              "type": "uint256"
            },
            {
              "internalType": "uint256",
              "name": "endDate",
              "type": "uint256"
            },
            {
              "internalType": "bool",
              "name": "isActive",
              "type": "bool"
            },
            {
              "internalType": "string[]",
              "name": "candidates",
              "type": "string[]"
            },
            {
              "internalType": "string",
              "name": "electionCover",
              "type": "string"
            }
          ],
          "internalType": "struct Voting.Election",
          "name": "",
          "type": "tuple"
        }
      ],
      "stateMutability": "view",
      "type": "function",
      "constant": true
    }
  ],
  "bytecode": "0x6080604052600160005534801561001557600080fd5b50611054806100256000396000f3fe608060405234801561001057600080fd5b506004361061007d5760003560e01c80636f77926b1161005b5780636f77926b146100d5578063ad71f8dc146100f5578063db0c87c914610108578063f276669d1461011b5761007d565b80630533cef5146100825780635313837b146100ab5780635caf3b89146100c0575b600080fd5b610095610090366004610d55565b61013b565b6040516100a29190610e7f565b60405180910390f35b6100b361044a565b6040516100a29190610fbe565b6100d36100ce366004610c18565b610450565b005b6100e86100e3366004610b49565b610520565b6040516100a29190610f5e565b6100d3610103366004610d09565b610659565b6100d3610116366004610b6b565b6106c6565b61012e610129366004610bdd565b61070d565b6040516100a29190610e1f565b610143610837565b6000828152600160208181526040928390208351610140810185528154815281840180548651600296821615610100026000190190911695909504601f810185900485028601850190965285855290949193858401939092908301828280156101ed5780601f106101c2576101008083540402835291602001916101ed565b820191906000526020600020905b8154815290600101906020018083116101d057829003601f168201915b50505091835250506002828101546001600160a01b031660208084019190915260038401805460408051601f600019600185161561010002019093169590950491820184900484028501840181528185529094019390918301828280156102955780601f1061026a57610100808354040283529160200191610295565b820191906000526020600020905b81548152906001019060200180831161027857829003601f168201915b5050509183525050600482015460ff908116151560208084019190915260058401546040808501919091526006850154606085015260078501549092161515608084015260088401805483518184028101840190945280845260a090940193909160009084015b828210156103a75760008481526020908190208301805460408051601f60026000196101006001871615020190941693909304928301859004850281018501909152818152928301828280156103935780601f1061036857610100808354040283529160200191610393565b820191906000526020600020905b81548152906001019060200180831161037657829003601f168201915b5050505050815260200190600101906102fc565b5050509082525060098201805460408051602060026001851615610100026000190190941693909304601f810184900484028201840190925281815293820193929183018282801561043a5780601f1061040f5761010080835404028352916020019161043a565b820191906000526020600020905b81548152906001019060200180831161041d57829003601f168201915b5050505050815250509050919050565b60005481565b600080548082526001602081815260409093209182558b51919261047b9291840191908d0190610897565b506002810180546001600160a01b0319166001600160a01b038b1617905587516104ae90600383019060208b0190610897565b5060048101805460ff1990811689151517909155600582018790556006820186905560078201805490911685151517905582516104f49060088301906020860190610915565b50815161050a9060098301906020850190610897565b5050600080546001019055505050505050505050565b61052861096e565b6001600160a01b03828116600090815260036020908152604091829020825160808101845281549485168152600160a01b90940460ff16151584830152600180820180548551600261010094831615949094026000190190911692909204601f810185900485028301850186528083529294860193919290918301828280156105f25780601f106105c7576101008083540402835291602001916105f2565b820191906000526020600020905b8154815290600101906020018083116105d557829003601f168201915b5050509183525050600282810180546040805160206001841615610100026000190190931694909404601f8101839004830285018301909152808452938101939083018282801561043a5780601f1061040f5761010080835404028352916020019161043a565b600060028460405161066b9190610e03565b9081526020016040518091039020905083816000019080519060200190610693929190610897565b5082516106a99060018301906020860190610897565b5081516106bf9060028301906020850190610897565b5050505050565b6001600160a01b038316600081815260036020908152604090912080546001600160a01b03191690921760ff60a01b1916825583516106a991600184019190860190610897565b610715610994565b6002826040516107259190610e03565b9081526040805160209281900383018120805460026001821615610100026000190190911604601f810185900490940282016080908101909352606082018481529193909284929184918401828280156107c05780601f10610795576101008083540402835291602001916107c0565b820191906000526020600020905b8154815290600101906020018083116107a357829003601f168201915b50505050508152602001600182018054600181600116156101000203166002900480601f0160208091040260200160405190810160405280929190818152602001828054600181600116156101000203166002900480156105f25780601f106105c7576101008083540402835291602001916105f2565b604051806101400160405280600081526020016060815260200160006001600160a01b0316815260200160608152602001600015158152602001600081526020016000815260200160001515815260200160608152602001606081525090565b828054600181600116156101000203166002900490600052602060002090601f016020900481019282601f106108d857805160ff1916838001178555610905565b82800160010185558215610905579182015b828111156109055782518255916020019190600101906108ea565b506109119291506109b5565b5090565b828054828255906000526020600020908101928215610962579160200282015b828111156109625782518051610952918491602090910190610897565b5091602001919060010190610935565b506109119291506109d2565b604080516080810182526000808252602082015260609181018290528181019190915290565b60405180606001604052806060815260200160608152602001606081525090565b6109cf91905b8082111561091157600081556001016109bb565b90565b6109cf91905b808211156109115760006109ec82826109f5565b506001016109d8565b50805460018160011615610100020316600290046000825580601f10610a1b5750610a39565b601f016020900490600052602060002090810190610a3991906109b5565b50565b80356001600160a01b0381168114610a5357600080fd5b92915050565b600082601f830112610a69578081fd5b813567ffffffffffffffff811115610a7f578182fd5b6020610a8e8182840201610fc7565b828152925080830184820160005b84811015610ac557610ab3888584358a0101610ae0565b83529183019190830190600101610a9c565b505050505092915050565b80358015158114610a5357600080fd5b600082601f830112610af0578081fd5b813567ffffffffffffffff811115610b06578182fd5b610b19601f8201601f1916602001610fc7565b9150808252836020828501011115610b3057600080fd5b8060208401602084013760009082016020015292915050565b600060208284031215610b5a578081fd5b610b648383610a3c565b9392505050565b600080600060608486031215610b7f578182fd5b610b898585610a3c565b9250602084013567ffffffffffffffff80821115610ba5578384fd5b610bb187838801610ae0565b93506040860135915080821115610bc6578283fd5b50610bd386828701610ae0565b9150509250925092565b600060208284031215610bee578081fd5b813567ffffffffffffffff811115610c04578182fd5b610c1084828501610ae0565b949350505050565b60008060008060008060008060006101208a8c031215610c36578485fd5b893567ffffffffffffffff80821115610c4d578687fd5b610c598d838e01610ae0565b9a50610c688d60208e01610a3c565b995060408c0135915080821115610c7d578687fd5b610c898d838e01610ae0565b9850610c988d60608e01610ad0565b975060808c0135965060a08c01359550610cb58d60c08e01610ad0565b945060e08c0135915080821115610cca578384fd5b610cd68d838e01610a59565b93506101008c0135915080821115610cec578283fd5b50610cf98c828d01610ae0565b9150509295985092959850929598565b600080600060608486031215610d1d578283fd5b833567ffffffffffffffff80821115610d34578485fd5b610d4087838801610ae0565b94506020860135915080821115610ba5578384fd5b600060208284031215610d66578081fd5b5035919050565b6001600160a01b03169052565b600081518084526020840180819550602083028101915060208501845b84811015610dc5578284038852610daf848351610dd7565b6020988901989094509190910190600101610d97565b50919695505050505050565b15159052565b60008151808452610def816020860160208601610fee565b601f01601f19169290920160200192915050565b60008251610e15818460208701610fee565b9190910192915050565b600060208252825160606020840152610e3b6080840182610dd7565b60208501519150601f1980858303016040860152610e598284610dd7565b6040870151935081868203016060870152610e748185610dd7565b979650505050505050565b600060208252825160208301526020830151610140806040850152610ea8610160850183610dd7565b60408601519250610ebc6060860184610d6d565b60608601519250601f1980868303016080870152610eda8285610dd7565b60808801519450610eee60a0880186610dd1565b60a088015160c088015260c088015160e088015260e088015194506101009250610f1a83880186610dd1565b8288015194506101209250818782030183880152610f388186610d7a565b838901519550828882030185890152610f518187610dd7565b9998505050505050505050565b60006020825260018060a01b038351166020830152602083015115156040830152604083015160806060840152610f9860a0840182610dd7565b6060850151848203601f190160808601529150610fb58183610dd7565b95945050505050565b90815260200190565b60405181810167ffffffffffffffff81118282101715610fe657600080fd5b604052919050565b60005b83811015611009578181015183820152602001610ff1565b83811115611018576000848401525b5050505056fea2646970667358221220d03f4f531958758692a9e26edde4dde9564dd6b46e8b5822e62bfb920bc51a6364736f6c63430006000033",
  "source": "//SPDX-License-Identifier: MIT\r\npragma solidity ^0.6.0;\r\npragma experimental ABIEncoderV2;\r\n\r\ncontract Voting {\r\n    uint256 public nextElectionId = 1;\r\n    mapping(uint256 => Election) elections;\r\n    mapping(string => Candidate) candidates;\r\n\r\n    mapping(address => Voter) voters;\r\n\r\n    struct Election {\r\n        uint256 electionId;\r\n        string electionName;\r\n        address creatorId;\r\n        string password;\r\n        bool hasPassword;\r\n        uint256 startDate;\r\n        uint256 endDate;\r\n        bool isActive;\r\n        string[] candidates;\r\n        string electionCover;\r\n        // Voter[] voter;\r\n    }\r\n\r\n    struct Candidate {\r\n        string candidateId;\r\n        string candidateName;\r\n        string candidateImage;\r\n        // Voter[] voter;\r\n    }\r\n\r\n    struct Voter {\r\n        address voterId;\r\n        bool voted;\r\n        string firstName;\r\n        string lastName;\r\n    }\r\n\r\n    function addCandidate(\r\n        string memory candidateId,\r\n        string memory candidateName,\r\n        string memory candidateImage\r\n    ) public {\r\n        Candidate storage newCandidate = candidates[candidateId];\r\n        newCandidate.candidateId = candidateId;\r\n        newCandidate.candidateName = candidateName;\r\n        newCandidate.candidateImage = candidateImage;\r\n    }\r\n\r\n    function getCandidate(string memory candidateId)\r\n        public\r\n        view\r\n        returns (Candidate memory)\r\n    {\r\n        return candidates[candidateId];\r\n    }\r\n\r\n    function registerUser(\r\n        address voterId,\r\n        string memory firstName,\r\n        string memory lastName\r\n    ) public {\r\n        Voter storage user = voters[voterId];\r\n        user.voterId = voterId;\r\n        user.voted = false;\r\n        user.firstName = firstName;\r\n        user.lastName = lastName;\r\n    }\r\n\r\n    function getUser(address id) public view returns (Voter memory) {\r\n        return voters[id];\r\n    }\r\n\r\n    function createElection(\r\n        string memory electionName,\r\n        address creatorId,\r\n        string memory password,\r\n        bool hasPassword,\r\n        uint256 startDate,\r\n        uint256 endDate,\r\n        bool isActive,\r\n        string[] memory candidatesList,\r\n        string memory electionCover\r\n    ) public {\r\n        Election storage newElection = elections[nextElectionId];\r\n        newElection.electionId = nextElectionId;\r\n        newElection.electionName = electionName;\r\n        newElection.creatorId = creatorId;\r\n        newElection.password = password;\r\n        newElection.hasPassword = hasPassword;\r\n        newElection.startDate = startDate;\r\n        newElection.endDate = endDate;\r\n        newElection.isActive = isActive;\r\n        newElection.candidates = candidatesList;\r\n        newElection.electionCover = electionCover;\r\n        nextElectionId++;\r\n    }\r\n\r\n    function getAnElection(uint256 id) public view returns (Election memory) {\r\n        return elections[id];\r\n    }\r\n}\r\n",
  "sourcePath": "C:\\Projects\\voting-DAPP\\BlockVoteWeb\\contracts\\voting.sol",
  "compiler": {
    "name": "solc",
    "version": "0.6.0+commit.26b70077.Emscripten.clang"
  },
  "schemaVersion": "3.2.0",
  "updatedAt": "2020-07-05T19:34:48.771Z",
  "networkType": "ethereum",
  "devdoc": {
    "methods": {}
  },
  "userdoc": {
    "methods": {}
  }
}