{
  "contractName": "Voting",
  "abi": [
    {
      "inputs": [
        {
          "internalType": "uint256",
          "name": "",
          "type": "uint256"
        }
      ],
      "name": "electionIdList",
      "outputs": [
        {
          "internalType": "string",
          "name": "",
          "type": "string"
        }
      ],
      "stateMutability": "view",
      "type": "function",
      "constant": true
    },
    {
      "inputs": [],
      "name": "getAllElectionId",
      "outputs": [
        {
          "internalType": "string[]",
          "name": "",
          "type": "string[]"
        }
      ],
      "stateMutability": "view",
      "type": "function",
      "constant": true
    },
    {
      "inputs": [
        {
          "internalType": "address",
          "name": "voterId",
          "type": "address"
        },
        {
          "internalType": "string",
          "name": "electionId",
          "type": "string"
        }
      ],
      "name": "approveVoter",
      "outputs": [],
      "stateMutability": "nonpayable",
      "type": "function"
    },
    {
      "inputs": [
        {
          "internalType": "string",
          "name": "candidateId",
          "type": "string"
        },
        {
          "internalType": "address",
          "name": "voterId",
          "type": "address"
        },
        {
          "internalType": "string",
          "name": "electionId",
          "type": "string"
        }
      ],
      "name": "voteCandidate",
      "outputs": [],
      "stateMutability": "nonpayable",
      "type": "function"
    },
    {
      "inputs": [
        {
          "internalType": "string",
          "name": "electionId",
          "type": "string"
        }
      ],
      "name": "getAllElectionVoter",
      "outputs": [
        {
          "internalType": "address[]",
          "name": "",
          "type": "address[]"
        }
      ],
      "stateMutability": "view",
      "type": "function",
      "constant": true
    },
    {
      "inputs": [
        {
          "internalType": "string",
          "name": "electionId",
          "type": "string"
        },
        {
          "internalType": "address",
          "name": "voterId",
          "type": "address"
        }
      ],
      "name": "joinElection",
      "outputs": [],
      "stateMutability": "nonpayable",
      "type": "function"
    },
    {
      "inputs": [
        {
          "internalType": "string",
          "name": "candidateId",
          "type": "string"
        },
        {
          "internalType": "string",
          "name": "candidateName",
          "type": "string"
        },
        {
          "internalType": "string",
          "name": "candidateImage",
          "type": "string"
        }
      ],
      "name": "addCandidate",
      "outputs": [],
      "stateMutability": "nonpayable",
      "type": "function"
    },
    {
      "inputs": [
        {
          "internalType": "string",
          "name": "candidateId",
          "type": "string"
        }
      ],
      "name": "getCandidate",
      "outputs": [
        {
          "components": [
            {
              "internalType": "string",
              "name": "candidateId",
              "type": "string"
            },
            {
              "internalType": "string",
              "name": "candidateName",
              "type": "string"
            },
            {
              "internalType": "string",
              "name": "candidateImage",
              "type": "string"
            },
            {
              "internalType": "address[]",
              "name": "voter",
              "type": "address[]"
            }
          ],
          "internalType": "struct Voting.Candidate",
          "name": "",
          "type": "tuple"
        }
      ],
      "stateMutability": "view",
      "type": "function",
      "constant": true
    },
    {
      "inputs": [
        {
          "internalType": "address",
          "name": "voterId",
          "type": "address"
        }
      ],
      "name": "registerUser",
      "outputs": [],
      "stateMutability": "nonpayable",
      "type": "function"
    },
    {
      "inputs": [
        {
          "internalType": "address",
          "name": "id",
          "type": "address"
        }
      ],
      "name": "getUser",
      "outputs": [
        {
          "components": [
            {
              "internalType": "address",
              "name": "voterId",
              "type": "address"
            }
          ],
          "internalType": "struct Voting.Voter",
          "name": "",
          "type": "tuple"
        }
      ],
      "stateMutability": "view",
      "type": "function",
      "constant": true
    },
    {
      "inputs": [
        {
          "internalType": "string",
          "name": "electionId",
          "type": "string"
        },
        {
          "internalType": "string",
          "name": "electionName",
          "type": "string"
        },
        {
          "internalType": "address",
          "name": "creatorId",
          "type": "address"
        },
        {
          "internalType": "string",
          "name": "password",
          "type": "string"
        },
        {
          "internalType": "bool",
          "name": "hasPassword",
          "type": "bool"
        },
        {
          "internalType": "uint256",
          "name": "startDate",
          "type": "uint256"
        },
        {
          "internalType": "uint256",
          "name": "endDate",
          "type": "uint256"
        },
        {
          "internalType": "bool",
          "name": "isActive",
          "type": "bool"
        },
        {
          "internalType": "string[]",
          "name": "candidatesList",
          "type": "string[]"
        },
        {
          "internalType": "string",
          "name": "electionCover",
          "type": "string"
        },
        {
          "internalType": "address[]",
          "name": "pendingVoter",
          "type": "address[]"
        },
        {
          "internalType": "address[]",
          "name": "approvedVoter",
          "type": "address[]"
        }
      ],
      "name": "createElection",
      "outputs": [],
      "stateMutability": "nonpayable",
      "type": "function"
    },
    {
      "inputs": [
        {
          "internalType": "string",
          "name": "id",
          "type": "string"
        }
      ],
      "name": "getAnElection",
      "outputs": [
        {
          "components": [
            {
              "internalType": "string",
              "name": "electionId",
              "type": "string"
            },
            {
              "internalType": "string",
              "name": "electionName",
              "type": "string"
            },
            {
              "internalType": "address",
              "name": "creatorId",
              "type": "address"
            },
            {
              "internalType": "string",
              "name": "password",
              "type": "string"
            },
            {
              "internalType": "bool",
              "name": "hasPassword",
              "type": "bool"
            },
            {
              "internalType": "uint256",
              "name": "startDate",
              "type": "uint256"
            },
            {
              "internalType": "uint256",
              "name": "endDate",
              "type": "uint256"
            },
            {
              "internalType": "bool",
              "name": "isActive",
              "type": "bool"
            },
            {
              "internalType": "string[]",
              "name": "candidates",
              "type": "string[]"
            },
            {
              "internalType": "string",
              "name": "electionCover",
              "type": "string"
            },
            {
              "internalType": "address[]",
              "name": "pendingVoter",
              "type": "address[]"
            },
            {
              "internalType": "address[]",
              "name": "approvedVoter",
              "type": "address[]"
            }
          ],
          "internalType": "struct Voting.Election",
          "name": "",
          "type": "tuple"
        }
      ],
      "stateMutability": "view",
      "type": "function",
      "constant": true
    }
  ],
  "bytecode": "0x608060405234801561001057600080fd5b50611a58806100206000396000f3fe608060405234801561001057600080fd5b50600436106100b45760003560e01c80638eecb789116100715780638eecb78914610150578063ad71f8dc14610165578063da51e0af14610178578063f276669d14610198578063fa084f25146101b8578063fad761d3146101d8576100b4565b8063081937cf146100b95780631bcfa1f1146100e25780632199d5cd146100f75780636f77926b1461010a5780638b3ac97a1461012a5780638e11acdc1461013d575b600080fd5b6100cc6100c73660046113a1565b6101eb565b6040516100d991906117a0565b60405180910390f35b6100f56100f03660046113db565b610265565b005b6100f5610105366004611332565b6102bd565b61011d610118366004611332565b6102e7565b6040516100d99190611985565b6100f5610138366004611427565b61031f565b6100f561014b36600461149b565b6103c4565b61015861051a565b6040516100d991906117b3565b6100f5610173366004611629565b6105f3565b61018b610186366004611695565b610660565b6040516100d991906117c6565b6101ab6101a63660046113a1565b610706565b6040516100d991906117d9565b6101cb6101c63660046113a1565b61095f565b6040516100d99190611856565b6100f56101e6366004611354565b610dd5565b60606003826040516101fd9190611784565b908152604080519182900360209081018320805480830285018301909352828452919083018282801561025957602002820191906000526020600020905b81546001600160a01b0316815260019091019060200180831161023b575b50505050509050919050565b600080836040516102769190611784565b90815260405160209181900382019020600a01805460018101825560009182529190200180546001600160a01b0319166001600160a01b0393909316929092179091555050565b6001600160a01b0316600081815260026020526040902080546001600160a01b0319169091179055565b6102ef610f3a565b506001600160a01b0390811660009081526002602090815260409182902082519182019092529054909116815290565b60006001846040516103319190611784565b9081526040516020918190038201812060038082018054600181018255600091825294902090930180546001600160a01b0319166001600160a01b038816179055925061037f908490611784565b90815260405160209181900382019020805460018101825560009182529190200180546001600160a01b0319166001600160a01b039490941693909317909255505050565b6000808d6040516103d59190611784565b908152602001604051809103902090508c8160000190805190602001906103fd929190610f4c565b508b5161041390600183019060208f0190610f4c565b506002810180546001600160a01b0319166001600160a01b038d16179055895161044690600383019060208d0190610f4c565b5060048101805460ff199081168b1515179091556005820189905560068201889055600782018054909116871515179055845161048c9060088301906020880190610fca565b5083516104a29060098301906020870190610f4c565b5082516104b890600a8301906020860190611023565b5081516104ce90600b8301906020850190611023565b5060048d90806001815401808255809150506001900390600052602060002001600090919091909150908051906020019061050a929190610f4c565b5050505050505050505050505050565b60606004805480602002602001604051908101604052809291908181526020016000905b828210156105e95760008481526020908190208301805460408051601f60026000196101006001871615020190941693909304928301859004850281018501909152818152928301828280156105d55780601f106105aa576101008083540402835291602001916105d5565b820191906000526020600020905b8154815290600101906020018083116105b857829003601f168201915b50505050508152602001906001019061053e565b5050505090505b90565b60006001846040516106059190611784565b908152602001604051809103902090508381600001908051906020019061062d929190610f4c565b5082516106439060018301906020860190610f4c565b5081516106599060028301906020850190610f4c565b5050505050565b6004818154811061066d57fe5b600091825260209182902001805460408051601f60026000196101006001871615020190941693909304928301859004850281018501909152818152935090918301828280156106fe5780601f106106d3576101008083540402835291602001916106fe565b820191906000526020600020905b8154815290600101906020018083116106e157829003601f168201915b505050505081565b61070e611084565b60018260405161071e9190611784565b9081526040805160209281900383018120805460026001821615610100026000190190911604601f8101859004909402820160a0908101909352608082018481529193909284929184918401828280156107b95780601f1061078e576101008083540402835291602001916107b9565b820191906000526020600020905b81548152906001019060200180831161079c57829003601f168201915b50505050508152602001600182018054600181600116156101000203166002900480601f01602080910402602001604051908101604052809291908181526020018280546001816001161561010002031660029004801561085b5780601f106108305761010080835404028352916020019161085b565b820191906000526020600020905b81548152906001019060200180831161083e57829003601f168201915b5050509183525050600282810180546040805160206001841615610100026000190190931694909404601f810183900483028501830190915280845293810193908301828280156108ed5780601f106108c2576101008083540402835291602001916108ed565b820191906000526020600020905b8154815290600101906020018083116108d057829003601f168201915b505050505081526020016003820180548060200260200160405190810160405280929190818152602001828054801561094f57602002820191906000526020600020905b81546001600160a01b03168152600190910190602001808311610931575b5050505050815250509050919050565b6109676110ac565b6000826040516109779190611784565b9081526040805160209281900383018120805460026001821615610100026000190190911604601f810185900490940282016101a09081019093526101808201848152919390928492918491840182828015610a145780601f106109e957610100808354040283529160200191610a14565b820191906000526020600020905b8154815290600101906020018083116109f757829003601f168201915b50505050508152602001600182018054600181600116156101000203166002900480601f016020809104026020016040519081016040528092919081815260200182805460018160011615610100020316600290048015610ab65780601f10610a8b57610100808354040283529160200191610ab6565b820191906000526020600020905b815481529060010190602001808311610a9957829003601f168201915b50505091835250506002828101546001600160a01b031660208084019190915260038401805460408051601f60001960018516156101000201909316959095049182018490048402850184018152818552909401939091830182828015610b5e5780601f10610b3357610100808354040283529160200191610b5e565b820191906000526020600020905b815481529060010190602001808311610b4157829003601f168201915b5050509183525050600482015460ff908116151560208084019190915260058401546040808501919091526006850154606085015260078501549092161515608084015260088401805483518184028101840190945280845260a090940193909160009084015b82821015610c705760008481526020908190208301805460408051601f6002600019610100600187161502019094169390930492830185900485028101850190915281815292830182828015610c5c5780601f10610c3157610100808354040283529160200191610c5c565b820191906000526020600020905b815481529060010190602001808311610c3f57829003601f168201915b505050505081526020019060010190610bc5565b5050509082525060098201805460408051602060026001851615610100026000190190941693909304601f8101849004840282018401909252818152938201939291830182828015610d035780601f10610cd857610100808354040283529160200191610d03565b820191906000526020600020905b815481529060010190602001808311610ce657829003601f168201915b50505050508152602001600a8201805480602002602001604051908101604052809291908181526020018280548015610d6557602002820191906000526020600020905b81546001600160a01b03168152600190910190602001808311610d47575b50505050508152602001600b820180548060200260200160405190810160405280929190818152602001828054801561094f576020028201919060005260206000209081546001600160a01b03168152600190910190602001808311610931575050505050815250509050919050565b60008082604051610de69190611784565b908152604051908190036020019020905060005b600a820154600019016001600160401b0382161015610ed357836001600160a01b031682600a01826001600160401b031681548110610e3557fe5b6000918252602090912001546001600160a01b03161415610ecb5781600a01816001016001600160401b031681548110610e6b57fe5b600091825260209091200154600a830180546001600160a01b03909216916001600160401b038416908110610e9c57fe5b9060005260206000200160006101000a8154816001600160a01b0302191690836001600160a01b031602179055505b600101610dfa565b5080600a01805480610ee157fe5b60008281526020808220830160001990810180546001600160a01b03199081169091559301909355600b9093018054600181018255908452919092200180546001600160a01b0394909416939091169290921790915550565b60408051602081019091526000815290565b828054600181600116156101000203166002900490600052602060002090601f016020900481019282601f10610f8d57805160ff1916838001178555610fba565b82800160010185558215610fba579182015b82811115610fba578251825591602001919060010190610f9f565b50610fc692915061111a565b5090565b828054828255906000526020600020908101928215611017579160200282015b828111156110175782518051611007918491602090910190610f4c565b5091602001919060010190610fea565b50610fc6929150611134565b828054828255906000526020600020908101928215611078579160200282015b8281111561107857825182546001600160a01b0319166001600160a01b03909116178255602090920191600190910190611043565b50610fc6929150611157565b6040518060800160405280606081526020016060815260200160608152602001606081525090565b604051806101800160405280606081526020016060815260200160006001600160a01b03168152602001606081526020016000151581526020016000815260200160008152602001600015158152602001606081526020016060815260200160608152602001606081525090565b6105f091905b80821115610fc65760008155600101611120565b6105f091905b80821115610fc657600061114e828261117b565b5060010161113a565b6105f091905b80821115610fc65780546001600160a01b031916815560010161115d565b50805460018160011615610100020316600290046000825580601f106111a157506111bf565b601f0160209004906000526020600020908101906111bf919061111a565b50565b80356001600160a01b03811681146111d957600080fd5b92915050565b600082601f8301126111ef578081fd5b81356112026111fd826119be565b611998565b81815291506020808301908481018184028601820187101561122357600080fd5b60005b8481101561124a5761123888836111c2565b84529282019290820190600101611226565b505050505092915050565b600082601f830112611265578081fd5b81356112736111fd826119be565b8181529150602080830190840160005b838110156112b05761129b87602084358901016112ca565b83526020928301929190910190600101611283565b5050505092915050565b803580151581146111d957600080fd5b600082601f8301126112da578081fd5b81356001600160401b038111156112ef578182fd5b611302601f8201601f1916602001611998565b915080825283602082850101111561131957600080fd5b8060208401602084013760009082016020015292915050565b600060208284031215611343578081fd5b61134d83836111c2565b9392505050565b60008060408385031215611366578081fd5b823561137181611a0d565b915060208301356001600160401b0381111561138b578182fd5b611397858286016112ca565b9150509250929050565b6000602082840312156113b2578081fd5b81356001600160401b038111156113c7578182fd5b6113d3848285016112ca565b949350505050565b600080604083850312156113ed578182fd5b82356001600160401b03811115611402578283fd5b61140e858286016112ca565b92505061141e84602085016111c2565b90509250929050565b60008060006060848603121561143b578081fd5b83356001600160401b0380821115611451578283fd5b61145d878388016112ca565b94506020860135915061146f82611a0d565b90925060408501359080821115611484578283fd5b50611491868287016112ca565b9150509250925092565b6000806000806000806000806000806000806101808d8f0312156114bd578788fd5b6001600160401b038d3511156114d1578788fd5b6114de8e8e358f016112ca565b9b506001600160401b0360208e013511156114f7578788fd5b6115078e60208f01358f016112ca565b9a506115168e60408f016111c2565b99506001600160401b0360608e0135111561152f578788fd5b61153f8e60608f01358f016112ca565b985061154e8e60808f016112ba565b975060a08d0135965060c08d0135955061156b8e60e08f016112ba565b94506001600160401b036101008e01351115611585578384fd5b6115968e6101008f01358f01611255565b93506001600160401b036101208e013511156115b0578283fd5b6115c18e6101208f01358f016112ca565b92506001600160401b036101408e013511156115db578081fd5b6115ec8e6101408f01358f016111df565b91506001600160401b036101608e01351115611606578081fd5b6116178e6101608f01358f016111df565b90509295989b509295989b509295989b565b60008060006060848603121561163d578283fd5b83356001600160401b0380821115611653578485fd5b61165f878388016112ca565b94506020860135915080821115611674578384fd5b611680878388016112ca565b93506040860135915080821115611484578283fd5b6000602082840312156116a6578081fd5b5035919050565b6001600160a01b03169052565b6000815180845260208401935060208301825b828110156116f45781516001600160a01b03168652602095860195909101906001016116cd565b5093949350505050565b600081518084526020840193508360208202850160208501845b84811015611746578383038852611730838351611758565b6020988901989093509190910190600101611718565b50909695505050505050565b15159052565b600081518084526117708160208601602086016119dd565b601f01601f19169290920160200192915050565b600082516117968184602087016119dd565b9190910192915050565b60006020825261134d60208301846116ba565b60006020825261134d60208301846116fe565b60006020825261134d6020830184611758565b6000602082528251608060208401526117f560a0840182611758565b60208501519150601f19808583030160408601526118138284611758565b604087015193508186820301606087015261182e8185611758565b92505060608601519250808583030160808601525061184d81836116ba565b95945050505050565b60006020825282516101808060208501526118756101a0850183611758565b60208601519250601f19808683030160408701526118938285611758565b604088015194506118a760608801866116ad565b60608801519450818782030160808801526118c28186611758565b925050608087015193506118d960a0870185611752565b60a087015160c087015260c087015160e087015260e0870151935061010061190381880186611752565b8088015194505061012081878403018188015261192083866116fe565b818901519550610140935082888203018489015261193e8187611758565b915050828801519450610160925081878203018388015261195f81866116ba565b83890151955082888203018589015261197881876116ba565b9998505050505050505050565b90516001600160a01b0316815260200190565b6040518181016001600160401b03811182821017156119b657600080fd5b604052919050565b60006001600160401b038211156119d3578081fd5b5060209081020190565b60005b838110156119f85781810151838201526020016119e0565b83811115611a07576000848401525b50505050565b6001600160a01b03811681146111bf57600080fdfea2646970667358221220c51f7599dd52e37dd652d00c4605680a192f30084e8a2962b19bc0cae4ee39e864736f6c63430006000033",
  "source": "//SPDX-License-Identifier: MIT\r\npragma solidity ^0.6.0;\r\npragma experimental ABIEncoderV2;\r\n\r\ncontract Voting {\r\n    // uint256 public nextElectionId = 1;\r\n    mapping(string => Election) elections;\r\n    mapping(string => Candidate) candidates;\r\n\r\n    mapping(address => Voter) voters;\r\n\r\n    mapping(string => address[]) votedVoters;\r\n    string[] public electionIdList;\r\n\r\n    struct Election {\r\n        string electionId;\r\n        string electionName;\r\n        address creatorId;\r\n        string password;\r\n        bool hasPassword;\r\n        uint256 startDate;\r\n        uint256 endDate;\r\n        bool isActive;\r\n        string[] candidates;\r\n        string electionCover;\r\n        address[] pendingVoter;\r\n        address[] approvedVoter;\r\n    }\r\n\r\n    struct Candidate {\r\n        string candidateId;\r\n        string candidateName;\r\n        string candidateImage;\r\n        address[] voter;\r\n    }\r\n\r\n    struct Voter {\r\n        address voterId;\r\n    }\r\n\r\n    function getAllElectionId() public view returns (string[] memory) {\r\n        return electionIdList;\r\n    }\r\n\r\n    function approveVoter(address voterId, string memory electionId) public {\r\n        Election storage election = elections[electionId];\r\n        for (uint64 i = 0; i < election.pendingVoter.length - 1; i++) {\r\n            if (election.pendingVoter[i] == voterId) {\r\n                election.pendingVoter[i] = election.pendingVoter[i + 1];\r\n            }\r\n        }\r\n        election.pendingVoter.pop();\r\n        election.approvedVoter.push(voterId);\r\n    }\r\n\r\n    function voteCandidate(\r\n        string memory candidateId,\r\n        address voterId,\r\n        string memory electionId\r\n    ) public {\r\n        Candidate storage candidate = candidates[candidateId];\r\n        candidate.voter.push(voterId);\r\n        votedVoters[electionId].push(voterId);\r\n    }\r\n\r\n    function getAllElectionVoter(string memory electionId)\r\n        public\r\n        view\r\n        returns (address[] memory)\r\n    {\r\n        return votedVoters[electionId];\r\n    }\r\n\r\n    function joinElection(string memory electionId, address voterId) public {\r\n        Election storage election = elections[electionId];\r\n        election.pendingVoter.push(voterId);\r\n    }\r\n\r\n    function addCandidate(\r\n        string memory candidateId,\r\n        string memory candidateName,\r\n        string memory candidateImage\r\n    ) public {\r\n        Candidate storage newCandidate = candidates[candidateId];\r\n        newCandidate.candidateId = candidateId;\r\n        newCandidate.candidateName = candidateName;\r\n        newCandidate.candidateImage = candidateImage;\r\n    }\r\n\r\n    function getCandidate(string memory candidateId)\r\n        public\r\n        view\r\n        returns (Candidate memory)\r\n    {\r\n        return candidates[candidateId];\r\n    }\r\n\r\n    function registerUser(address voterId) public {\r\n        Voter storage user = voters[voterId];\r\n        user.voterId = voterId;\r\n    }\r\n\r\n    function getUser(address id) public view returns (Voter memory) {\r\n        return voters[id];\r\n    }\r\n\r\n    function createElection(\r\n        string memory electionId,\r\n        string memory electionName,\r\n        address creatorId,\r\n        string memory password,\r\n        bool hasPassword,\r\n        uint256 startDate,\r\n        uint256 endDate,\r\n        bool isActive,\r\n        string[] memory candidatesList,\r\n        string memory electionCover,\r\n        address[] memory pendingVoter,\r\n        address[] memory approvedVoter\r\n    ) public {\r\n        Election storage newElection = elections[electionId];\r\n        newElection.electionId = electionId;\r\n        newElection.electionName = electionName;\r\n        newElection.creatorId = creatorId;\r\n        newElection.password = password;\r\n        newElection.hasPassword = hasPassword;\r\n        newElection.startDate = startDate;\r\n        newElection.endDate = endDate;\r\n        newElection.isActive = isActive;\r\n        newElection.candidates = candidatesList;\r\n        newElection.electionCover = electionCover;\r\n        newElection.pendingVoter = pendingVoter;\r\n        newElection.approvedVoter = approvedVoter;\r\n        electionIdList.push(electionId);\r\n    }\r\n\r\n    function getAnElection(string memory id)\r\n        public\r\n        view\r\n        returns (Election memory)\r\n    {\r\n        return elections[id];\r\n    }\r\n}\r\n",
  "sourcePath": "C:\\Projects\\voting-DAPP\\BlockVoteWeb\\contracts\\voting.sol",
  "compiler": {
    "name": "solc",
    "version": "0.6.0+commit.26b70077.Emscripten.clang"
  },
  "schemaVersion": "3.2.0",
  "updatedAt": "2020-07-12T08:44:57.947Z",
  "networkType": "ethereum",
  "devdoc": {
    "methods": {}
  },
  "userdoc": {
    "methods": {}
  }
}