{
  "contractName": "Voting",
  "abi": [
    {
      "anonymous": false,
      "inputs": [
        {
          "indexed": false,
          "internalType": "string",
          "name": "candidateId",
          "type": "string"
        },
        {
          "indexed": false,
          "internalType": "uint256",
          "name": "voteCount",
          "type": "uint256"
        },
        {
          "indexed": false,
          "internalType": "string",
          "name": "candidateName",
          "type": "string"
        }
      ],
      "name": "ElectionResult",
      "type": "event"
    },
    {
      "inputs": [
        {
          "internalType": "uint256",
          "name": "",
          "type": "uint256"
        }
      ],
      "name": "electionIdList",
      "outputs": [
        {
          "internalType": "string",
          "name": "",
          "type": "string"
        }
      ],
      "stateMutability": "view",
      "type": "function",
      "constant": true
    },
    {
      "inputs": [
        {
          "internalType": "string",
          "name": "electionId",
          "type": "string"
        }
      ],
      "name": "getElectionResult",
      "outputs": [
        {
          "components": [
            {
              "internalType": "string",
              "name": "candidateId",
              "type": "string"
            },
            {
              "internalType": "string",
              "name": "candidateName",
              "type": "string"
            },
            {
              "internalType": "string",
              "name": "candidateImage",
              "type": "string"
            },
            {
              "internalType": "address[]",
              "name": "voter",
              "type": "address[]"
            }
          ],
          "internalType": "struct Voting.Candidate[]",
          "name": "candidateResults",
          "type": "tuple[]"
        }
      ],
      "stateMutability": "view",
      "type": "function",
      "constant": true
    },
    {
      "inputs": [],
      "name": "getAllElectionId",
      "outputs": [
        {
          "internalType": "string[]",
          "name": "",
          "type": "string[]"
        }
      ],
      "stateMutability": "view",
      "type": "function",
      "constant": true
    },
    {
      "inputs": [
        {
          "internalType": "address",
          "name": "voterId",
          "type": "address"
        },
        {
          "internalType": "string",
          "name": "electionId",
          "type": "string"
        }
      ],
      "name": "approveVoter",
      "outputs": [],
      "stateMutability": "nonpayable",
      "type": "function"
    },
    {
      "inputs": [
        {
          "internalType": "string",
          "name": "candidateId",
          "type": "string"
        },
        {
          "internalType": "address",
          "name": "voterId",
          "type": "address"
        },
        {
          "internalType": "string",
          "name": "electionId",
          "type": "string"
        }
      ],
      "name": "voteCandidate",
      "outputs": [],
      "stateMutability": "nonpayable",
      "type": "function"
    },
    {
      "inputs": [
        {
          "internalType": "string",
          "name": "electionId",
          "type": "string"
        }
      ],
      "name": "getAllElectionVoter",
      "outputs": [
        {
          "internalType": "address[]",
          "name": "",
          "type": "address[]"
        }
      ],
      "stateMutability": "view",
      "type": "function",
      "constant": true
    },
    {
      "inputs": [
        {
          "internalType": "string",
          "name": "electionId",
          "type": "string"
        },
        {
          "internalType": "address",
          "name": "voterId",
          "type": "address"
        }
      ],
      "name": "joinElection",
      "outputs": [],
      "stateMutability": "nonpayable",
      "type": "function"
    },
    {
      "inputs": [
        {
          "internalType": "string",
          "name": "candidateId",
          "type": "string"
        },
        {
          "internalType": "string",
          "name": "candidateName",
          "type": "string"
        },
        {
          "internalType": "string",
          "name": "candidateImage",
          "type": "string"
        }
      ],
      "name": "addCandidate",
      "outputs": [],
      "stateMutability": "nonpayable",
      "type": "function"
    },
    {
      "inputs": [
        {
          "internalType": "string",
          "name": "candidateId",
          "type": "string"
        }
      ],
      "name": "getCandidate",
      "outputs": [
        {
          "components": [
            {
              "internalType": "string",
              "name": "candidateId",
              "type": "string"
            },
            {
              "internalType": "string",
              "name": "candidateName",
              "type": "string"
            },
            {
              "internalType": "string",
              "name": "candidateImage",
              "type": "string"
            },
            {
              "internalType": "address[]",
              "name": "voter",
              "type": "address[]"
            }
          ],
          "internalType": "struct Voting.Candidate",
          "name": "",
          "type": "tuple"
        }
      ],
      "stateMutability": "view",
      "type": "function",
      "constant": true
    },
    {
      "inputs": [
        {
          "internalType": "address",
          "name": "voterId",
          "type": "address"
        }
      ],
      "name": "registerUser",
      "outputs": [],
      "stateMutability": "nonpayable",
      "type": "function"
    },
    {
      "inputs": [
        {
          "internalType": "address",
          "name": "id",
          "type": "address"
        }
      ],
      "name": "getUser",
      "outputs": [
        {
          "components": [
            {
              "internalType": "address",
              "name": "voterId",
              "type": "address"
            }
          ],
          "internalType": "struct Voting.Voter",
          "name": "",
          "type": "tuple"
        }
      ],
      "stateMutability": "view",
      "type": "function",
      "constant": true
    },
    {
      "inputs": [
        {
          "internalType": "string",
          "name": "electionId",
          "type": "string"
        },
        {
          "internalType": "string",
          "name": "electionName",
          "type": "string"
        },
        {
          "internalType": "address",
          "name": "creatorId",
          "type": "address"
        },
        {
          "internalType": "string",
          "name": "password",
          "type": "string"
        },
        {
          "internalType": "bool",
          "name": "hasPassword",
          "type": "bool"
        },
        {
          "internalType": "uint256",
          "name": "startDate",
          "type": "uint256"
        },
        {
          "internalType": "uint256",
          "name": "endDate",
          "type": "uint256"
        },
        {
          "internalType": "bool",
          "name": "isActive",
          "type": "bool"
        },
        {
          "internalType": "string[]",
          "name": "candidatesList",
          "type": "string[]"
        },
        {
          "internalType": "string",
          "name": "electionCover",
          "type": "string"
        },
        {
          "internalType": "address[]",
          "name": "pendingVoter",
          "type": "address[]"
        },
        {
          "internalType": "address[]",
          "name": "approvedVoter",
          "type": "address[]"
        }
      ],
      "name": "createElection",
      "outputs": [],
      "stateMutability": "nonpayable",
      "type": "function"
    },
    {
      "inputs": [
        {
          "internalType": "string",
          "name": "id",
          "type": "string"
        }
      ],
      "name": "getAnElection",
      "outputs": [
        {
          "components": [
            {
              "internalType": "string",
              "name": "electionId",
              "type": "string"
            },
            {
              "internalType": "string",
              "name": "electionName",
              "type": "string"
            },
            {
              "internalType": "address",
              "name": "creatorId",
              "type": "address"
            },
            {
              "internalType": "string",
              "name": "password",
              "type": "string"
            },
            {
              "internalType": "bool",
              "name": "hasPassword",
              "type": "bool"
            },
            {
              "internalType": "uint256",
              "name": "startDate",
              "type": "uint256"
            },
            {
              "internalType": "uint256",
              "name": "endDate",
              "type": "uint256"
            },
            {
              "internalType": "bool",
              "name": "isActive",
              "type": "bool"
            },
            {
              "internalType": "string[]",
              "name": "candidates",
              "type": "string[]"
            },
            {
              "internalType": "string",
              "name": "electionCover",
              "type": "string"
            },
            {
              "internalType": "address[]",
              "name": "pendingVoter",
              "type": "address[]"
            },
            {
              "internalType": "address[]",
              "name": "approvedVoter",
              "type": "address[]"
            }
          ],
          "internalType": "struct Voting.Election",
          "name": "",
          "type": "tuple"
        }
      ],
      "stateMutability": "view",
      "type": "function",
      "constant": true
    }
  ],
  "bytecode": "0x608060405234801561001057600080fd5b50611fbb806100206000396000f3fe608060405234801561001057600080fd5b50600436106100cf5760003560e01c80638e11acdc1161008c578063da51e0af11610066578063da51e0af146101b3578063f276669d146101d3578063fa084f25146101f3578063fad761d314610213576100cf565b80638e11acdc146101785780638eecb7891461018b578063ad71f8dc146101a0576100cf565b8063081937cf146100d45780631bcfa1f1146100fd5780632199d5cd146101125780636f77926b14610125578063897de252146101455780638b3ac97a14610165575b600080fd5b6100e76100e2366004611739565b610226565b6040516100f49190611c16565b60405180910390f35b61011061010b366004611773565b6102a0565b005b6101106101203660046116ca565b6102f8565b6101386101333660046116ca565b610322565b6040516100f49190611ed3565b610158610153366004611739565b61035a565b6040516100f49190611c75565b6101106101733660046117bf565b61067c565b610110610186366004611833565b61075c565b6101936108b2565b6040516100f49190611c62565b6101106101ae3660046119c1565b61098b565b6101c66101c1366004611a2d565b6109f8565b6040516100f49190611cd5565b6101e66101e1366004611739565b610a9e565b6040516100f49190611d91565b610206610201366004611739565b610cf7565b6040516100f49190611da4565b6101106102213660046116ec565b61116d565b60606003826040516102389190611b8b565b908152604080519182900360209081018320805480830285018301909352828452919083018282801561029457602002820191906000526020600020905b81546001600160a01b03168152600190910190602001808311610276575b50505050509050919050565b600080836040516102b19190611b8b565b90815260405160209181900382019020600a01805460018101825560009182529190200180546001600160a01b0319166001600160a01b0393909316929092179091555050565b6001600160a01b0316600081815260026020526040902080546001600160a01b0319169091179055565b61032a6112d2565b506001600160a01b0390811660009081526002602090815260409182902082519182019092529054909116815290565b60606000808360405161036d9190611b8b565b90815260200160405180910390209050606081600801805490506040519080825280602002602001820160405280156103c057816020015b6103ad6112e4565b8152602001906001900390816103a55790505b50905060005b60088301546001600160401b0382161015610674576000600184600801836001600160401b0316815481106103f757fe5b9060005260206000200160405161040e9190611ba7565b9081526040805160209281900383018120805460026001821615610100026000190190911604601f8101859004909402820160a0908101909352608082018481529094509092849284929184918401828280156104ac5780601f10610481576101008083540402835291602001916104ac565b820191906000526020600020905b81548152906001019060200180831161048f57829003601f168201915b50505050508152602001600182018054600181600116156101000203166002900480601f01602080910402602001604051908101604052809291908181526020018280546001816001161561010002031660029004801561054e5780601f106105235761010080835404028352916020019161054e565b820191906000526020600020905b81548152906001019060200180831161053157829003601f168201915b5050509183525050600282810180546040805160206001841615610100026000190190931694909404601f810183900483028501830190915280845293810193908301828280156105e05780601f106105b5576101008083540402835291602001916105e0565b820191906000526020600020905b8154815290600101906020018083116105c357829003601f168201915b505050505081526020016003820180548060200260200160405190810160405280929190818152602001828054801561064257602002820191906000526020600020905b81546001600160a01b03168152600190910190602001808311610624575b50505050508152505083836001600160401b03168151811061066057fe5b6020908102919091010152506001016103c6565b509392505050565b600060018460405161068e9190611b8b565b9081526040516020918190038201812060038082018054600181018255600091825294902090930180546001600160a01b0319166001600160a01b03881617905592506106dc908490611b8b565b908152604051602091819003820181208054600180820183556000928352939091200180546001600160a01b0319166001600160a01b03871617905560038301547f68b4b008f51dc7805518445e46dcfaa317fe6eb383c51567227d056d12bd39a59261074e92889291860190611ce8565b60405180910390a150505050565b6000808d60405161076d9190611b8b565b908152602001604051809103902090508c81600001908051906020019061079592919061130c565b508b516107ab90600183019060208f019061130c565b506002810180546001600160a01b0319166001600160a01b038d1617905589516107de90600383019060208d019061130c565b5060048101805460ff199081168b15151790915560058201899055600682018890556007820180549091168715151790558451610824906008830190602088019061138a565b50835161083a906009830190602087019061130c565b50825161085090600a83019060208601906113e3565b50815161086690600b83019060208501906113e3565b5060048d9080600181540180825580915050600190039060005260206000200160009091909190915090805190602001906108a292919061130c565b5050505050505050505050505050565b60606004805480602002602001604051908101604052809291908181526020016000905b828210156109815760008481526020908190208301805460408051601f600260001961010060018716150201909416939093049283018590048502810185019091528181529283018282801561096d5780601f106109425761010080835404028352916020019161096d565b820191906000526020600020905b81548152906001019060200180831161095057829003601f168201915b5050505050815260200190600101906108d6565b5050505090505b90565b600060018460405161099d9190611b8b565b90815260200160405180910390209050838160000190805190602001906109c592919061130c565b5082516109db906001830190602086019061130c565b5081516109f1906002830190602085019061130c565b5050505050565b60048181548110610a0557fe5b600091825260209182902001805460408051601f6002600019610100600187161502019094169390930492830185900485028101850190915281815293509091830182828015610a965780601f10610a6b57610100808354040283529160200191610a96565b820191906000526020600020905b815481529060010190602001808311610a7957829003601f168201915b505050505081565b610aa66112e4565b600182604051610ab69190611b8b565b9081526040805160209281900383018120805460026001821615610100026000190190911604601f8101859004909402820160a090810190935260808201848152919390928492918491840182828015610b515780601f10610b2657610100808354040283529160200191610b51565b820191906000526020600020905b815481529060010190602001808311610b3457829003601f168201915b50505050508152602001600182018054600181600116156101000203166002900480601f016020809104026020016040519081016040528092919081815260200182805460018160011615610100020316600290048015610bf35780601f10610bc857610100808354040283529160200191610bf3565b820191906000526020600020905b815481529060010190602001808311610bd657829003601f168201915b5050509183525050600282810180546040805160206001841615610100026000190190931694909404601f81018390048302850183019091528084529381019390830182828015610c855780601f10610c5a57610100808354040283529160200191610c85565b820191906000526020600020905b815481529060010190602001808311610c6857829003601f168201915b5050505050815260200160038201805480602002602001604051908101604052809291908181526020018280548015610ce757602002820191906000526020600020905b81546001600160a01b03168152600190910190602001808311610cc9575b5050505050815250509050919050565b610cff611444565b600082604051610d0f9190611b8b565b9081526040805160209281900383018120805460026001821615610100026000190190911604601f810185900490940282016101a09081019093526101808201848152919390928492918491840182828015610dac5780601f10610d8157610100808354040283529160200191610dac565b820191906000526020600020905b815481529060010190602001808311610d8f57829003601f168201915b50505050508152602001600182018054600181600116156101000203166002900480601f016020809104026020016040519081016040528092919081815260200182805460018160011615610100020316600290048015610e4e5780601f10610e2357610100808354040283529160200191610e4e565b820191906000526020600020905b815481529060010190602001808311610e3157829003601f168201915b50505091835250506002828101546001600160a01b031660208084019190915260038401805460408051601f60001960018516156101000201909316959095049182018490048402850184018152818552909401939091830182828015610ef65780601f10610ecb57610100808354040283529160200191610ef6565b820191906000526020600020905b815481529060010190602001808311610ed957829003601f168201915b5050509183525050600482015460ff908116151560208084019190915260058401546040808501919091526006850154606085015260078501549092161515608084015260088401805483518184028101840190945280845260a090940193909160009084015b828210156110085760008481526020908190208301805460408051601f6002600019610100600187161502019094169390930492830185900485028101850190915281815292830182828015610ff45780601f10610fc957610100808354040283529160200191610ff4565b820191906000526020600020905b815481529060010190602001808311610fd757829003601f168201915b505050505081526020019060010190610f5d565b5050509082525060098201805460408051602060026001851615610100026000190190941693909304601f810184900484028201840190925281815293820193929183018282801561109b5780601f106110705761010080835404028352916020019161109b565b820191906000526020600020905b81548152906001019060200180831161107e57829003601f168201915b50505050508152602001600a82018054806020026020016040519081016040528092919081815260200182805480156110fd57602002820191906000526020600020905b81546001600160a01b031681526001909101906020018083116110df575b50505050508152602001600b8201805480602002602001604051908101604052809291908181526020018280548015610ce7576020028201919060005260206000209081546001600160a01b03168152600190910190602001808311610cc9575050505050815250509050919050565b6000808260405161117e9190611b8b565b908152604051908190036020019020905060005b600a820154600019016001600160401b038216101561126b57836001600160a01b031682600a01826001600160401b0316815481106111cd57fe5b6000918252602090912001546001600160a01b031614156112635781600a01816001016001600160401b03168154811061120357fe5b600091825260209091200154600a830180546001600160a01b03909216916001600160401b03841690811061123457fe5b9060005260206000200160006101000a8154816001600160a01b0302191690836001600160a01b031602179055505b600101611192565b5080600a0180548061127957fe5b60008281526020808220830160001990810180546001600160a01b03199081169091559301909355600b9093018054600181018255908452919092200180546001600160a01b0394909416939091169290921790915550565b60408051602081019091526000815290565b6040518060800160405280606081526020016060815260200160608152602001606081525090565b828054600181600116156101000203166002900490600052602060002090601f016020900481019282601f1061134d57805160ff191683800117855561137a565b8280016001018555821561137a579182015b8281111561137a57825182559160200191906001019061135f565b506113869291506114b2565b5090565b8280548282559060005260206000209081019282156113d7579160200282015b828111156113d757825180516113c791849160209091019061130c565b50916020019190600101906113aa565b506113869291506114cc565b828054828255906000526020600020908101928215611438579160200282015b8281111561143857825182546001600160a01b0319166001600160a01b03909116178255602090920191600190910190611403565b506113869291506114ef565b604051806101800160405280606081526020016060815260200160006001600160a01b03168152602001606081526020016000151581526020016000815260200160008152602001600015158152602001606081526020016060815260200160608152602001606081525090565b61098891905b8082111561138657600081556001016114b8565b61098891905b808211156113865760006114e68282611513565b506001016114d2565b61098891905b808211156113865780546001600160a01b03191681556001016114f5565b50805460018160011615610100020316600290046000825580601f106115395750611557565b601f01602090049060005260206000209081019061155791906114b2565b50565b80356001600160a01b038116811461157157600080fd5b92915050565b600082601f830112611587578081fd5b813561159a61159582611f0c565b611ee6565b8181529150602080830190848101818402860182018710156115bb57600080fd5b60005b848110156115e2576115d0888361155a565b845292820192908201906001016115be565b505050505092915050565b600082601f8301126115fd578081fd5b813561160b61159582611f0c565b8181529150602080830190840160005b83811015611648576116338760208435890101611662565b8352602092830192919091019060010161161b565b5050505092915050565b8035801515811461157157600080fd5b600082601f830112611672578081fd5b81356001600160401b03811115611687578182fd5b61169a601f8201601f1916602001611ee6565b91508082528360208285010111156116b157600080fd5b8060208401602084013760009082016020015292915050565b6000602082840312156116db578081fd5b6116e5838361155a565b9392505050565b600080604083850312156116fe578081fd5b823561170981611f70565b915060208301356001600160401b03811115611723578182fd5b61172f85828601611662565b9150509250929050565b60006020828403121561174a578081fd5b81356001600160401b0381111561175f578182fd5b61176b84828501611662565b949350505050565b60008060408385031215611785578182fd5b82356001600160401b0381111561179a578283fd5b6117a685828601611662565b9250506117b6846020850161155a565b90509250929050565b6000806000606084860312156117d3578081fd5b83356001600160401b03808211156117e9578283fd5b6117f587838801611662565b94506020860135915061180782611f70565b9092506040850135908082111561181c578283fd5b5061182986828701611662565b9150509250925092565b6000806000806000806000806000806000806101808d8f031215611855578788fd5b6001600160401b038d351115611869578788fd5b6118768e8e358f01611662565b9b506001600160401b0360208e0135111561188f578788fd5b61189f8e60208f01358f01611662565b9a506118ae8e60408f0161155a565b99506001600160401b0360608e013511156118c7578788fd5b6118d78e60608f01358f01611662565b98506118e68e60808f01611652565b975060a08d0135965060c08d013595506119038e60e08f01611652565b94506001600160401b036101008e0135111561191d578384fd5b61192e8e6101008f01358f016115ed565b93506001600160401b036101208e01351115611948578283fd5b6119598e6101208f01358f01611662565b92506001600160401b036101408e01351115611973578081fd5b6119848e6101408f01358f01611577565b91506001600160401b036101608e0135111561199e578081fd5b6119af8e6101608f01358f01611577565b90509295989b509295989b509295989b565b6000806000606084860312156119d5578283fd5b83356001600160401b03808211156119eb578485fd5b6119f787838801611662565b94506020860135915080821115611a0c578384fd5b611a1887838801611662565b9350604086013591508082111561181c578283fd5b600060208284031215611a3e578081fd5b5035919050565b6001600160a01b03169052565b6000815180845260208401935060208301825b82811015611a8c5781516001600160a01b0316865260209586019590910190600101611a65565b5093949350505050565b600081518084526020840180819550602083028101915060208501845b84811015611ae1578284038852611acb848351611af3565b6020988901989094509190910190600101611ab3565b50919695505050505050565b15159052565b60008151808452611b0b816020860160208601611f40565b601f01601f19169290920160200192915050565b6000815160808452611b346080850182611af3565b602084015191508481036020860152611b4d8183611af3565b604085015192508581036040870152611b668184611af3565b915050606084015191508481036060860152611b828183611a52565b95945050505050565b60008251611b9d818460208701611f40565b9190910192915050565b60008083546001811660008114611bc55760018114611bdc57611c0c565b60ff198216855260028204607f1685019250611c0c565b6002820486855260208520855b82811015611c0557815488820152600190910190602001611be9565b5050850192505b5090949350505050565b602080825282518282018190526000918401906040840190835b81811015611c575783516001600160a01b0316835260209384019390920191600101611c30565b509095945050505050565b6000602082526116e56020830184611a96565b6000602080830181845280855180835260408601915060408482028701019250838701855b82811015611cc857603f19888603018452611cb6858351611b1f565b94509285019290850190600101611c9a565b5092979650505050505050565b6000602082526116e56020830184611af3565b600060608252611cfb6060830186611af3565b84602084015282810360408401528184546001811660008114611d255760018114611d4657611d84565b611d35607f600284041685611f37565b60ff19831681526020019250611d84565b60028204611d548186611f37565b611d5d89611f2b565b875b83811015611d7b57815483820152600190910190602001611d5f565b91909101945050505b5090979650505050505050565b6000602082526116e56020830184611b1f565b6000602082528251610180806020850152611dc36101a0850183611af3565b60208601519250601f1980868303016040870152611de18285611af3565b60408801519450611df56060880186611a45565b6060880151945081878203016080880152611e108186611af3565b92505060808701519350611e2760a0870185611aed565b60a087015160c087015260c087015160e087015260e08701519350610100611e5181880186611aed565b80880151945050610120818784030181880152611e6e8386611a96565b8189015195506101409350828882030184890152611e8c8187611af3565b9150508288015194506101609250818782030183880152611ead8186611a52565b838901519550828882030185890152611ec68187611a52565b9998505050505050505050565b90516001600160a01b0316815260200190565b6040518181016001600160401b0381118282101715611f0457600080fd5b604052919050565b60006001600160401b03821115611f21578081fd5b5060209081020190565b60009081526020902090565b90815260200190565b60005b83811015611f5b578181015183820152602001611f43565b83811115611f6a576000848401525b50505050565b6001600160a01b038116811461155757600080fdfea26469706673582212207a7c29b4d4cabb887f1da15240988f70797d0ed2c4a01d8f1b03d892d190ef9764736f6c63430006000033",
  "source": "//SPDX-License-Identifier: MIT\r\npragma solidity ^0.6.0;\r\npragma experimental ABIEncoderV2;\r\n\r\ncontract Voting {\r\n    // uint256 public nextElectionId = 1;\r\n    mapping(string => Election) elections;\r\n    mapping(string => Candidate) candidates;\r\n\r\n    mapping(address => Voter) voters;\r\n\r\n    mapping(string => address[]) votedVoters;\r\n    string[] public electionIdList;\r\n\r\n    struct Election {\r\n        string electionId;\r\n        string electionName;\r\n        address creatorId;\r\n        string password;\r\n        bool hasPassword;\r\n        uint256 startDate;\r\n        uint256 endDate;\r\n        bool isActive;\r\n        string[] candidates;\r\n        string electionCover;\r\n        address[] pendingVoter;\r\n        address[] approvedVoter;\r\n    }\r\n\r\n    struct Candidate {\r\n        string candidateId;\r\n        string candidateName;\r\n        string candidateImage;\r\n        address[] voter;\r\n    }\r\n\r\n    struct Voter {\r\n        address voterId;\r\n    }\r\n    event ElectionResult(\r\n        string candidateId,\r\n        uint256 voteCount,\r\n        string candidateName\r\n    );\r\n\r\n    function getElectionResult(string memory electionId)\r\n        public\r\n        view\r\n        returns (Candidate[] memory candidateResults)\r\n    {\r\n        Election storage election = elections[electionId];\r\n        Candidate[] memory candidateList = new Candidate[](\r\n            election.candidates.length\r\n        );\r\n        for (uint64 i = 0; i < election.candidates.length; i++) {\r\n            Candidate storage candidate = candidates[election.candidates[i]];\r\n            candidateList[i] = candidate;\r\n        }\r\n        return candidateList;\r\n    }\r\n\r\n    function getAllElectionId() public view returns (string[] memory) {\r\n        return electionIdList;\r\n    }\r\n\r\n    function approveVoter(address voterId, string memory electionId) public {\r\n        Election storage election = elections[electionId];\r\n        for (uint64 i = 0; i < election.pendingVoter.length - 1; i++) {\r\n            if (election.pendingVoter[i] == voterId) {\r\n                election.pendingVoter[i] = election.pendingVoter[i + 1];\r\n            }\r\n        }\r\n        election.pendingVoter.pop();\r\n        election.approvedVoter.push(voterId);\r\n    }\r\n\r\n    function voteCandidate(\r\n        string memory candidateId,\r\n        address voterId,\r\n        string memory electionId\r\n    ) public {\r\n        Candidate storage candidate = candidates[candidateId];\r\n        candidate.voter.push(voterId);\r\n        votedVoters[electionId].push(voterId);\r\n        emit ElectionResult(\r\n            candidateId,\r\n            candidate.voter.length,\r\n            candidate.candidateName\r\n        );\r\n    }\r\n\r\n    function getAllElectionVoter(string memory electionId)\r\n        public\r\n        view\r\n        returns (address[] memory)\r\n    {\r\n        return votedVoters[electionId];\r\n    }\r\n\r\n    function joinElection(string memory electionId, address voterId) public {\r\n        Election storage election = elections[electionId];\r\n        election.pendingVoter.push(voterId);\r\n    }\r\n\r\n    function addCandidate(\r\n        string memory candidateId,\r\n        string memory candidateName,\r\n        string memory candidateImage\r\n    ) public {\r\n        Candidate storage newCandidate = candidates[candidateId];\r\n        newCandidate.candidateId = candidateId;\r\n        newCandidate.candidateName = candidateName;\r\n        newCandidate.candidateImage = candidateImage;\r\n    }\r\n\r\n    function getCandidate(string memory candidateId)\r\n        public\r\n        view\r\n        returns (Candidate memory)\r\n    {\r\n        return candidates[candidateId];\r\n    }\r\n\r\n    function registerUser(address voterId) public {\r\n        Voter storage user = voters[voterId];\r\n        user.voterId = voterId;\r\n    }\r\n\r\n    function getUser(address id) public view returns (Voter memory) {\r\n        return voters[id];\r\n    }\r\n\r\n    function createElection(\r\n        string memory electionId,\r\n        string memory electionName,\r\n        address creatorId,\r\n        string memory password,\r\n        bool hasPassword,\r\n        uint256 startDate,\r\n        uint256 endDate,\r\n        bool isActive,\r\n        string[] memory candidatesList,\r\n        string memory electionCover,\r\n        address[] memory pendingVoter,\r\n        address[] memory approvedVoter\r\n    ) public {\r\n        Election storage newElection = elections[electionId];\r\n        newElection.electionId = electionId;\r\n        newElection.electionName = electionName;\r\n        newElection.creatorId = creatorId;\r\n        newElection.password = password;\r\n        newElection.hasPassword = hasPassword;\r\n        newElection.startDate = startDate;\r\n        newElection.endDate = endDate;\r\n        newElection.isActive = isActive;\r\n        newElection.candidates = candidatesList;\r\n        newElection.electionCover = electionCover;\r\n        newElection.pendingVoter = pendingVoter;\r\n        newElection.approvedVoter = approvedVoter;\r\n        electionIdList.push(electionId);\r\n    }\r\n\r\n    function getAnElection(string memory id)\r\n        public\r\n        view\r\n        returns (Election memory)\r\n    {\r\n        return elections[id];\r\n    }\r\n}\r\n",
  "sourcePath": "C:\\Projects\\voting-DAPP\\BlockVoteWeb\\contracts\\voting.sol",
  "compiler": {
    "name": "solc",
    "version": "0.6.0+commit.26b70077.Emscripten.clang"
  },
  "schemaVersion": "3.2.0",
  "updatedAt": "2020-07-13T13:41:06.740Z",
  "networkType": "ethereum",
  "devdoc": {
    "methods": {}
  },
  "userdoc": {
    "methods": {}
  }
}