{
  "contractName": "Voting",
  "abi": [
    {
      "inputs": [],
      "name": "nextElectionId",
      "outputs": [
        {
          "internalType": "uint256",
          "name": "",
          "type": "uint256"
        }
      ],
      "stateMutability": "view",
      "type": "function",
      "constant": true
    },
    {
      "inputs": [
        {
          "internalType": "uint256",
          "name": "electionId",
          "type": "uint256"
        },
        {
          "internalType": "address",
          "name": "voterId",
          "type": "address"
        }
      ],
      "name": "joinElection",
      "outputs": [],
      "stateMutability": "nonpayable",
      "type": "function"
    },
    {
      "inputs": [
        {
          "internalType": "string",
          "name": "candidateId",
          "type": "string"
        },
        {
          "internalType": "string",
          "name": "candidateName",
          "type": "string"
        },
        {
          "internalType": "string",
          "name": "candidateImage",
          "type": "string"
        }
      ],
      "name": "addCandidate",
      "outputs": [],
      "stateMutability": "nonpayable",
      "type": "function"
    },
    {
      "inputs": [
        {
          "internalType": "string",
          "name": "candidateId",
          "type": "string"
        }
      ],
      "name": "getCandidate",
      "outputs": [
        {
          "components": [
            {
              "internalType": "string",
              "name": "candidateId",
              "type": "string"
            },
            {
              "internalType": "string",
              "name": "candidateName",
              "type": "string"
            },
            {
              "internalType": "string",
              "name": "candidateImage",
              "type": "string"
            },
            {
              "internalType": "address[]",
              "name": "voter",
              "type": "address[]"
            }
          ],
          "internalType": "struct Voting.Candidate",
          "name": "",
          "type": "tuple"
        }
      ],
      "stateMutability": "view",
      "type": "function",
      "constant": true
    },
    {
      "inputs": [
        {
          "internalType": "address",
          "name": "voterId",
          "type": "address"
        },
        {
          "internalType": "string",
          "name": "firstName",
          "type": "string"
        },
        {
          "internalType": "string",
          "name": "lastName",
          "type": "string"
        }
      ],
      "name": "registerUser",
      "outputs": [],
      "stateMutability": "nonpayable",
      "type": "function"
    },
    {
      "inputs": [
        {
          "internalType": "address",
          "name": "id",
          "type": "address"
        }
      ],
      "name": "getUser",
      "outputs": [
        {
          "components": [
            {
              "internalType": "address",
              "name": "voterId",
              "type": "address"
            },
            {
              "internalType": "bool",
              "name": "voted",
              "type": "bool"
            },
            {
              "internalType": "string",
              "name": "firstName",
              "type": "string"
            },
            {
              "internalType": "string",
              "name": "lastName",
              "type": "string"
            }
          ],
          "internalType": "struct Voting.Voter",
          "name": "",
          "type": "tuple"
        }
      ],
      "stateMutability": "view",
      "type": "function",
      "constant": true
    },
    {
      "inputs": [
        {
          "internalType": "string",
          "name": "electionName",
          "type": "string"
        },
        {
          "internalType": "address",
          "name": "creatorId",
          "type": "address"
        },
        {
          "internalType": "string",
          "name": "password",
          "type": "string"
        },
        {
          "internalType": "bool",
          "name": "hasPassword",
          "type": "bool"
        },
        {
          "internalType": "uint256",
          "name": "startDate",
          "type": "uint256"
        },
        {
          "internalType": "uint256",
          "name": "endDate",
          "type": "uint256"
        },
        {
          "internalType": "bool",
          "name": "isActive",
          "type": "bool"
        },
        {
          "internalType": "string[]",
          "name": "candidatesList",
          "type": "string[]"
        },
        {
          "internalType": "string",
          "name": "electionCover",
          "type": "string"
        },
        {
          "internalType": "address[]",
          "name": "voter",
          "type": "address[]"
        }
      ],
      "name": "createElection",
      "outputs": [],
      "stateMutability": "nonpayable",
      "type": "function"
    },
    {
      "inputs": [
        {
          "internalType": "uint256",
          "name": "id",
          "type": "uint256"
        }
      ],
      "name": "getAnElection",
      "outputs": [
        {
          "components": [
            {
              "internalType": "uint256",
              "name": "electionId",
              "type": "uint256"
            },
            {
              "internalType": "string",
              "name": "electionName",
              "type": "string"
            },
            {
              "internalType": "address",
              "name": "creatorId",
              "type": "address"
            },
            {
              "internalType": "string",
              "name": "password",
              "type": "string"
            },
            {
              "internalType": "bool",
              "name": "hasPassword",
              "type": "bool"
            },
            {
              "internalType": "uint256",
              "name": "startDate",
              "type": "uint256"
            },
            {
              "internalType": "uint256",
              "name": "endDate",
              "type": "uint256"
            },
            {
              "internalType": "bool",
              "name": "isActive",
              "type": "bool"
            },
            {
              "internalType": "string[]",
              "name": "candidates",
              "type": "string[]"
            },
            {
              "internalType": "string",
              "name": "electionCover",
              "type": "string"
            },
            {
              "internalType": "address[]",
              "name": "voter",
              "type": "address[]"
            }
          ],
          "internalType": "struct Voting.Election",
          "name": "",
          "type": "tuple"
        }
      ],
      "stateMutability": "view",
      "type": "function",
      "constant": true
    }
  ],
  "bytecode": "0x6080604052600160005534801561001557600080fd5b5061146b806100256000396000f3fe608060405234801561001057600080fd5b50600436106100885760003560e01c8063a7b29f921161005b578063a7b29f9214610100578063ad71f8dc14610113578063db0c87c914610126578063f276669d1461013957610088565b80630533cef51461008d5780635313837b146100b65780636f77926b146100cb57806393dbcb0c146100eb575b600080fd5b6100a061009b3660046110a8565b610159565b6040516100ad919061125f565b60405180910390f35b6100be6104ca565b6040516100ad91906113b5565b6100de6100d9366004610e77565b6104d0565b6040516100ad919061135e565b6100fe6100f93660046110c0565b61063b565b005b6100fe61010e366004610f46565b61067c565b6100fe61012136600461105c565b610763565b6100fe610134366004610e99565b6107d0565b61014c610147366004610f0b565b610817565b6040516100ad91906111e2565b610161610a6e565b6000828152600160208181526040928390208351610160810185528154815281840180548651600296821615610100026000190190911695909504601f8101859004850286018501909652858552909491938584019390929083018282801561020b5780601f106101e05761010080835404028352916020019161020b565b820191906000526020600020905b8154815290600101906020018083116101ee57829003601f168201915b50505091835250506002828101546001600160a01b031660208084019190915260038401805460408051601f600019600185161561010002019093169590950491820184900484028501840181528185529094019390918301828280156102b35780601f10610288576101008083540402835291602001916102b3565b820191906000526020600020905b81548152906001019060200180831161029657829003601f168201915b5050509183525050600482015460ff908116151560208084019190915260058401546040808501919091526006850154606085015260078501549092161515608084015260088401805483518184028101840190945280845260a090940193909160009084015b828210156103c55760008481526020908190208301805460408051601f60026000196101006001871615020190941693909304928301859004850281018501909152818152928301828280156103b15780601f10610386576101008083540402835291602001916103b1565b820191906000526020600020905b81548152906001019060200180831161039457829003601f168201915b50505050508152602001906001019061031a565b5050509082525060098201805460408051602060026001851615610100026000190190941693909304601f81018490048402820184019092528181529382019392918301828280156104585780601f1061042d57610100808354040283529160200191610458565b820191906000526020600020905b81548152906001019060200180831161043b57829003601f168201915b50505050508152602001600a82018054806020026020016040519081016040528092919081815260200182805480156104ba57602002820191906000526020600020905b81546001600160a01b0316815260019091019060200180831161049c575b5050505050815250509050919050565b60005481565b6104d8610ad5565b6001600160a01b03828116600090815260036020908152604091829020825160808101845281549485168152600160a01b90940460ff16151584830152600180820180548551600261010094831615949094026000190190911692909204601f810185900485028301850186528083529294860193919290918301828280156105a25780601f10610577576101008083540402835291602001916105a2565b820191906000526020600020905b81548152906001019060200180831161058557829003601f168201915b5050509183525050600282810180546040805160206001841615610100026000190190931694909404601f810183900483028501830190915280845293810193908301828280156104ba5780601f10610609576101008083540402835291602001916104ba565b820191906000526020600020905b81548152906001019060200180831161061757505050919092525091949350505050565b60009182526001602081815260408420600a0180549283018155845290922090910180546001600160a01b0319166001600160a01b03909216919091179055565b600080548082526001602081815260409093209182558c5191926106a79291840191908e0190610afb565b506002810180546001600160a01b0319166001600160a01b038c1617905588516106da90600383019060208c0190610afb565b5060048101805460ff199081168a151517909155600582018890556006820187905560078201805490911686151517905583516107209060088301906020870190610b79565b5082516107369060098301906020860190610afb565b50815161074c90600a8301906020850190610bd2565b505060008054600101905550505050505050505050565b600060028460405161077591906111c6565b908152602001604051809103902090508381600001908051906020019061079d929190610afb565b5082516107b39060018301906020860190610afb565b5081516107c99060028301906020850190610afb565b5050505050565b6001600160a01b038316600081815260036020908152604090912080546001600160a01b03191690921760ff60a01b1916825583516107b391600184019190860190610afb565b61081f610c33565b60028260405161082f91906111c6565b9081526040805160209281900383018120805460026001821615610100026000190190911604601f8101859004909402820160a0908101909352608082018481529193909284929184918401828280156108ca5780601f1061089f576101008083540402835291602001916108ca565b820191906000526020600020905b8154815290600101906020018083116108ad57829003601f168201915b50505050508152602001600182018054600181600116156101000203166002900480601f01602080910402602001604051908101604052809291908181526020018280546001816001161561010002031660029004801561096c5780601f106109415761010080835404028352916020019161096c565b820191906000526020600020905b81548152906001019060200180831161094f57829003601f168201915b5050509183525050600282810180546040805160206001841615610100026000190190931694909404601f810183900483028501830190915280845293810193908301828280156109fe5780601f106109d3576101008083540402835291602001916109fe565b820191906000526020600020905b8154815290600101906020018083116109e157829003601f168201915b50505050508152602001600382018054806020026020016040519081016040528092919081815260200182805480156104ba576020028201919060005260206000209081546001600160a01b0316815260019091019060200180831161049c575050505050815250509050919050565b604051806101600160405280600081526020016060815260200160006001600160a01b031681526020016060815260200160001515815260200160008152602001600081526020016000151581526020016060815260200160608152602001606081525090565b604080516080810182526000808252602082015260609181018290528181019190915290565b828054600181600116156101000203166002900490600052602060002090601f016020900481019282601f10610b3c57805160ff1916838001178555610b69565b82800160010185558215610b69579182015b82811115610b69578251825591602001919060010190610b4e565b50610b75929150610c5b565b5090565b828054828255906000526020600020908101928215610bc6579160200282015b82811115610bc65782518051610bb6918491602090910190610afb565b5091602001919060010190610b99565b50610b75929150610c78565b828054828255906000526020600020908101928215610c27579160200282015b82811115610c2757825182546001600160a01b0319166001600160a01b03909116178255602090920191600190910190610bf2565b50610b75929150610c9b565b6040518060800160405280606081526020016060815260200160608152602001606081525090565b610c7591905b80821115610b755760008155600101610c61565b90565b610c7591905b80821115610b75576000610c928282610cbf565b50600101610c7e565b610c7591905b80821115610b755780546001600160a01b0319168155600101610ca1565b50805460018160011615610100020316600290046000825580601f10610ce55750610d03565b601f016020900490600052602060002090810190610d039190610c5b565b50565b80356001600160a01b0381168114610d1d57600080fd5b92915050565b600082601f830112610d33578081fd5b8135610d46610d41826113e5565b6113be565b818152915060208083019084810181840286018201871015610d6757600080fd5b60005b84811015610d8e57610d7c8883610d06565b84529282019290820190600101610d6a565b505050505092915050565b600082601f830112610da9578081fd5b8135610db7610d41826113e5565b8181529150602080830190840160005b83811015610df457610ddf8760208435890101610e0e565b83526020928301929190910190600101610dc7565b5050505092915050565b80358015158114610d1d57600080fd5b600082601f830112610e1e578081fd5b813567ffffffffffffffff811115610e34578182fd5b610e47601f8201601f19166020016113be565b9150808252836020828501011115610e5e57600080fd5b8060208401602084013760009082016020015292915050565b600060208284031215610e88578081fd5b610e928383610d06565b9392505050565b600080600060608486031215610ead578182fd5b610eb78585610d06565b9250602084013567ffffffffffffffff80821115610ed3578384fd5b610edf87838801610e0e565b93506040860135915080821115610ef4578283fd5b50610f0186828701610e0e565b9150509250925092565b600060208284031215610f1c578081fd5b813567ffffffffffffffff811115610f32578182fd5b610f3e84828501610e0e565b949350505050565b6000806000806000806000806000806101408b8d031215610f65578586fd5b8a3567ffffffffffffffff80821115610f7c578788fd5b610f888e838f01610e0e565b9b50610f978e60208f01610d06565b9a5060408d0135915080821115610fac578788fd5b610fb88e838f01610e0e565b9950610fc78e60608f01610dfe565b985060808d0135975060a08d01359650610fe48e60c08f01610dfe565b955060e08d0135915080821115610ff9578485fd5b6110058e838f01610d99565b94506101008d013591508082111561101b578384fd5b6110278e838f01610e0e565b93506101208d013591508082111561103d578283fd5b5061104a8d828e01610d23565b9150509295989b9194979a5092959850565b600080600060608486031215611070578283fd5b833567ffffffffffffffff80821115611087578485fd5b61109387838801610e0e565b94506020860135915080821115610ed3578384fd5b6000602082840312156110b9578081fd5b5035919050565b600080604083850312156110d2578182fd5b823591506110e38460208501610d06565b90509250929050565b6001600160a01b03169052565b6000815180845260208401935060208301825b828110156111335781516001600160a01b031686526020958601959091019060010161110c565b5093949350505050565b600081518084526020840180819550602083028101915060208501845b8481101561118857828403885261117284835161119a565b602098890198909450919091019060010161115a565b50919695505050505050565b15159052565b600081518084526111b2816020860160208601611405565b601f01601f19169290920160200192915050565b600082516111d8818460208701611405565b9190910192915050565b6000602082528251608060208401526111fe60a084018261119a565b60208501519150601f198085830301604086015261121c828461119a565b6040870151935081868203016060870152611237818561119a565b92505060608601519250808583030160808601525061125681836110f9565b95945050505050565b60006020825282516020830152602083015161016080604085015261128861018085018361119a565b6040860151925061129c60608601846110ec565b60608601519250601f19808683030160808701526112ba828561119a565b608088015194506112ce60a0880186611194565b60a088015160c088015260c088015160e088015260e0880151945061010092506112fa83880186611194565b8288015194506101209250818782030183880152611318818661113d565b8389015195506101409350828882030184890152611336818761119a565b91505082880151945081878203018488015261135281866110f9565b98975050505050505050565b60006020825260018060a01b03835116602083015260208301511515604083015260408301516080606084015261139860a084018261119a565b6060850151848203601f190160808601529150611256818361119a565b90815260200190565b60405181810167ffffffffffffffff811182821017156113dd57600080fd5b604052919050565b600067ffffffffffffffff8211156113fb578081fd5b5060209081020190565b60005b83811015611420578181015183820152602001611408565b8381111561142f576000848401525b5050505056fea264697066735822122078a6b74cbe34b1ce7671d6cfeed2943fc78151337580b36654c8bf3455440ced64736f6c63430006000033",
  "source": "//SPDX-License-Identifier: MIT\r\npragma solidity ^0.6.0;\r\npragma experimental ABIEncoderV2;\r\n\r\ncontract Voting {\r\n    uint256 public nextElectionId = 1;\r\n    mapping(uint256 => Election) elections;\r\n    mapping(string => Candidate) candidates;\r\n\r\n    mapping(address => Voter) voters;\r\n\r\n    struct Election {\r\n        uint256 electionId;\r\n        string electionName;\r\n        address creatorId;\r\n        string password;\r\n        bool hasPassword;\r\n        uint256 startDate;\r\n        uint256 endDate;\r\n        bool isActive;\r\n        string[] candidates;\r\n        string electionCover;\r\n        address[] voter;\r\n    }\r\n\r\n    struct Candidate {\r\n        string candidateId;\r\n        string candidateName;\r\n        string candidateImage;\r\n        address[] voter;\r\n    }\r\n\r\n    struct Voter {\r\n        address voterId;\r\n        bool voted;\r\n        string firstName;\r\n        string lastName;\r\n    }\r\n\r\n    function joinElection(uint256 electionId, address voterId) public {\r\n        Election storage election = elections[electionId];\r\n        election.voter.push(voterId);\r\n    }\r\n\r\n    function addCandidate(\r\n        string memory candidateId,\r\n        string memory candidateName,\r\n        string memory candidateImage\r\n    ) public {\r\n        Candidate storage newCandidate = candidates[candidateId];\r\n        newCandidate.candidateId = candidateId;\r\n        newCandidate.candidateName = candidateName;\r\n        newCandidate.candidateImage = candidateImage;\r\n    }\r\n\r\n    function getCandidate(string memory candidateId)\r\n        public\r\n        view\r\n        returns (Candidate memory)\r\n    {\r\n        return candidates[candidateId];\r\n    }\r\n\r\n    function registerUser(\r\n        address voterId,\r\n        string memory firstName,\r\n        string memory lastName\r\n    ) public {\r\n        Voter storage user = voters[voterId];\r\n        user.voterId = voterId;\r\n        user.voted = false;\r\n        user.firstName = firstName;\r\n        user.lastName = lastName;\r\n    }\r\n\r\n    function getUser(address id) public view returns (Voter memory) {\r\n        return voters[id];\r\n    }\r\n\r\n    function createElection(\r\n        string memory electionName,\r\n        address creatorId,\r\n        string memory password,\r\n        bool hasPassword,\r\n        uint256 startDate,\r\n        uint256 endDate,\r\n        bool isActive,\r\n        string[] memory candidatesList,\r\n        string memory electionCover,\r\n        address[] memory voter\r\n    ) public {\r\n        Election storage newElection = elections[nextElectionId];\r\n        newElection.electionId = nextElectionId;\r\n        newElection.electionName = electionName;\r\n        newElection.creatorId = creatorId;\r\n        newElection.password = password;\r\n        newElection.hasPassword = hasPassword;\r\n        newElection.startDate = startDate;\r\n        newElection.endDate = endDate;\r\n        newElection.isActive = isActive;\r\n        newElection.candidates = candidatesList;\r\n        newElection.electionCover = electionCover;\r\n        newElection.voter = voter;\r\n        nextElectionId++;\r\n    }\r\n\r\n    function getAnElection(uint256 id) public view returns (Election memory) {\r\n        return elections[id];\r\n    }\r\n}\r\n",
  "sourcePath": "C:\\Projects\\voting-DAPP\\BlockVoteWeb\\contracts\\voting.sol",
  "compiler": {
    "name": "solc",
    "version": "0.6.0+commit.26b70077.Emscripten.clang"
  },
  "schemaVersion": "3.2.0",
  "updatedAt": "2020-07-06T09:31:41.962Z",
  "networkType": "ethereum",
  "devdoc": {
    "methods": {}
  },
  "userdoc": {
    "methods": {}
  }
}