{
  "contractName": "Voting",
  "abi": [
    {
      "inputs": [],
      "name": "nextElectionId",
      "outputs": [
        {
          "internalType": "uint256",
          "name": "",
          "type": "uint256"
        }
      ],
      "stateMutability": "view",
      "type": "function",
      "constant": true
    },
    {
      "inputs": [
        {
          "internalType": "address",
          "name": "voterId",
          "type": "address"
        },
        {
          "internalType": "uint256",
          "name": "electionId",
          "type": "uint256"
        }
      ],
      "name": "approveVoter",
      "outputs": [],
      "stateMutability": "nonpayable",
      "type": "function"
    },
    {
      "inputs": [
        {
          "internalType": "string",
          "name": "candidateId",
          "type": "string"
        },
        {
          "internalType": "address",
          "name": "voterId",
          "type": "address"
        }
      ],
      "name": "voteCandidate",
      "outputs": [],
      "stateMutability": "nonpayable",
      "type": "function"
    },
    {
      "inputs": [
        {
          "internalType": "uint256",
          "name": "electionId",
          "type": "uint256"
        },
        {
          "internalType": "address",
          "name": "voterId",
          "type": "address"
        }
      ],
      "name": "joinElection",
      "outputs": [],
      "stateMutability": "nonpayable",
      "type": "function"
    },
    {
      "inputs": [
        {
          "internalType": "string",
          "name": "candidateId",
          "type": "string"
        },
        {
          "internalType": "string",
          "name": "candidateName",
          "type": "string"
        },
        {
          "internalType": "string",
          "name": "candidateImage",
          "type": "string"
        }
      ],
      "name": "addCandidate",
      "outputs": [],
      "stateMutability": "nonpayable",
      "type": "function"
    },
    {
      "inputs": [
        {
          "internalType": "string",
          "name": "candidateId",
          "type": "string"
        }
      ],
      "name": "getCandidate",
      "outputs": [
        {
          "components": [
            {
              "internalType": "string",
              "name": "candidateId",
              "type": "string"
            },
            {
              "internalType": "string",
              "name": "candidateName",
              "type": "string"
            },
            {
              "internalType": "string",
              "name": "candidateImage",
              "type": "string"
            },
            {
              "internalType": "address[]",
              "name": "voter",
              "type": "address[]"
            }
          ],
          "internalType": "struct Voting.Candidate",
          "name": "",
          "type": "tuple"
        }
      ],
      "stateMutability": "view",
      "type": "function",
      "constant": true
    },
    {
      "inputs": [
        {
          "internalType": "address",
          "name": "voterId",
          "type": "address"
        }
      ],
      "name": "registerUser",
      "outputs": [],
      "stateMutability": "nonpayable",
      "type": "function"
    },
    {
      "inputs": [
        {
          "internalType": "address",
          "name": "id",
          "type": "address"
        }
      ],
      "name": "getUser",
      "outputs": [
        {
          "components": [
            {
              "internalType": "address",
              "name": "voterId",
              "type": "address"
            }
          ],
          "internalType": "struct Voting.Voter",
          "name": "",
          "type": "tuple"
        }
      ],
      "stateMutability": "view",
      "type": "function",
      "constant": true
    },
    {
      "inputs": [
        {
          "internalType": "string",
          "name": "electionName",
          "type": "string"
        },
        {
          "internalType": "address",
          "name": "creatorId",
          "type": "address"
        },
        {
          "internalType": "string",
          "name": "password",
          "type": "string"
        },
        {
          "internalType": "bool",
          "name": "hasPassword",
          "type": "bool"
        },
        {
          "internalType": "uint256",
          "name": "startDate",
          "type": "uint256"
        },
        {
          "internalType": "uint256",
          "name": "endDate",
          "type": "uint256"
        },
        {
          "internalType": "bool",
          "name": "isActive",
          "type": "bool"
        },
        {
          "internalType": "string[]",
          "name": "candidatesList",
          "type": "string[]"
        },
        {
          "internalType": "string",
          "name": "electionCover",
          "type": "string"
        },
        {
          "internalType": "address[]",
          "name": "pendingVoter",
          "type": "address[]"
        },
        {
          "internalType": "address[]",
          "name": "approvedVoter",
          "type": "address[]"
        }
      ],
      "name": "createElection",
      "outputs": [],
      "stateMutability": "nonpayable",
      "type": "function"
    },
    {
      "inputs": [
        {
          "internalType": "uint256",
          "name": "id",
          "type": "uint256"
        }
      ],
      "name": "getAnElection",
      "outputs": [
        {
          "components": [
            {
              "internalType": "uint256",
              "name": "electionId",
              "type": "uint256"
            },
            {
              "internalType": "string",
              "name": "electionName",
              "type": "string"
            },
            {
              "internalType": "address",
              "name": "creatorId",
              "type": "address"
            },
            {
              "internalType": "string",
              "name": "password",
              "type": "string"
            },
            {
              "internalType": "bool",
              "name": "hasPassword",
              "type": "bool"
            },
            {
              "internalType": "uint256",
              "name": "startDate",
              "type": "uint256"
            },
            {
              "internalType": "uint256",
              "name": "endDate",
              "type": "uint256"
            },
            {
              "internalType": "bool",
              "name": "isActive",
              "type": "bool"
            },
            {
              "internalType": "string[]",
              "name": "candidates",
              "type": "string[]"
            },
            {
              "internalType": "string",
              "name": "electionCover",
              "type": "string"
            },
            {
              "internalType": "address[]",
              "name": "pendingVoter",
              "type": "address[]"
            },
            {
              "internalType": "address[]",
              "name": "approvedVoter",
              "type": "address[]"
            }
          ],
          "internalType": "struct Voting.Election",
          "name": "",
          "type": "tuple"
        }
      ],
      "stateMutability": "view",
      "type": "function",
      "constant": true
    }
  ],
  "bytecode": "0x6080604052600160005534801561001557600080fd5b506115aa806100256000396000f3fe608060405234801561001057600080fd5b506004361061009e5760003560e01c8063ad71f8dc11610066578063ad71f8dc14610129578063add1eab21461013c578063d5613f6c1461014f578063da3dee2814610162578063f276669d146101755761009e565b80630533cef5146100a35780632199d5cd146100cc5780635313837b146100e15780636f77926b146100f657806393dbcb0c14610116575b600080fd5b6100b66100b1366004611216565b610195565b6040516100c391906113c3565b60405180910390f35b6100df6100da366004610f7c565b610568565b005b6100e9610592565b6040516100c391906114f4565b610109610104366004610f7c565b610598565b6040516100c391906114e1565b6100df61012436600461122e565b6105d0565b6100df610137366004611192565b610611565b6100df61014a366004611050565b61067e565b6100df61015d366004610f9e565b61077c565b6100df610170366004611003565b6108d0565b610188610183366004610fc8565b610929565b6040516100c39190611346565b61019d610b80565b6000828152600160208181526040928390208351610180810185528154815281840180548651600296821615610100026000190190911695909504601f810185900485028601850190965285855290949193858401939092908301828280156102475780601f1061021c57610100808354040283529160200191610247565b820191906000526020600020905b81548152906001019060200180831161022a57829003601f168201915b50505091835250506002828101546001600160a01b031660208084019190915260038401805460408051601f600019600185161561010002019093169590950491820184900484028501840181528185529094019390918301828280156102ef5780601f106102c4576101008083540402835291602001916102ef565b820191906000526020600020905b8154815290600101906020018083116102d257829003601f168201915b5050509183525050600482015460ff908116151560208084019190915260058401546040808501919091526006850154606085015260078501549092161515608084015260088401805483518184028101840190945280845260a090940193909160009084015b828210156104015760008481526020908190208301805460408051601f60026000196101006001871615020190941693909304928301859004850281018501909152818152928301828280156103ed5780601f106103c2576101008083540402835291602001916103ed565b820191906000526020600020905b8154815290600101906020018083116103d057829003601f168201915b505050505081526020019060010190610356565b5050509082525060098201805460408051602060026001851615610100026000190190941693909304601f81018490048402820184019092528181529382019392918301828280156104945780601f1061046957610100808354040283529160200191610494565b820191906000526020600020905b81548152906001019060200180831161047757829003601f168201915b50505050508152602001600a82018054806020026020016040519081016040528092919081815260200182805480156104f657602002820191906000526020600020905b81546001600160a01b031681526001909101906020018083116104d8575b50505050508152602001600b820180548060200260200160405190810160405280929190818152602001828054801561055857602002820191906000526020600020905b81546001600160a01b0316815260019091019060200180831161053a575b5050505050815250509050919050565b6001600160a01b0316600081815260036020526040902080546001600160a01b0319169091179055565b60005481565b6105a0610bee565b506001600160a01b0390811660009081526003602090815260409182902082519182019092529054909116815290565b60009182526001602081815260408420600a0180549283018155845290922090910180546001600160a01b0319166001600160a01b03909216919091179055565b6000600284604051610623919061132a565b908152602001604051809103902090508381600001908051906020019061064b929190610c00565b5082516106619060018301906020860190610c00565b5081516106779060028301906020850190610c00565b5050505050565b600080548082526001602081815260409093209182558d5191926106a99291840191908f0190610c00565b506002810180546001600160a01b0319166001600160a01b038d1617905589516106dc90600383019060208d0190610c00565b5060048101805460ff199081168b151517909155600582018990556006820188905560078201805490911687151517905584516107229060088301906020880190610c7e565b5083516107389060098301906020870190610c00565b50825161074e90600a8301906020860190610cd7565b50815161076490600b8301906020850190610cd7565b50506000805460010190555050505050505050505050565b6000818152600160205260408120905b600a8201546000190167ffffffffffffffff8216101561086957836001600160a01b031682600a018267ffffffffffffffff16815481106107c957fe5b6000918252602090912001546001600160a01b031614156108615781600a018160010167ffffffffffffffff168154811061080057fe5b600091825260209091200154600a830180546001600160a01b039092169167ffffffffffffffff841690811061083257fe5b9060005260206000200160006101000a8154816001600160a01b0302191690836001600160a01b031602179055505b60010161078c565b5080600a0180548061087757fe5b60008281526020808220830160001990810180546001600160a01b03199081169091559301909355600b9093018054600181018255908452919092200180546001600160a01b0394909416939091169290921790915550565b60006002836040516108e2919061132a565b90815260405160209181900382019020600301805460018101825560009182529190200180546001600160a01b0319166001600160a01b0393909316929092179091555050565b610931610d38565b600282604051610941919061132a565b9081526040805160209281900383018120805460026001821615610100026000190190911604601f8101859004909402820160a0908101909352608082018481529193909284929184918401828280156109dc5780601f106109b1576101008083540402835291602001916109dc565b820191906000526020600020905b8154815290600101906020018083116109bf57829003601f168201915b50505050508152602001600182018054600181600116156101000203166002900480601f016020809104026020016040519081016040528092919081815260200182805460018160011615610100020316600290048015610a7e5780601f10610a5357610100808354040283529160200191610a7e565b820191906000526020600020905b815481529060010190602001808311610a6157829003601f168201915b5050509183525050600282810180546040805160206001841615610100026000190190931694909404601f81018390048302850183019091528084529381019390830182828015610b105780601f10610ae557610100808354040283529160200191610b10565b820191906000526020600020905b815481529060010190602001808311610af357829003601f168201915b5050505050815260200160038201805480602002602001604051908101604052809291908181526020018280548015610558576020028201919060005260206000209081546001600160a01b0316815260019091019060200180831161053a575050505050815250509050919050565b604051806101800160405280600081526020016060815260200160006001600160a01b03168152602001606081526020016000151581526020016000815260200160008152602001600015158152602001606081526020016060815260200160608152602001606081525090565b60408051602081019091526000815290565b828054600181600116156101000203166002900490600052602060002090601f016020900481019282601f10610c4157805160ff1916838001178555610c6e565b82800160010185558215610c6e579182015b82811115610c6e578251825591602001919060010190610c53565b50610c7a929150610d60565b5090565b828054828255906000526020600020908101928215610ccb579160200282015b82811115610ccb5782518051610cbb918491602090910190610c00565b5091602001919060010190610c9e565b50610c7a929150610d7d565b828054828255906000526020600020908101928215610d2c579160200282015b82811115610d2c57825182546001600160a01b0319166001600160a01b03909116178255602090920191600190910190610cf7565b50610c7a929150610da0565b6040518060800160405280606081526020016060815260200160608152602001606081525090565b610d7a91905b80821115610c7a5760008155600101610d66565b90565b610d7a91905b80821115610c7a576000610d978282610dc4565b50600101610d83565b610d7a91905b80821115610c7a5780546001600160a01b0319168155600101610da6565b50805460018160011615610100020316600290046000825580601f10610dea5750610e08565b601f016020900490600052602060002090810190610e089190610d60565b50565b80356001600160a01b0381168114610e2257600080fd5b92915050565b600082601f830112610e38578081fd5b8135610e4b610e4682611524565b6114fd565b818152915060208083019084810181840286018201871015610e6c57600080fd5b60005b84811015610e9357610e818883610e0b565b84529282019290820190600101610e6f565b505050505092915050565b600082601f830112610eae578081fd5b8135610ebc610e4682611524565b8181529150602080830190840160005b83811015610ef957610ee48760208435890101610f13565b83526020928301929190910190600101610ecc565b5050505092915050565b80358015158114610e2257600080fd5b600082601f830112610f23578081fd5b813567ffffffffffffffff811115610f39578182fd5b610f4c601f8201601f19166020016114fd565b9150808252836020828501011115610f6357600080fd5b8060208401602084013760009082016020015292915050565b600060208284031215610f8d578081fd5b610f978383610e0b565b9392505050565b60008060408385031215610fb0578081fd5b610fba8484610e0b565b946020939093013593505050565b600060208284031215610fd9578081fd5b813567ffffffffffffffff811115610fef578182fd5b610ffb84828501610f13565b949350505050565b60008060408385031215611015578182fd5b823567ffffffffffffffff81111561102b578283fd5b61103785828601610f13565b9250506110478460208501610e0b565b90509250929050565b60008060008060008060008060008060006101608c8e031215611071578687fd5b67ffffffffffffffff808d351115611087578788fd5b6110948e8e358f01610f13565b9b506110a38e60208f01610e0b565b9a508060408e013511156110b5578788fd5b6110c58e60408f01358f01610f13565b99506110d48e60608f01610f03565b985060808d0135975060a08d013596506110f18e60c08f01610f03565b95508060e08e01351115611103578485fd5b6111138e60e08f01358f01610e9e565b9450806101008e01351115611126578384fd5b6111378e6101008f01358f01610f13565b9350806101208e0135111561114a578283fd5b61115b8e6101208f01358f01610e28565b9250806101408e0135111561116e578182fd5b506111808d6101408e01358e01610e28565b90509295989b509295989b9093969950565b6000806000606084860312156111a6578283fd5b833567ffffffffffffffff808211156111bd578485fd5b6111c987838801610f13565b945060208601359150808211156111de578384fd5b6111ea87838801610f13565b935060408601359150808211156111ff578283fd5b5061120c86828701610f13565b9150509250925092565b600060208284031215611227578081fd5b5035919050565b60008060408385031215611240578182fd5b823591506110478460208501610e0b565b6001600160a01b03169052565b6000815180845260208401935060208301825b828110156112985781516001600160a01b0316865260209586019590910190600101611271565b5093949350505050565b60008282518085526020808601955080818302840101818601855b848110156112eb57601f198684030189526112d98383516112fe565b988401989250908301906001016112bd565b5090979650505050505050565b15159052565b60008151808452611316816020860160208601611544565b601f01601f19169290920160200192915050565b6000825161133c818460208701611544565b9190910192915050565b60006020825282516080602084015261136260a08401826112fe565b60208501519150601f198085830301604086015261138082846112fe565b604087015193508186820301606087015261139b81856112fe565b9250506060860151925080858303016080860152506113ba818361125e565b95945050505050565b6000602082528251602083015260208301516101808060408501526113ec6101a08501836112fe565b604086015192506114006060860184611251565b60608601519250601f198086830301608087015261141e82856112fe565b6080880151945061143260a08801866112f8565b60a088015160c088015260c088015160e088015260e08801519450610100925061145e838801866112f8565b828801519450610120925081878203018388015261147c81866112a2565b838901519550610140935082888203018489015261149a81876112fe565b91505082880151945061016092508187820301838801526114bb818661125e565b8389015195508288820301858901526114d4818761125e565b9998505050505050505050565b90516001600160a01b0316815260200190565b90815260200190565b60405181810167ffffffffffffffff8111828210171561151c57600080fd5b604052919050565b600067ffffffffffffffff82111561153a578081fd5b5060209081020190565b60005b8381101561155f578181015183820152602001611547565b8381111561156e576000848401525b5050505056fea2646970667358221220cabe2da5d678fd94c09ebc26ff810c74ebe1f920d9fc50779b96d22b89d0e00764736f6c63430006000033",
  "source": "//SPDX-License-Identifier: MIT\r\npragma solidity ^0.6.0;\r\npragma experimental ABIEncoderV2;\r\n\r\ncontract Voting {\r\n    uint256 public nextElectionId = 1;\r\n    mapping(uint256 => Election) elections;\r\n    mapping(string => Candidate) candidates;\r\n\r\n    mapping(address => Voter) voters;\r\n\r\n    struct Election {\r\n        uint256 electionId;\r\n        string electionName;\r\n        address creatorId;\r\n        string password;\r\n        bool hasPassword;\r\n        uint256 startDate;\r\n        uint256 endDate;\r\n        bool isActive;\r\n        string[] candidates;\r\n        string electionCover;\r\n        address[] pendingVoter;\r\n        address[] approvedVoter;\r\n    }\r\n\r\n    struct Candidate {\r\n        string candidateId;\r\n        string candidateName;\r\n        string candidateImage;\r\n        address[] voter;\r\n    }\r\n\r\n    struct Voter {\r\n        address voterId;\r\n    }\r\n\r\n    function approveVoter(address voterId, uint256 electionId) public {\r\n        Election storage election = elections[electionId];\r\n        // for (uint256 i = 0; i < election.pendingVoter.length-1; i++) {\r\n        //     if (election.pendingVoter[i] == voterId) {\r\n        //         delete election.pendingVoter[election.pendingVoter.length-1];\r\n        //         election.pendingVoter.length--;\r\n        //     }\r\n        //     // election.pendingVoter[i] = election.pendingVoter[i + 1];\r\n        // }\r\n        // election.approvedVoter.push(voterId);\r\n        for (uint64 i = 0; i < election.pendingVoter.length - 1; i++) {\r\n            if (election.pendingVoter[i] == voterId) {\r\n                election.pendingVoter[i] = election.pendingVoter[i + 1];\r\n            }\r\n        }\r\n        election.pendingVoter.pop();\r\n        election.approvedVoter.push(voterId);\r\n    }\r\n\r\n    function voteCandidate(string memory candidateId, address voterId) public {\r\n        Candidate storage candidate = candidates[candidateId];\r\n        candidate.voter.push(voterId);\r\n    }\r\n\r\n    function joinElection(uint256 electionId, address voterId) public {\r\n        Election storage election = elections[electionId];\r\n        election.pendingVoter.push(voterId);\r\n    }\r\n\r\n    function addCandidate(\r\n        string memory candidateId,\r\n        string memory candidateName,\r\n        string memory candidateImage\r\n    ) public {\r\n        Candidate storage newCandidate = candidates[candidateId];\r\n        newCandidate.candidateId = candidateId;\r\n        newCandidate.candidateName = candidateName;\r\n        newCandidate.candidateImage = candidateImage;\r\n    }\r\n\r\n    function getCandidate(string memory candidateId)\r\n        public\r\n        view\r\n        returns (Candidate memory)\r\n    {\r\n        return candidates[candidateId];\r\n    }\r\n\r\n    function registerUser(address voterId) public {\r\n        Voter storage user = voters[voterId];\r\n        user.voterId = voterId;\r\n    }\r\n\r\n    function getUser(address id) public view returns (Voter memory) {\r\n        return voters[id];\r\n    }\r\n\r\n    function createElection(\r\n        string memory electionName,\r\n        address creatorId,\r\n        string memory password,\r\n        bool hasPassword,\r\n        uint256 startDate,\r\n        uint256 endDate,\r\n        bool isActive,\r\n        string[] memory candidatesList,\r\n        string memory electionCover,\r\n        address[] memory pendingVoter,\r\n        address[] memory approvedVoter\r\n    ) public {\r\n        Election storage newElection = elections[nextElectionId];\r\n        newElection.electionId = nextElectionId;\r\n        newElection.electionName = electionName;\r\n        newElection.creatorId = creatorId;\r\n        newElection.password = password;\r\n        newElection.hasPassword = hasPassword;\r\n        newElection.startDate = startDate;\r\n        newElection.endDate = endDate;\r\n        newElection.isActive = isActive;\r\n        newElection.candidates = candidatesList;\r\n        newElection.electionCover = electionCover;\r\n        newElection.pendingVoter = pendingVoter;\r\n        newElection.approvedVoter = approvedVoter;\r\n        nextElectionId++;\r\n    }\r\n\r\n    function getAnElection(uint256 id) public view returns (Election memory) {\r\n        return elections[id];\r\n    }\r\n}\r\n",
  "sourcePath": "C:\\Projects\\voting-DAPP\\BlockVoteWeb\\contracts\\voting.sol",
  "compiler": {
    "name": "solc",
    "version": "0.6.0+commit.26b70077.Emscripten.clang"
  },
  "schemaVersion": "3.2.0",
  "updatedAt": "2020-07-10T07:10:44.878Z",
  "networkType": "ethereum",
  "devdoc": {
    "methods": {}
  },
  "userdoc": {
    "methods": {}
  }
}