{
  "contractName": "Voting",
  "abi": [
    {
      "inputs": [],
      "name": "nextElectionId",
      "outputs": [
        {
          "internalType": "uint256",
          "name": "",
          "type": "uint256"
        }
      ],
      "stateMutability": "view",
      "type": "function",
      "constant": true
    },
    {
      "inputs": [
        {
          "internalType": "string",
          "name": "candidateId",
          "type": "string"
        },
        {
          "internalType": "address",
          "name": "voterId",
          "type": "address"
        }
      ],
      "name": "voteCandidate",
      "outputs": [],
      "stateMutability": "nonpayable",
      "type": "function"
    },
    {
      "inputs": [
        {
          "internalType": "uint256",
          "name": "electionId",
          "type": "uint256"
        },
        {
          "internalType": "address",
          "name": "voterId",
          "type": "address"
        }
      ],
      "name": "joinElection",
      "outputs": [],
      "stateMutability": "nonpayable",
      "type": "function"
    },
    {
      "inputs": [
        {
          "internalType": "string",
          "name": "candidateId",
          "type": "string"
        },
        {
          "internalType": "string",
          "name": "candidateName",
          "type": "string"
        },
        {
          "internalType": "string",
          "name": "candidateImage",
          "type": "string"
        }
      ],
      "name": "addCandidate",
      "outputs": [],
      "stateMutability": "nonpayable",
      "type": "function"
    },
    {
      "inputs": [
        {
          "internalType": "string",
          "name": "candidateId",
          "type": "string"
        }
      ],
      "name": "getCandidate",
      "outputs": [
        {
          "components": [
            {
              "internalType": "string",
              "name": "candidateId",
              "type": "string"
            },
            {
              "internalType": "string",
              "name": "candidateName",
              "type": "string"
            },
            {
              "internalType": "string",
              "name": "candidateImage",
              "type": "string"
            },
            {
              "internalType": "address[]",
              "name": "voter",
              "type": "address[]"
            }
          ],
          "internalType": "struct Voting.Candidate",
          "name": "",
          "type": "tuple"
        }
      ],
      "stateMutability": "view",
      "type": "function",
      "constant": true
    },
    {
      "inputs": [
        {
          "internalType": "address",
          "name": "voterId",
          "type": "address"
        },
        {
          "internalType": "string",
          "name": "firstName",
          "type": "string"
        },
        {
          "internalType": "string",
          "name": "lastName",
          "type": "string"
        }
      ],
      "name": "registerUser",
      "outputs": [],
      "stateMutability": "nonpayable",
      "type": "function"
    },
    {
      "inputs": [
        {
          "internalType": "address",
          "name": "id",
          "type": "address"
        }
      ],
      "name": "getUser",
      "outputs": [
        {
          "components": [
            {
              "internalType": "address",
              "name": "voterId",
              "type": "address"
            },
            {
              "internalType": "bool",
              "name": "voted",
              "type": "bool"
            },
            {
              "internalType": "string",
              "name": "firstName",
              "type": "string"
            },
            {
              "internalType": "string",
              "name": "lastName",
              "type": "string"
            }
          ],
          "internalType": "struct Voting.Voter",
          "name": "",
          "type": "tuple"
        }
      ],
      "stateMutability": "view",
      "type": "function",
      "constant": true
    },
    {
      "inputs": [
        {
          "internalType": "string",
          "name": "electionName",
          "type": "string"
        },
        {
          "internalType": "address",
          "name": "creatorId",
          "type": "address"
        },
        {
          "internalType": "string",
          "name": "password",
          "type": "string"
        },
        {
          "internalType": "bool",
          "name": "hasPassword",
          "type": "bool"
        },
        {
          "internalType": "uint256",
          "name": "startDate",
          "type": "uint256"
        },
        {
          "internalType": "uint256",
          "name": "endDate",
          "type": "uint256"
        },
        {
          "internalType": "bool",
          "name": "isActive",
          "type": "bool"
        },
        {
          "internalType": "string[]",
          "name": "candidatesList",
          "type": "string[]"
        },
        {
          "internalType": "string",
          "name": "electionCover",
          "type": "string"
        },
        {
          "internalType": "address[]",
          "name": "voter",
          "type": "address[]"
        }
      ],
      "name": "createElection",
      "outputs": [],
      "stateMutability": "nonpayable",
      "type": "function"
    },
    {
      "inputs": [
        {
          "internalType": "uint256",
          "name": "id",
          "type": "uint256"
        }
      ],
      "name": "getAnElection",
      "outputs": [
        {
          "components": [
            {
              "internalType": "uint256",
              "name": "electionId",
              "type": "uint256"
            },
            {
              "internalType": "string",
              "name": "electionName",
              "type": "string"
            },
            {
              "internalType": "address",
              "name": "creatorId",
              "type": "address"
            },
            {
              "internalType": "string",
              "name": "password",
              "type": "string"
            },
            {
              "internalType": "bool",
              "name": "hasPassword",
              "type": "bool"
            },
            {
              "internalType": "uint256",
              "name": "startDate",
              "type": "uint256"
            },
            {
              "internalType": "uint256",
              "name": "endDate",
              "type": "uint256"
            },
            {
              "internalType": "bool",
              "name": "isActive",
              "type": "bool"
            },
            {
              "internalType": "string[]",
              "name": "candidates",
              "type": "string[]"
            },
            {
              "internalType": "string",
              "name": "electionCover",
              "type": "string"
            },
            {
              "internalType": "address[]",
              "name": "voter",
              "type": "address[]"
            }
          ],
          "internalType": "struct Voting.Election",
          "name": "",
          "type": "tuple"
        }
      ],
      "stateMutability": "view",
      "type": "function",
      "constant": true
    }
  ],
  "bytecode": "0x6080604052600160005534801561001557600080fd5b50611525806100256000396000f3fe608060405234801561001057600080fd5b50600436106100935760003560e01c8063a7b29f9211610066578063a7b29f921461010b578063ad71f8dc1461011e578063da3dee2814610131578063db0c87c914610144578063f276669d1461015757610093565b80630533cef5146100985780635313837b146100c15780636f77926b146100d657806393dbcb0c146100f6575b600080fd5b6100ab6100a636600461116c565b610177565b6040516100b89190611319565b60405180910390f35b6100c96104e8565b6040516100b8919061146f565b6100e96100e4366004610eee565b6104ee565b6040516100b89190611418565b610109610104366004611184565b610659565b005b61010961011936600461100a565b61069a565b61010961012c366004611120565b610781565b61010961013f366004610fbd565b6107ee565b610109610152366004610f10565b610847565b61016a610165366004610f82565b61088e565b6040516100b8919061129c565b61017f610ae5565b6000828152600160208181526040928390208351610160810185528154815281840180548651600296821615610100026000190190911695909504601f810185900485028601850190965285855290949193858401939092908301828280156102295780601f106101fe57610100808354040283529160200191610229565b820191906000526020600020905b81548152906001019060200180831161020c57829003601f168201915b50505091835250506002828101546001600160a01b031660208084019190915260038401805460408051601f600019600185161561010002019093169590950491820184900484028501840181528185529094019390918301828280156102d15780601f106102a6576101008083540402835291602001916102d1565b820191906000526020600020905b8154815290600101906020018083116102b457829003601f168201915b5050509183525050600482015460ff908116151560208084019190915260058401546040808501919091526006850154606085015260078501549092161515608084015260088401805483518184028101840190945280845260a090940193909160009084015b828210156103e35760008481526020908190208301805460408051601f60026000196101006001871615020190941693909304928301859004850281018501909152818152928301828280156103cf5780601f106103a4576101008083540402835291602001916103cf565b820191906000526020600020905b8154815290600101906020018083116103b257829003601f168201915b505050505081526020019060010190610338565b5050509082525060098201805460408051602060026001851615610100026000190190941693909304601f81018490048402820184019092528181529382019392918301828280156104765780601f1061044b57610100808354040283529160200191610476565b820191906000526020600020905b81548152906001019060200180831161045957829003601f168201915b50505050508152602001600a82018054806020026020016040519081016040528092919081815260200182805480156104d857602002820191906000526020600020905b81546001600160a01b031681526001909101906020018083116104ba575b5050505050815250509050919050565b60005481565b6104f6610b4c565b6001600160a01b03828116600090815260036020908152604091829020825160808101845281549485168152600160a01b90940460ff16151584830152600180820180548551600261010094831615949094026000190190911692909204601f810185900485028301850186528083529294860193919290918301828280156105c05780601f10610595576101008083540402835291602001916105c0565b820191906000526020600020905b8154815290600101906020018083116105a357829003601f168201915b5050509183525050600282810180546040805160206001841615610100026000190190931694909404601f810183900483028501830190915280845293810193908301828280156104d85780601f10610627576101008083540402835291602001916104d8565b820191906000526020600020905b81548152906001019060200180831161063557505050919092525091949350505050565b60009182526001602081815260408420600a0180549283018155845290922090910180546001600160a01b0319166001600160a01b03909216919091179055565b600080548082526001602081815260409093209182558c5191926106c59291840191908e0190610b72565b506002810180546001600160a01b0319166001600160a01b038c1617905588516106f890600383019060208c0190610b72565b5060048101805460ff199081168a1515179091556005820188905560068201879055600782018054909116861515179055835161073e9060088301906020870190610bf0565b5082516107549060098301906020860190610b72565b50815161076a90600a8301906020850190610c49565b505060008054600101905550505050505050505050565b60006002846040516107939190611280565b90815260200160405180910390209050838160000190805190602001906107bb929190610b72565b5082516107d19060018301906020860190610b72565b5081516107e79060028301906020850190610b72565b5050505050565b60006002836040516108009190611280565b90815260405160209181900382019020600301805460018101825560009182529190200180546001600160a01b0319166001600160a01b0393909316929092179091555050565b6001600160a01b038316600081815260036020908152604090912080546001600160a01b03191690921760ff60a01b1916825583516107d191600184019190860190610b72565b610896610caa565b6002826040516108a69190611280565b9081526040805160209281900383018120805460026001821615610100026000190190911604601f8101859004909402820160a0908101909352608082018481529193909284929184918401828280156109415780601f1061091657610100808354040283529160200191610941565b820191906000526020600020905b81548152906001019060200180831161092457829003601f168201915b50505050508152602001600182018054600181600116156101000203166002900480601f0160208091040260200160405190810160405280929190818152602001828054600181600116156101000203166002900480156109e35780601f106109b8576101008083540402835291602001916109e3565b820191906000526020600020905b8154815290600101906020018083116109c657829003601f168201915b5050509183525050600282810180546040805160206001841615610100026000190190931694909404601f81018390048302850183019091528084529381019390830182828015610a755780601f10610a4a57610100808354040283529160200191610a75565b820191906000526020600020905b815481529060010190602001808311610a5857829003601f168201915b50505050508152602001600382018054806020026020016040519081016040528092919081815260200182805480156104d8576020028201919060005260206000209081546001600160a01b031681526001909101906020018083116104ba575050505050815250509050919050565b604051806101600160405280600081526020016060815260200160006001600160a01b031681526020016060815260200160001515815260200160008152602001600081526020016000151581526020016060815260200160608152602001606081525090565b604080516080810182526000808252602082015260609181018290528181019190915290565b828054600181600116156101000203166002900490600052602060002090601f016020900481019282601f10610bb357805160ff1916838001178555610be0565b82800160010185558215610be0579182015b82811115610be0578251825591602001919060010190610bc5565b50610bec929150610cd2565b5090565b828054828255906000526020600020908101928215610c3d579160200282015b82811115610c3d5782518051610c2d918491602090910190610b72565b5091602001919060010190610c10565b50610bec929150610cef565b828054828255906000526020600020908101928215610c9e579160200282015b82811115610c9e57825182546001600160a01b0319166001600160a01b03909116178255602090920191600190910190610c69565b50610bec929150610d12565b6040518060800160405280606081526020016060815260200160608152602001606081525090565b610cec91905b80821115610bec5760008155600101610cd8565b90565b610cec91905b80821115610bec576000610d098282610d36565b50600101610cf5565b610cec91905b80821115610bec5780546001600160a01b0319168155600101610d18565b50805460018160011615610100020316600290046000825580601f10610d5c5750610d7a565b601f016020900490600052602060002090810190610d7a9190610cd2565b50565b80356001600160a01b0381168114610d9457600080fd5b92915050565b600082601f830112610daa578081fd5b8135610dbd610db88261149f565b611478565b818152915060208083019084810181840286018201871015610dde57600080fd5b60005b84811015610e0557610df38883610d7d565b84529282019290820190600101610de1565b505050505092915050565b600082601f830112610e20578081fd5b8135610e2e610db88261149f565b8181529150602080830190840160005b83811015610e6b57610e568760208435890101610e85565b83526020928301929190910190600101610e3e565b5050505092915050565b80358015158114610d9457600080fd5b600082601f830112610e95578081fd5b813567ffffffffffffffff811115610eab578182fd5b610ebe601f8201601f1916602001611478565b9150808252836020828501011115610ed557600080fd5b8060208401602084013760009082016020015292915050565b600060208284031215610eff578081fd5b610f098383610d7d565b9392505050565b600080600060608486031215610f24578182fd5b610f2e8585610d7d565b9250602084013567ffffffffffffffff80821115610f4a578384fd5b610f5687838801610e85565b93506040860135915080821115610f6b578283fd5b50610f7886828701610e85565b9150509250925092565b600060208284031215610f93578081fd5b813567ffffffffffffffff811115610fa9578182fd5b610fb584828501610e85565b949350505050565b60008060408385031215610fcf578182fd5b823567ffffffffffffffff811115610fe5578283fd5b610ff185828601610e85565b9250506110018460208501610d7d565b90509250929050565b6000806000806000806000806000806101408b8d031215611029578586fd5b8a3567ffffffffffffffff80821115611040578788fd5b61104c8e838f01610e85565b9b5061105b8e60208f01610d7d565b9a5060408d0135915080821115611070578788fd5b61107c8e838f01610e85565b995061108b8e60608f01610e75565b985060808d0135975060a08d013596506110a88e60c08f01610e75565b955060e08d01359150808211156110bd578485fd5b6110c98e838f01610e10565b94506101008d01359150808211156110df578384fd5b6110eb8e838f01610e85565b93506101208d0135915080821115611101578283fd5b5061110e8d828e01610d9a565b9150509295989b9194979a5092959850565b600080600060608486031215611134578283fd5b833567ffffffffffffffff8082111561114b578485fd5b61115787838801610e85565b94506020860135915080821115610f4a578384fd5b60006020828403121561117d578081fd5b5035919050565b60008060408385031215611196578182fd5b823591506110018460208501610d7d565b6001600160a01b03169052565b6000815180845260208401935060208301825b828110156111ee5781516001600160a01b03168652602095860195909101906001016111c7565b5093949350505050565b60008282518085526020808601955080818302840101818601855b8481101561124157601f1986840301895261122f838351611254565b98840198925090830190600101611213565b5090979650505050505050565b15159052565b6000815180845261126c8160208601602086016114bf565b601f01601f19169290920160200192915050565b600082516112928184602087016114bf565b9190910192915050565b6000602082528251608060208401526112b860a0840182611254565b60208501519150601f19808583030160408601526112d68284611254565b60408701519350818682030160608701526112f18185611254565b92505060608601519250808583030160808601525061131081836111b4565b95945050505050565b600060208252825160208301526020830151610160806040850152611342610180850183611254565b6040860151925061135660608601846111a7565b60608601519250601f19808683030160808701526113748285611254565b6080880151945061138860a088018661124e565b60a088015160c088015260c088015160e088015260e0880151945061010092506113b48388018661124e565b82880151945061012092508187820301838801526113d281866111f8565b83890151955061014093508288820301848901526113f08187611254565b91505082880151945081878203018488015261140c81866111b4565b98975050505050505050565b60006020825260018060a01b03835116602083015260208301511515604083015260408301516080606084015261145260a0840182611254565b6060850151848203601f1901608086015291506113108183611254565b90815260200190565b60405181810167ffffffffffffffff8111828210171561149757600080fd5b604052919050565b600067ffffffffffffffff8211156114b5578081fd5b5060209081020190565b60005b838110156114da5781810151838201526020016114c2565b838111156114e9576000848401525b5050505056fea264697066735822122010d390e0225ecd9a29ef517232a4627f703c97e89d7451532afeb1372f137fbf64736f6c63430006000033",
  "source": "//SPDX-License-Identifier: MIT\r\npragma solidity ^0.6.0;\r\npragma experimental ABIEncoderV2;\r\n\r\ncontract Voting {\r\n    uint256 public nextElectionId = 1;\r\n    mapping(uint256 => Election) elections;\r\n    mapping(string => Candidate) candidates;\r\n\r\n    mapping(address => Voter) voters;\r\n\r\n    struct Election {\r\n        uint256 electionId;\r\n        string electionName;\r\n        address creatorId;\r\n        string password;\r\n        bool hasPassword;\r\n        uint256 startDate;\r\n        uint256 endDate;\r\n        bool isActive;\r\n        string[] candidates;\r\n        string electionCover;\r\n        address[] voter;\r\n    }\r\n\r\n    struct Candidate {\r\n        string candidateId;\r\n        string candidateName;\r\n        string candidateImage;\r\n        address[] voter;\r\n    }\r\n\r\n    struct Voter {\r\n        address voterId;\r\n        bool voted;\r\n        string firstName;\r\n        string lastName;\r\n    }\r\n\r\n    function voteCandidate(string memory candidateId, address voterId) public {\r\n        Candidate storage candidate = candidates[candidateId];\r\n        candidate.voter.push(voterId);\r\n    }\r\n\r\n    function joinElection(uint256 electionId, address voterId) public {\r\n        Election storage election = elections[electionId];\r\n        election.voter.push(voterId);\r\n    }\r\n\r\n    function addCandidate(\r\n        string memory candidateId,\r\n        string memory candidateName,\r\n        string memory candidateImage\r\n    ) public {\r\n        Candidate storage newCandidate = candidates[candidateId];\r\n        newCandidate.candidateId = candidateId;\r\n        newCandidate.candidateName = candidateName;\r\n        newCandidate.candidateImage = candidateImage;\r\n    }\r\n\r\n    function getCandidate(string memory candidateId)\r\n        public\r\n        view\r\n        returns (Candidate memory)\r\n    {\r\n        return candidates[candidateId];\r\n    }\r\n\r\n    function registerUser(\r\n        address voterId,\r\n        string memory firstName,\r\n        string memory lastName\r\n    ) public {\r\n        Voter storage user = voters[voterId];\r\n        user.voterId = voterId;\r\n        user.voted = false;\r\n        user.firstName = firstName;\r\n        user.lastName = lastName;\r\n    }\r\n\r\n    function getUser(address id) public view returns (Voter memory) {\r\n        return voters[id];\r\n    }\r\n\r\n    function createElection(\r\n        string memory electionName,\r\n        address creatorId,\r\n        string memory password,\r\n        bool hasPassword,\r\n        uint256 startDate,\r\n        uint256 endDate,\r\n        bool isActive,\r\n        string[] memory candidatesList,\r\n        string memory electionCover,\r\n        address[] memory voter\r\n    ) public {\r\n        Election storage newElection = elections[nextElectionId];\r\n        newElection.electionId = nextElectionId;\r\n        newElection.electionName = electionName;\r\n        newElection.creatorId = creatorId;\r\n        newElection.password = password;\r\n        newElection.hasPassword = hasPassword;\r\n        newElection.startDate = startDate;\r\n        newElection.endDate = endDate;\r\n        newElection.isActive = isActive;\r\n        newElection.candidates = candidatesList;\r\n        newElection.electionCover = electionCover;\r\n        newElection.voter = voter;\r\n        nextElectionId++;\r\n    }\r\n\r\n    function getAnElection(uint256 id) public view returns (Election memory) {\r\n        return elections[id];\r\n    }\r\n}\r\n",
  "sourcePath": "C:\\Projects\\voting-DAPP\\BlockVoteWeb\\contracts\\voting.sol",
  "compiler": {
    "name": "solc",
    "version": "0.6.0+commit.26b70077.Emscripten.clang"
  },
  "schemaVersion": "3.2.0",
  "updatedAt": "2020-07-09T09:56:57.508Z",
  "networkType": "ethereum",
  "devdoc": {
    "methods": {}
  },
  "userdoc": {
    "methods": {}
  }
}