{
  "contractName": "Voting",
  "abi": [
    {
      "inputs": [
        {
          "internalType": "uint256",
          "name": "",
          "type": "uint256"
        }
      ],
      "name": "electionIdList",
      "outputs": [
        {
          "internalType": "string",
          "name": "",
          "type": "string"
        }
      ],
      "stateMutability": "view",
      "type": "function",
      "constant": true
    },
    {
      "inputs": [],
      "name": "getAllElectionId",
      "outputs": [
        {
          "internalType": "string[]",
          "name": "",
          "type": "string[]"
        }
      ],
      "stateMutability": "view",
      "type": "function",
      "constant": true
    },
    {
      "inputs": [
        {
          "internalType": "address",
          "name": "voterId",
          "type": "address"
        },
        {
          "internalType": "string",
          "name": "electionId",
          "type": "string"
        }
      ],
      "name": "approveVoter",
      "outputs": [],
      "stateMutability": "nonpayable",
      "type": "function"
    },
    {
      "inputs": [
        {
          "internalType": "string",
          "name": "candidateId",
          "type": "string"
        },
        {
          "internalType": "address",
          "name": "voterId",
          "type": "address"
        }
      ],
      "name": "voteCandidate",
      "outputs": [],
      "stateMutability": "nonpayable",
      "type": "function"
    },
    {
      "inputs": [
        {
          "internalType": "string",
          "name": "electionId",
          "type": "string"
        },
        {
          "internalType": "address",
          "name": "voterId",
          "type": "address"
        }
      ],
      "name": "joinElection",
      "outputs": [],
      "stateMutability": "nonpayable",
      "type": "function"
    },
    {
      "inputs": [
        {
          "internalType": "string",
          "name": "candidateId",
          "type": "string"
        },
        {
          "internalType": "string",
          "name": "candidateName",
          "type": "string"
        },
        {
          "internalType": "string",
          "name": "candidateImage",
          "type": "string"
        }
      ],
      "name": "addCandidate",
      "outputs": [],
      "stateMutability": "nonpayable",
      "type": "function"
    },
    {
      "inputs": [
        {
          "internalType": "string",
          "name": "candidateId",
          "type": "string"
        }
      ],
      "name": "getCandidate",
      "outputs": [
        {
          "components": [
            {
              "internalType": "string",
              "name": "candidateId",
              "type": "string"
            },
            {
              "internalType": "string",
              "name": "candidateName",
              "type": "string"
            },
            {
              "internalType": "string",
              "name": "candidateImage",
              "type": "string"
            },
            {
              "internalType": "address[]",
              "name": "voter",
              "type": "address[]"
            }
          ],
          "internalType": "struct Voting.Candidate",
          "name": "",
          "type": "tuple"
        }
      ],
      "stateMutability": "view",
      "type": "function",
      "constant": true
    },
    {
      "inputs": [
        {
          "internalType": "address",
          "name": "voterId",
          "type": "address"
        }
      ],
      "name": "registerUser",
      "outputs": [],
      "stateMutability": "nonpayable",
      "type": "function"
    },
    {
      "inputs": [
        {
          "internalType": "address",
          "name": "id",
          "type": "address"
        }
      ],
      "name": "getUser",
      "outputs": [
        {
          "components": [
            {
              "internalType": "address",
              "name": "voterId",
              "type": "address"
            }
          ],
          "internalType": "struct Voting.Voter",
          "name": "",
          "type": "tuple"
        }
      ],
      "stateMutability": "view",
      "type": "function",
      "constant": true
    },
    {
      "inputs": [
        {
          "internalType": "string",
          "name": "electionId",
          "type": "string"
        },
        {
          "internalType": "string",
          "name": "electionName",
          "type": "string"
        },
        {
          "internalType": "address",
          "name": "creatorId",
          "type": "address"
        },
        {
          "internalType": "string",
          "name": "password",
          "type": "string"
        },
        {
          "internalType": "bool",
          "name": "hasPassword",
          "type": "bool"
        },
        {
          "internalType": "uint256",
          "name": "startDate",
          "type": "uint256"
        },
        {
          "internalType": "uint256",
          "name": "endDate",
          "type": "uint256"
        },
        {
          "internalType": "bool",
          "name": "isActive",
          "type": "bool"
        },
        {
          "internalType": "string[]",
          "name": "candidatesList",
          "type": "string[]"
        },
        {
          "internalType": "string",
          "name": "electionCover",
          "type": "string"
        },
        {
          "internalType": "address[]",
          "name": "pendingVoter",
          "type": "address[]"
        },
        {
          "internalType": "address[]",
          "name": "approvedVoter",
          "type": "address[]"
        }
      ],
      "name": "createElection",
      "outputs": [],
      "stateMutability": "nonpayable",
      "type": "function"
    },
    {
      "inputs": [
        {
          "internalType": "string",
          "name": "id",
          "type": "string"
        }
      ],
      "name": "getAnElection",
      "outputs": [
        {
          "components": [
            {
              "internalType": "string",
              "name": "electionId",
              "type": "string"
            },
            {
              "internalType": "string",
              "name": "electionName",
              "type": "string"
            },
            {
              "internalType": "address",
              "name": "creatorId",
              "type": "address"
            },
            {
              "internalType": "string",
              "name": "password",
              "type": "string"
            },
            {
              "internalType": "bool",
              "name": "hasPassword",
              "type": "bool"
            },
            {
              "internalType": "uint256",
              "name": "startDate",
              "type": "uint256"
            },
            {
              "internalType": "uint256",
              "name": "endDate",
              "type": "uint256"
            },
            {
              "internalType": "bool",
              "name": "isActive",
              "type": "bool"
            },
            {
              "internalType": "string[]",
              "name": "candidates",
              "type": "string[]"
            },
            {
              "internalType": "string",
              "name": "electionCover",
              "type": "string"
            },
            {
              "internalType": "address[]",
              "name": "pendingVoter",
              "type": "address[]"
            },
            {
              "internalType": "address[]",
              "name": "approvedVoter",
              "type": "address[]"
            }
          ],
          "internalType": "struct Voting.Election",
          "name": "",
          "type": "tuple"
        }
      ],
      "stateMutability": "view",
      "type": "function",
      "constant": true
    }
  ],
  "bytecode": "0x608060405234801561001057600080fd5b5061193c806100206000396000f3fe608060405234801561001057600080fd5b50600436106100a95760003560e01c8063ad71f8dc11610071578063ad71f8dc14610127578063da3dee281461013a578063da51e0af1461014d578063f276669d1461016d578063fa084f251461018d578063fad761d3146101ad576100a9565b80631bcfa1f1146100ae5780632199d5cd146100c35780636f77926b146100d65780638e11acdc146100ff5780638eecb78914610112575b600080fd5b6100c16100bc3660046112f5565b6101c0565b005b6100c16100d1366004611241565b610218565b6100e96100e4366004611241565b610242565b6040516100f6919061187e565b60405180910390f35b6100c161010d366004611341565b61027a565b61011a6103d0565b6040516100f6919061165f565b6100c16101353660046114cf565b6104a9565b6100c16101483660046112f5565b610516565b61016061015b366004611552565b61056f565b6040516100f691906116bf565b61018061017b3660046112bb565b610615565b6040516100f691906116d2565b6101a061019b3660046112bb565b61086e565b6040516100f6919061174f565b6100c16101bb366004611263565b610ce4565b600080836040516101d19190611643565b90815260405160209181900382019020600a01805460018101825560009182529190200180546001600160a01b0319166001600160a01b0393909316929092179091555050565b6001600160a01b0316600081815260026020526040902080546001600160a01b0319169091179055565b61024a610e49565b506001600160a01b0390811660009081526002602090815260409182902082519182019092529054909116815290565b6000808d60405161028b9190611643565b908152602001604051809103902090508c8160000190805190602001906102b3929190610e5b565b508b516102c990600183019060208f0190610e5b565b506002810180546001600160a01b0319166001600160a01b038d1617905589516102fc90600383019060208d0190610e5b565b5060048101805460ff199081168b151517909155600582018990556006820188905560078201805490911687151517905584516103429060088301906020880190610ed9565b5083516103589060098301906020870190610e5b565b50825161036e90600a8301906020860190610f32565b50815161038490600b8301906020850190610f32565b5060038d9080600181540180825580915050600190039060005260206000200160009091909190915090805190602001906103c0929190610e5b565b5050505050505050505050505050565b60606003805480602002602001604051908101604052809291908181526020016000905b8282101561049f5760008481526020908190208301805460408051601f600260001961010060018716150201909416939093049283018590048502810185019091528181529283018282801561048b5780601f106104605761010080835404028352916020019161048b565b820191906000526020600020905b81548152906001019060200180831161046e57829003601f168201915b5050505050815260200190600101906103f4565b5050505090505b90565b60006001846040516104bb9190611643565b90815260200160405180910390209050838160000190805190602001906104e3929190610e5b565b5082516104f99060018301906020860190610e5b565b50815161050f9060028301906020850190610e5b565b5050505050565b60006001836040516105289190611643565b90815260405160209181900382019020600301805460018101825560009182529190200180546001600160a01b0319166001600160a01b0393909316929092179091555050565b6003818154811061057c57fe5b600091825260209182902001805460408051601f600260001961010060018716150201909416939093049283018590048502810185019091528181529350909183018282801561060d5780601f106105e25761010080835404028352916020019161060d565b820191906000526020600020905b8154815290600101906020018083116105f057829003601f168201915b505050505081565b61061d610f93565b60018260405161062d9190611643565b9081526040805160209281900383018120805460026001821615610100026000190190911604601f8101859004909402820160a0908101909352608082018481529193909284929184918401828280156106c85780601f1061069d576101008083540402835291602001916106c8565b820191906000526020600020905b8154815290600101906020018083116106ab57829003601f168201915b50505050508152602001600182018054600181600116156101000203166002900480601f01602080910402602001604051908101604052809291908181526020018280546001816001161561010002031660029004801561076a5780601f1061073f5761010080835404028352916020019161076a565b820191906000526020600020905b81548152906001019060200180831161074d57829003601f168201915b5050509183525050600282810180546040805160206001841615610100026000190190931694909404601f810183900483028501830190915280845293810193908301828280156107fc5780601f106107d1576101008083540402835291602001916107fc565b820191906000526020600020905b8154815290600101906020018083116107df57829003601f168201915b505050505081526020016003820180548060200260200160405190810160405280929190818152602001828054801561085e57602002820191906000526020600020905b81546001600160a01b03168152600190910190602001808311610840575b5050505050815250509050919050565b610876610fbb565b6000826040516108869190611643565b9081526040805160209281900383018120805460026001821615610100026000190190911604601f810185900490940282016101a090810190935261018082018481529193909284929184918401828280156109235780601f106108f857610100808354040283529160200191610923565b820191906000526020600020905b81548152906001019060200180831161090657829003601f168201915b50505050508152602001600182018054600181600116156101000203166002900480601f0160208091040260200160405190810160405280929190818152602001828054600181600116156101000203166002900480156109c55780601f1061099a576101008083540402835291602001916109c5565b820191906000526020600020905b8154815290600101906020018083116109a857829003601f168201915b50505091835250506002828101546001600160a01b031660208084019190915260038401805460408051601f60001960018516156101000201909316959095049182018490048402850184018152818552909401939091830182828015610a6d5780601f10610a4257610100808354040283529160200191610a6d565b820191906000526020600020905b815481529060010190602001808311610a5057829003601f168201915b5050509183525050600482015460ff908116151560208084019190915260058401546040808501919091526006850154606085015260078501549092161515608084015260088401805483518184028101840190945280845260a090940193909160009084015b82821015610b7f5760008481526020908190208301805460408051601f6002600019610100600187161502019094169390930492830185900485028101850190915281815292830182828015610b6b5780601f10610b4057610100808354040283529160200191610b6b565b820191906000526020600020905b815481529060010190602001808311610b4e57829003601f168201915b505050505081526020019060010190610ad4565b5050509082525060098201805460408051602060026001851615610100026000190190941693909304601f8101849004840282018401909252818152938201939291830182828015610c125780601f10610be757610100808354040283529160200191610c12565b820191906000526020600020905b815481529060010190602001808311610bf557829003601f168201915b50505050508152602001600a8201805480602002602001604051908101604052809291908181526020018280548015610c7457602002820191906000526020600020905b81546001600160a01b03168152600190910190602001808311610c56575b50505050508152602001600b820180548060200260200160405190810160405280929190818152602001828054801561085e576020028201919060005260206000209081546001600160a01b03168152600190910190602001808311610840575050505050815250509050919050565b60008082604051610cf59190611643565b908152604051908190036020019020905060005b600a820154600019016001600160401b0382161015610de257836001600160a01b031682600a01826001600160401b031681548110610d4457fe5b6000918252602090912001546001600160a01b03161415610dda5781600a01816001016001600160401b031681548110610d7a57fe5b600091825260209091200154600a830180546001600160a01b03909216916001600160401b038416908110610dab57fe5b9060005260206000200160006101000a8154816001600160a01b0302191690836001600160a01b031602179055505b600101610d09565b5080600a01805480610df057fe5b60008281526020808220830160001990810180546001600160a01b03199081169091559301909355600b9093018054600181018255908452919092200180546001600160a01b0394909416939091169290921790915550565b60408051602081019091526000815290565b828054600181600116156101000203166002900490600052602060002090601f016020900481019282601f10610e9c57805160ff1916838001178555610ec9565b82800160010185558215610ec9579182015b82811115610ec9578251825591602001919060010190610eae565b50610ed5929150611029565b5090565b828054828255906000526020600020908101928215610f26579160200282015b82811115610f265782518051610f16918491602090910190610e5b565b5091602001919060010190610ef9565b50610ed5929150611043565b828054828255906000526020600020908101928215610f87579160200282015b82811115610f8757825182546001600160a01b0319166001600160a01b03909116178255602090920191600190910190610f52565b50610ed5929150611066565b6040518060800160405280606081526020016060815260200160608152602001606081525090565b604051806101800160405280606081526020016060815260200160006001600160a01b03168152602001606081526020016000151581526020016000815260200160008152602001600015158152602001606081526020016060815260200160608152602001606081525090565b6104a691905b80821115610ed5576000815560010161102f565b6104a691905b80821115610ed557600061105d828261108a565b50600101611049565b6104a691905b80821115610ed55780546001600160a01b031916815560010161106c565b50805460018160011615610100020316600290046000825580601f106110b057506110ce565b601f0160209004906000526020600020908101906110ce9190611029565b50565b80356001600160a01b03811681146110e857600080fd5b92915050565b600082601f8301126110fe578081fd5b813561111161110c826118b7565b611891565b81815291506020808301908481018184028601820187101561113257600080fd5b60005b848110156111595761114788836110d1565b84529282019290820190600101611135565b505050505092915050565b600082601f830112611174578081fd5b813561118261110c826118b7565b8181529150602080830190840160005b838110156111bf576111aa87602084358901016111d9565b83526020928301929190910190600101611192565b5050505092915050565b803580151581146110e857600080fd5b600082601f8301126111e9578081fd5b81356001600160401b038111156111fe578182fd5b611211601f8201601f1916602001611891565b915080825283602082850101111561122857600080fd5b8060208401602084013760009082016020015292915050565b600060208284031215611252578081fd5b61125c83836110d1565b9392505050565b60008060408385031215611275578081fd5b82356001600160a01b038116811461128b578182fd5b915060208301356001600160401b038111156112a5578182fd5b6112b1858286016111d9565b9150509250929050565b6000602082840312156112cc578081fd5b81356001600160401b038111156112e1578182fd5b6112ed848285016111d9565b949350505050565b60008060408385031215611307578182fd5b82356001600160401b0381111561131c578283fd5b611328858286016111d9565b92505061133884602085016110d1565b90509250929050565b6000806000806000806000806000806000806101808d8f031215611363578788fd5b6001600160401b038d351115611377578788fd5b6113848e8e358f016111d9565b9b506001600160401b0360208e0135111561139d578788fd5b6113ad8e60208f01358f016111d9565b9a506113bc8e60408f016110d1565b99506001600160401b0360608e013511156113d5578788fd5b6113e58e60608f01358f016111d9565b98506113f48e60808f016111c9565b975060a08d0135965060c08d013595506114118e60e08f016111c9565b94506001600160401b036101008e0135111561142b578384fd5b61143c8e6101008f01358f01611164565b93506001600160401b036101208e01351115611456578283fd5b6114678e6101208f01358f016111d9565b92506001600160401b036101408e01351115611481578081fd5b6114928e6101408f01358f016110ee565b91506001600160401b036101608e013511156114ac578081fd5b6114bd8e6101608f01358f016110ee565b90509295989b509295989b509295989b565b6000806000606084860312156114e3578283fd5b83356001600160401b03808211156114f9578485fd5b611505878388016111d9565b9450602086013591508082111561151a578384fd5b611526878388016111d9565b9350604086013591508082111561153b578283fd5b50611548868287016111d9565b9150509250925092565b600060208284031215611563578081fd5b5035919050565b6001600160a01b03169052565b6000815180845260208401935060208301825b828110156115b15781516001600160a01b031686526020958601959091019060010161158a565b5093949350505050565b60008282518085526020808601955080818302840101818601855b8481101561160457601f198684030189526115f2838351611617565b988401989250908301906001016115d6565b5090979650505050505050565b15159052565b6000815180845261162f8160208601602086016118d6565b601f01601f19169290920160200192915050565b600082516116558184602087016118d6565b9190910192915050565b6000602080830181845280855180835260408601915060408482028701019250838701855b828110156116b257603f198886030184526116a0858351611617565b94509285019290850190600101611684565b5092979650505050505050565b60006020825261125c6020830184611617565b6000602082528251608060208401526116ee60a0840182611617565b60208501519150601f198085830301604086015261170c8284611617565b60408701519350818682030160608701526117278185611617565b9250506060860151925080858303016080860152506117468183611577565b95945050505050565b600060208252825161018080602085015261176e6101a0850183611617565b60208601519250601f198086830301604087015261178c8285611617565b604088015194506117a0606088018661156a565b60608801519450818782030160808801526117bb8186611617565b925050608087015193506117d260a0870185611611565b60a087015160c087015260c087015160e087015260e087015193506101006117fc81880186611611565b8088015194505061012081878403018188015261181983866115bb565b81890151955061014093508288820301848901526118378187611617565b91505082880151945061016092508187820301838801526118588186611577565b8389015195508288820301858901526118718187611577565b9998505050505050505050565b90516001600160a01b0316815260200190565b6040518181016001600160401b03811182821017156118af57600080fd5b604052919050565b60006001600160401b038211156118cc578081fd5b5060209081020190565b60005b838110156118f15781810151838201526020016118d9565b83811115611900576000848401525b5050505056fea26469706673582212203ae4994b54981729f047ac2e2bf4e0bd2aff9e6b37e69af40a5d094babe6f1ce64736f6c63430006000033",
  "source": "//SPDX-License-Identifier: MIT\r\npragma solidity ^0.6.0;\r\npragma experimental ABIEncoderV2;\r\n\r\ncontract Voting {\r\n    // uint256 public nextElectionId = 1;\r\n    mapping(string => Election) elections;\r\n    mapping(string => Candidate) candidates;\r\n\r\n    mapping(address => Voter) voters;\r\n\r\n    string[] public electionIdList;\r\n\r\n    struct Election {\r\n        string electionId;\r\n        string electionName;\r\n        address creatorId;\r\n        string password;\r\n        bool hasPassword;\r\n        uint256 startDate;\r\n        uint256 endDate;\r\n        bool isActive;\r\n        string[] candidates;\r\n        string electionCover;\r\n        address[] pendingVoter;\r\n        address[] approvedVoter;\r\n    }\r\n\r\n    struct Candidate {\r\n        string candidateId;\r\n        string candidateName;\r\n        string candidateImage;\r\n        address[] voter;\r\n    }\r\n\r\n    struct Voter {\r\n        address voterId;\r\n    }\r\n\r\n    function getAllElectionId() public view returns (string[] memory) {\r\n        return electionIdList;\r\n    }\r\n\r\n    function approveVoter(address voterId, string memory electionId) public {\r\n        Election storage election = elections[electionId];\r\n        for (uint64 i = 0; i < election.pendingVoter.length - 1; i++) {\r\n            if (election.pendingVoter[i] == voterId) {\r\n                election.pendingVoter[i] = election.pendingVoter[i + 1];\r\n            }\r\n        }\r\n        election.pendingVoter.pop();\r\n        election.approvedVoter.push(voterId);\r\n    }\r\n\r\n    function voteCandidate(string memory candidateId, address voterId) public {\r\n        Candidate storage candidate = candidates[candidateId];\r\n        candidate.voter.push(voterId);\r\n    }\r\n\r\n    function joinElection(string memory electionId, address voterId) public {\r\n        Election storage election = elections[electionId];\r\n        election.pendingVoter.push(voterId);\r\n    }\r\n\r\n    function addCandidate(\r\n        string memory candidateId,\r\n        string memory candidateName,\r\n        string memory candidateImage\r\n    ) public {\r\n        Candidate storage newCandidate = candidates[candidateId];\r\n        newCandidate.candidateId = candidateId;\r\n        newCandidate.candidateName = candidateName;\r\n        newCandidate.candidateImage = candidateImage;\r\n    }\r\n\r\n    function getCandidate(string memory candidateId)\r\n        public\r\n        view\r\n        returns (Candidate memory)\r\n    {\r\n        return candidates[candidateId];\r\n    }\r\n\r\n    function registerUser(address voterId) public {\r\n        Voter storage user = voters[voterId];\r\n        user.voterId = voterId;\r\n    }\r\n\r\n    function getUser(address id) public view returns (Voter memory) {\r\n        return voters[id];\r\n    }\r\n\r\n    function createElection(\r\n        string memory electionId,\r\n        string memory electionName,\r\n        address creatorId,\r\n        string memory password,\r\n        bool hasPassword,\r\n        uint256 startDate,\r\n        uint256 endDate,\r\n        bool isActive,\r\n        string[] memory candidatesList,\r\n        string memory electionCover,\r\n        address[] memory pendingVoter,\r\n        address[] memory approvedVoter\r\n    ) public {\r\n        Election storage newElection = elections[electionId];\r\n        newElection.electionId = electionId;\r\n        newElection.electionName = electionName;\r\n        newElection.creatorId = creatorId;\r\n        newElection.password = password;\r\n        newElection.hasPassword = hasPassword;\r\n        newElection.startDate = startDate;\r\n        newElection.endDate = endDate;\r\n        newElection.isActive = isActive;\r\n        newElection.candidates = candidatesList;\r\n        newElection.electionCover = electionCover;\r\n        newElection.pendingVoter = pendingVoter;\r\n        newElection.approvedVoter = approvedVoter;\r\n        electionIdList.push(electionId);\r\n    }\r\n\r\n    function getAnElection(string memory id)\r\n        public\r\n        view\r\n        returns (Election memory)\r\n    {\r\n        return elections[id];\r\n    }\r\n}\r\n",
  "sourcePath": "C:\\Projects\\voting-DAPP\\BlockVoteWeb\\contracts\\voting.sol",
  "compiler": {
    "name": "solc",
    "version": "0.6.0+commit.26b70077.Emscripten.clang"
  },
  "schemaVersion": "3.2.0",
  "updatedAt": "2020-07-11T10:23:08.721Z",
  "networkType": "ethereum",
  "devdoc": {
    "methods": {}
  },
  "userdoc": {
    "methods": {}
  }
}