{
  "contractName": "Voting",
  "abi": [
    {
      "inputs": [
        {
          "internalType": "uint256",
          "name": "",
          "type": "uint256"
        }
      ],
      "name": "allElectionList",
      "outputs": [
        {
          "internalType": "uint256",
          "name": "",
          "type": "uint256"
        }
      ],
      "stateMutability": "view",
      "type": "function",
      "constant": true
    },
    {
      "inputs": [],
      "name": "nextElectionId",
      "outputs": [
        {
          "internalType": "uint256",
          "name": "",
          "type": "uint256"
        }
      ],
      "stateMutability": "view",
      "type": "function",
      "constant": true
    },
    {
      "inputs": [
        {
          "internalType": "address",
          "name": "voterId",
          "type": "address"
        },
        {
          "internalType": "string",
          "name": "firstName",
          "type": "string"
        },
        {
          "internalType": "string",
          "name": "lastName",
          "type": "string"
        }
      ],
      "name": "registerUser",
      "outputs": [],
      "stateMutability": "nonpayable",
      "type": "function"
    },
    {
      "inputs": [
        {
          "internalType": "address",
          "name": "id",
          "type": "address"
        }
      ],
      "name": "getUser",
      "outputs": [
        {
          "internalType": "address",
          "name": "",
          "type": "address"
        },
        {
          "internalType": "string",
          "name": "",
          "type": "string"
        },
        {
          "internalType": "string",
          "name": "",
          "type": "string"
        }
      ],
      "stateMutability": "view",
      "type": "function",
      "constant": true
    },
    {
      "inputs": [
        {
          "internalType": "string",
          "name": "electionName",
          "type": "string"
        },
        {
          "internalType": "address",
          "name": "creatorId",
          "type": "address"
        },
        {
          "internalType": "string",
          "name": "password",
          "type": "string"
        },
        {
          "internalType": "bool",
          "name": "hasPassword",
          "type": "bool"
        },
        {
          "internalType": "uint256",
          "name": "startDate",
          "type": "uint256"
        },
        {
          "internalType": "uint256",
          "name": "endDate",
          "type": "uint256"
        },
        {
          "internalType": "bool",
          "name": "isActive",
          "type": "bool"
        },
        {
          "internalType": "string[]",
          "name": "candidates",
          "type": "string[]"
        }
      ],
      "name": "createElection",
      "outputs": [],
      "stateMutability": "nonpayable",
      "type": "function"
    },
    {
      "inputs": [
        {
          "internalType": "uint256",
          "name": "id",
          "type": "uint256"
        }
      ],
      "name": "getAnElection",
      "outputs": [
        {
          "internalType": "uint256",
          "name": "",
          "type": "uint256"
        },
        {
          "internalType": "string",
          "name": "",
          "type": "string"
        }
      ],
      "stateMutability": "view",
      "type": "function",
      "constant": true
    }
  ],
  "bytecode": "0x6080604052600160005534801561001557600080fd5b506109d3806100256000396000f3fe608060405234801561001057600080fd5b50600436106100625760003560e01c80630533cef51461006757806327cc4ed9146100915780635313837b146100b15780636f77926b146100b9578063db0c87c9146100db578063ece51cd4146100f0575b600080fd5b61007a610075366004610880565b610103565b604051610088929190610955565b60405180910390f35b6100a461009f366004610880565b6101af565b604051610088919061094c565b6100a46101cd565b6100cc6100c736600461071f565b6101d3565b604051610088939291906108e3565b6100ee6100e9366004610741565b61036c565b005b6100ee6100fe3660046107b3565b6103c9565b6000818152600160208181526040808420805490840180548351600296821615610100026000190190911695909504601f810185900485028601850190935282855260609491939092839183018282801561019f5780601f106101745761010080835404028352916020019161019f565b820191906000526020600020905b81548152906001019060200180831161018257829003601f168201915b5050505050905091509150915091565b600281815481106101bc57fe5b600091825260209091200154905081565b60005481565b6001600160a01b03818116600090815260036020526040812054909160609182911661021a5760405162461bcd60e51b815260040161021190610923565b60405180910390fd5b6001600160a01b038085166000908152600360209081526040918290208054600180830180548651601f60026000199584161561010002959095019092168490049182018790048702810187019097528087529290961695949201928491908301828280156102ca5780601f1061029f576101008083540402835291602001916102ca565b820191906000526020600020905b8154815290600101906020018083116102ad57829003601f168201915b5050845460408051602060026001851615610100026000190190941693909304601f8101849004840282018401909252818152959750869450925084019050828280156103585780601f1061032d57610100808354040283529160200191610358565b820191906000526020600020905b81548152906001019060200180831161033b57829003601f168201915b505050505090509250925092509193909250565b6001600160a01b038316600081815260036020908152604090912080546001600160a01b031916909217825583516103ac916001840191908601906104b4565b5081516103c290600283019060208501906104b4565b5050505050565b600080548082526001602081815260409093209182558a5191926103f49291840191908c01906104b4565b506002810180546001600160a01b0319166001600160a01b038a16179055865161042790600383019060208a01906104b4565b5060048101805460ff19908116881515179091556005820186905560068201859055600782018054909116841515179055815161046d9060088301906020850190610532565b50506000805460019081018083556002805492830181559092527f405787fa12a823e0f2b7631cc41b3ba8828b3321ca811111fa75cd3aa3bb5ace01555050505050505050565b828054600181600116156101000203166002900490600052602060002090601f016020900481019282601f106104f557805160ff1916838001178555610522565b82800160010185558215610522579182015b82811115610522578251825591602001919060010190610507565b5061052e92915061058b565b5090565b82805482825590600052602060002090810192821561057f579160200282015b8281111561057f578251805161056f9184916020909101906104b4565b5091602001919060010190610552565b5061052e9291506105a8565b6105a591905b8082111561052e5760008155600101610591565b90565b6105a591905b8082111561052e5760006105c282826105cb565b506001016105ae565b50805460018160011615610100020316600290046000825580601f106105f1575061060f565b601f01602090049060005260206000209081019061060f919061058b565b50565b80356001600160a01b038116811461062957600080fd5b92915050565b600082601f83011261063f578081fd5b813567ffffffffffffffff811115610655578182fd5b60206106648182840201610976565b828152925080830184820160005b8481101561069b57610689888584358a01016106b6565b83529183019190830190600101610672565b505050505092915050565b8035801515811461062957600080fd5b600082601f8301126106c6578081fd5b813567ffffffffffffffff8111156106dc578182fd5b6106ef601f8201601f1916602001610976565b915080825283602082850101111561070657600080fd5b8060208401602084013760009082016020015292915050565b600060208284031215610730578081fd5b61073a8383610612565b9392505050565b600080600060608486031215610755578182fd5b61075f8585610612565b9250602084013567ffffffffffffffff8082111561077b578384fd5b610787878388016106b6565b9350604086013591508082111561079c578283fd5b506107a9868287016106b6565b9150509250925092565b600080600080600080600080610100898b0312156107cf578384fd5b883567ffffffffffffffff808211156107e6578586fd5b6107f28c838d016106b6565b99506108018c60208d01610612565b985060408b0135915080821115610816578586fd5b6108228c838d016106b6565b97506108318c60608d016106a6565b965060808b0135955060a08b0135945061084e8c60c08d016106a6565b935060e08b0135915080821115610863578283fd5b506108708b828c0161062f565b9150509295985092959890939650565b600060208284031215610891578081fd5b5035919050565b60008151808452815b818110156108bd576020818501810151868301820152016108a1565b818111156108ce5782602083870101525b50601f01601f19169290920160200192915050565b6001600160a01b038416815260606020820181905260009061090790830185610898565b82810360408401526109198185610898565b9695505050505050565b6020808252600f908201526e55736572206e6f7420666f756e642160881b604082015260600190565b90815260200190565b60008382526040602083015261096e6040830184610898565b949350505050565b60405181810167ffffffffffffffff8111828210171561099557600080fd5b60405291905056fea26469706673582212208935430be83fd0c193254201119841f80c1e7adc69036c0fc1be2a2ed2615d3264736f6c63430006000033",
  "source": "//SPDX-License-Identifier: MIT\r\npragma solidity ^0.6.0;\r\npragma experimental ABIEncoderV2;\r\n\r\ncontract Voting {\r\n    uint256 public nextElectionId = 1;\r\n\r\n    // Election[] public elections;\r\n    mapping(uint256 => Election) elections;\r\n    uint256[] public allElectionList;\r\n\r\n    mapping(address => Voter) voters;\r\n\r\n    struct Election {\r\n        uint256 electionId;\r\n        string electionName;\r\n        address creatorId;\r\n        string password;\r\n        bool hasPassword;\r\n        uint256 startDate;\r\n        uint256 endDate;\r\n        bool isActive;\r\n        string[] candidates;\r\n        // Voter[] voter;\r\n    }\r\n\r\n    struct Voter {\r\n        address voterId;\r\n        bool voted;\r\n        string firstName;\r\n        string lastName;\r\n        // Election[] participatedElection;\r\n    }\r\n\r\n    // mapping(address => Voter) voters;\r\n    // address[] public votersList;\r\n\r\n    function registerUser(\r\n        address voterId,\r\n        string memory firstName,\r\n        string memory lastName\r\n    ) public {\r\n        Voter storage user = voters[voterId];\r\n        user.voterId = voterId;\r\n        user.firstName = firstName;\r\n        user.lastName = lastName;\r\n    }\r\n\r\n    function getUser(address id)\r\n        public\r\n        view\r\n        returns (\r\n            address,\r\n            string memory,\r\n            string memory\r\n        )\r\n    {\r\n        if (address(voters[id].voterId) == address(0)) {\r\n            revert(\"User not found!\");\r\n        } else {\r\n            \r\n        return (voters[id].voterId, voters[id].firstName, voters[id].lastName);\r\n        }\r\n    }\r\n\r\n    function createElection(\r\n        string memory electionName,\r\n        address creatorId,\r\n        string memory password,\r\n        bool hasPassword,\r\n        uint256 startDate,\r\n        uint256 endDate,\r\n        bool isActive,\r\n        string[] memory candidates\r\n    ) public {\r\n        Election storage newElection = elections[nextElectionId];\r\n        newElection.electionId = nextElectionId;\r\n        newElection.electionName = electionName;\r\n        newElection.creatorId = creatorId;\r\n        newElection.password = password;\r\n        newElection.hasPassword = hasPassword;\r\n        newElection.startDate = startDate;\r\n        newElection.endDate = endDate;\r\n        newElection.isActive = isActive;\r\n        newElection.candidates = candidates;\r\n        nextElectionId++;\r\n        allElectionList.push(nextElectionId);\r\n    }\r\n\r\n    function getAnElection(uint256 id)\r\n        public\r\n        view\r\n        returns (uint256, string memory)\r\n    {\r\n        return (elections[id].electionId, elections[id].electionName);\r\n    }\r\n\r\n    // function findElection(uint256 id) internal view returns (uint256) {\r\n    //     for (uint256 i = 0; i < elections.length; i++) {\r\n    //         if (elections[i].electionId == id) {\r\n    //             return i;\r\n    //         }\r\n    //     }\r\n    //     revert(\"Election does not exist!\");\r\n    // }\r\n\r\n    // function getAllElections() public view returns (Election[] memory) {\r\n    //     return elections;\r\n    // }\r\n}\r\n",
  "sourcePath": "/home/num3/Documents/voting-DAPP/BlockVoteWeb/contracts/voting.sol",
  "compiler": {
    "name": "solc",
    "version": "0.6.0+commit.26b70077.Emscripten.clang"
  },
  "schemaVersion": "3.2.0",
  "updatedAt": "2020-06-29T05:54:28.383Z",
  "networkType": "ethereum",
  "devdoc": {
    "methods": {}
  },
  "userdoc": {
    "methods": {}
  }
}