{
  "contractName": "Voting",
  "abi": [
    {
      "inputs": [
        {
          "internalType": "uint256",
          "name": "",
          "type": "uint256"
        }
      ],
      "name": "allElectionList",
      "outputs": [
        {
          "internalType": "uint256",
          "name": "",
          "type": "uint256"
        }
      ],
      "stateMutability": "view",
      "type": "function",
      "constant": true
    },
    {
      "inputs": [],
      "name": "nextElectionId",
      "outputs": [
        {
          "internalType": "uint256",
          "name": "",
          "type": "uint256"
        }
      ],
      "stateMutability": "view",
      "type": "function",
      "constant": true
    },
    {
      "inputs": [
        {
          "internalType": "address",
          "name": "voterId",
          "type": "address"
        },
        {
          "internalType": "string",
          "name": "firstName",
          "type": "string"
        },
        {
          "internalType": "string",
          "name": "lastName",
          "type": "string"
        }
      ],
      "name": "registerUser",
      "outputs": [],
      "stateMutability": "nonpayable",
      "type": "function"
    },
    {
      "inputs": [
        {
          "internalType": "address",
          "name": "id",
          "type": "address"
        }
      ],
      "name": "getUser",
      "outputs": [
        {
          "internalType": "address",
          "name": "",
          "type": "address"
        },
        {
          "internalType": "string",
          "name": "",
          "type": "string"
        },
        {
          "internalType": "string",
          "name": "",
          "type": "string"
        }
      ],
      "stateMutability": "view",
      "type": "function",
      "constant": true
    },
    {
      "inputs": [
        {
          "internalType": "string",
          "name": "electionName",
          "type": "string"
        },
        {
          "internalType": "address",
          "name": "creatorId",
          "type": "address"
        },
        {
          "internalType": "string",
          "name": "password",
          "type": "string"
        },
        {
          "internalType": "bool",
          "name": "hasPassword",
          "type": "bool"
        },
        {
          "internalType": "uint256",
          "name": "startDate",
          "type": "uint256"
        },
        {
          "internalType": "uint256",
          "name": "endDate",
          "type": "uint256"
        },
        {
          "internalType": "bool",
          "name": "isActive",
          "type": "bool"
        },
        {
          "internalType": "string[]",
          "name": "candidates",
          "type": "string[]"
        }
      ],
      "name": "createElection",
      "outputs": [],
      "stateMutability": "nonpayable",
      "type": "function"
    },
    {
      "inputs": [
        {
          "internalType": "uint256",
          "name": "id",
          "type": "uint256"
        }
      ],
      "name": "getAnElection",
      "outputs": [
        {
          "internalType": "uint256",
          "name": "",
          "type": "uint256"
        },
        {
          "internalType": "string",
          "name": "",
          "type": "string"
        }
      ],
      "stateMutability": "view",
      "type": "function",
      "constant": true
    }
  ],
  "bytecode": "0x6080604052600160005534801561001557600080fd5b5061096b806100256000396000f3fe608060405234801561001057600080fd5b50600436106100625760003560e01c80630533cef51461006757806327cc4ed9146100915780635313837b146100b15780636f77926b146100b9578063db0c87c9146100db578063ece51cd4146100f0575b600080fd5b61007a610075366004610841565b610103565b6040516100889291906108ed565b60405180910390f35b6100a461009f366004610841565b6101af565b60405161008891906108e4565b6100a46101cd565b6100cc6100c73660046106e0565b6101d3565b604051610088939291906108a4565b6100ee6100e9366004610702565b61032d565b005b6100ee6100fe366004610774565b61038a565b6000818152600160208181526040808420805490840180548351600296821615610100026000190190911695909504601f810185900485028601850190935282855260609491939092839183018282801561019f5780601f106101745761010080835404028352916020019161019f565b820191906000526020600020905b81548152906001019060200180831161018257829003601f168201915b5050505050905091509150915091565b600281815481106101bc57fe5b600091825260209091200154905081565b60005481565b6001600160a01b03818116600090815260036020908152604080832080546001808301805485516002610100948316159490940260001901909116839004601f81018890048802820188019096528581529697606097889794909116959194929092019284919083018282801561028b5780601f106102605761010080835404028352916020019161028b565b820191906000526020600020905b81548152906001019060200180831161026e57829003601f168201915b5050845460408051602060026001851615610100026000190190941693909304601f8101849004840282018401909252818152959750869450925084019050828280156103195780601f106102ee57610100808354040283529160200191610319565b820191906000526020600020905b8154815290600101906020018083116102fc57829003601f168201915b505050505090509250925092509193909250565b6001600160a01b038316600081815260036020908152604090912080546001600160a01b0319169092178255835161036d91600184019190860190610475565b5081516103839060028301906020850190610475565b5050505050565b600080548082526001602081815260409093209182558a5191926103b59291840191908c0190610475565b506002810180546001600160a01b0319166001600160a01b038a1617905586516103e890600383019060208a0190610475565b5060048101805460ff19908116881515179091556005820186905560068201859055600782018054909116841515179055815161042e90600883019060208501906104f3565b50506000805460019081018083556002805492830181559092527f405787fa12a823e0f2b7631cc41b3ba8828b3321ca811111fa75cd3aa3bb5ace01555050505050505050565b828054600181600116156101000203166002900490600052602060002090601f016020900481019282601f106104b657805160ff19168380011785556104e3565b828001600101855582156104e3579182015b828111156104e35782518255916020019190600101906104c8565b506104ef92915061054c565b5090565b828054828255906000526020600020908101928215610540579160200282015b828111156105405782518051610530918491602090910190610475565b5091602001919060010190610513565b506104ef929150610569565b61056691905b808211156104ef5760008155600101610552565b90565b61056691905b808211156104ef576000610583828261058c565b5060010161056f565b50805460018160011615610100020316600290046000825580601f106105b257506105d0565b601f0160209004906000526020600020908101906105d0919061054c565b50565b80356001600160a01b03811681146105ea57600080fd5b92915050565b600082601f830112610600578081fd5b813567ffffffffffffffff811115610616578182fd5b6020610625818284020161090e565b828152925080830184820160005b8481101561065c5761064a888584358a0101610677565b83529183019190830190600101610633565b505050505092915050565b803580151581146105ea57600080fd5b600082601f830112610687578081fd5b813567ffffffffffffffff81111561069d578182fd5b6106b0601f8201601f191660200161090e565b91508082528360208285010111156106c757600080fd5b8060208401602084013760009082016020015292915050565b6000602082840312156106f1578081fd5b6106fb83836105d3565b9392505050565b600080600060608486031215610716578182fd5b61072085856105d3565b9250602084013567ffffffffffffffff8082111561073c578384fd5b61074887838801610677565b9350604086013591508082111561075d578283fd5b5061076a86828701610677565b9150509250925092565b600080600080600080600080610100898b031215610790578384fd5b883567ffffffffffffffff808211156107a7578586fd5b6107b38c838d01610677565b99506107c28c60208d016105d3565b985060408b01359150808211156107d7578586fd5b6107e38c838d01610677565b97506107f28c60608d01610667565b965060808b0135955060a08b0135945061080f8c60c08d01610667565b935060e08b0135915080821115610824578283fd5b506108318b828c016105f0565b9150509295985092959890939650565b600060208284031215610852578081fd5b5035919050565b60008151808452815b8181101561087e57602081850181015186830182015201610862565b8181111561088f5782602083870101525b50601f01601f19169290920160200192915050565b6001600160a01b03841681526060602082018190526000906108c890830185610859565b82810360408401526108da8185610859565b9695505050505050565b90815260200190565b6000838252604060208301526109066040830184610859565b949350505050565b60405181810167ffffffffffffffff8111828210171561092d57600080fd5b60405291905056fea2646970667358221220a3f432d7a31ece7c7971d5cc671ec458af5a498d051bff575ad810281bedde0864736f6c63430006000033",
  "source": "//SPDX-License-Identifier: MIT\r\npragma solidity ^0.6.0;\r\npragma experimental ABIEncoderV2;\r\n\r\ncontract Voting {\r\n    uint256 public nextElectionId = 1;\r\n\r\n    // Election[] public elections;\r\n    mapping(uint256 => Election) elections;\r\n    uint256[] public allElectionList;\r\n\r\n    mapping(address => Voter) voters;\r\n\r\n    struct Election {\r\n        uint256 electionId;\r\n        string electionName;\r\n        address creatorId;\r\n        string password;\r\n        bool hasPassword;\r\n        uint256 startDate;\r\n        uint256 endDate;\r\n        bool isActive;\r\n        string[] candidates;\r\n        // Voter[] voter;\r\n    }\r\n\r\n    struct Voter {\r\n        address voterId;\r\n        bool voted;\r\n        string firstName;\r\n        string lastName;\r\n        // Election[] participatedElection;\r\n    }\r\n\r\n    // mapping(address => Voter) voters;\r\n    // address[] public votersList;\r\n\r\n    function registerUser(\r\n        address voterId,\r\n        string memory firstName,\r\n        string memory lastName\r\n    ) public {\r\n        Voter storage user = voters[voterId];\r\n        user.voterId = voterId;\r\n        user.firstName = firstName;\r\n        user.lastName = lastName;\r\n    }\r\n\r\n    function getUser(address id)\r\n        public\r\n        view\r\n        returns (\r\n            address,\r\n            string memory,\r\n            string memory\r\n        )\r\n    {\r\n        return (voters[id].voterId, voters[id].firstName, voters[id].lastName);\r\n    }\r\n\r\n    function createElection(\r\n        string memory electionName,\r\n        address creatorId,\r\n        string memory password,\r\n        bool hasPassword,\r\n        uint256 startDate,\r\n        uint256 endDate,\r\n        bool isActive,\r\n        string[] memory candidates\r\n    ) public {\r\n        Election storage newElection = elections[nextElectionId];\r\n        newElection.electionId = nextElectionId;\r\n        newElection.electionName = electionName;\r\n        newElection.creatorId = creatorId;\r\n        newElection.password = password;\r\n        newElection.hasPassword = hasPassword;\r\n        newElection.startDate = startDate;\r\n        newElection.endDate = endDate;\r\n        newElection.isActive = isActive;\r\n        newElection.candidates = candidates;\r\n        nextElectionId++;\r\n        allElectionList.push(nextElectionId);\r\n    }\r\n\r\n    function getAnElection(uint256 id)\r\n        public\r\n        view\r\n        returns (uint256, string memory)\r\n    {\r\n        return (elections[id].electionId, elections[id].electionName);\r\n    }\r\n\r\n    // function findElection(uint256 id) internal view returns (uint256) {\r\n    //     for (uint256 i = 0; i < elections.length; i++) {\r\n    //         if (elections[i].electionId == id) {\r\n    //             return i;\r\n    //         }\r\n    //     }\r\n    //     revert(\"Election does not exist!\");\r\n    // }\r\n\r\n    // function getAllElections() public view returns (Election[] memory) {\r\n    //     return elections;\r\n    // }\r\n}\r\n",
  "sourcePath": "C:\\Projects\\voting-DAPP\\BlockVoteWeb\\contracts\\voting.sol",
  "compiler": {
    "name": "solc",
    "version": "0.6.0+commit.26b70077.Emscripten.clang"
  },
  "schemaVersion": "3.0.23",
  "updatedAt": "2020-06-29T11:28:06.171Z",
  "networkType": "ethereum",
  "devdoc": {
    "methods": {}
  },
  "userdoc": {
    "methods": {}
  }
}